:020000040000FA
:1000000070060020790400007D0400007F040000D9
:10001000810400008304000085040000000000004B
:100020000000000000000000000000008704000045
:1000300089040000000000008B0400008D04000013
:100040008F0400008F0400008F0400008F04000064
:1000500000000000000000008F0400008F0400007A
:100060008F0400008F0400008F0400008F04000044
:100070008F0400008F0400008F0400008F04000034
:100080008F0400008F0400008F0400008F04000024
:10009000000000008F040000000000008F0400003A
:1000A0008F0400008F0400008F0400008F04000004
:1000B0008F0400008F0400008F0400008F040000F4
:1000C000000000008F040000000000008F0400000A
:1000D0008F0400008F0400008F0400008F040000D4
:1000E0008F040000000000008F0400008F04000057
:1000F0008F0400008F0400008F0400008F040000B4
:1001000000000000000000008F0400008F040000C9
:100110008F0400008F0400008F0400008F04000093
:100120008F0400008F0400008F0400008F04000083
:100130000000000000F002F800F03CF80AA090E88F
:10014000000C82448344AAF10107DA4501D100F092
:1001500031F8AFF2090EBAE80F0013F0010F18BF23
:10016000FB1A43F001031847AC070000CC0700005E
:10017000103A24BF78C878C1FAD8520724BF30C8D3
:1001800030C144BF04680C607047000000230024A5
:1001900000250026103A28BF78C1FBD8520728BF97
:1001A00030C148BF0B6070471FB500F0ACFB1FBDEE
:1001B00010B510BD00F06DFB1146FFF7F5FF00F024
:1001C0003FFB00F08BFB03B4FFF7F2FF03BC00F032
:1001D00093FB000000209849096F11F0030106D03D
:1001E000012908D002290AD0032932D12EE09349EF
:1001F000934A11602DE09349914A116029E08E499C
:10020000096C11F0030106D001290ED0022916D085
:10021000032919D114E08849896801F01F01491C9C
:10022000864A5143864A11600EE08349896801F08D
:100230001F01491C834A5143814A116004E000BFF9
:1002400000217F4A116000BF00BF02E07C490860C6
:1002500000BF00BF7A4909687B4A11607649896FFF
:10026000774A1268B2FBF1F1754A11607749096863
:10027000C1F30221042905D1114609684908744ACD
:10028000116027E071490968C1F30221052905D1F0
:100290006B49096889086E4A11601BE06B4909685F
:1002A000C1F30221062905D165490968C908684AD0
:1002B00011600FE065490968C1F30221072905D1E2
:1002C0005F4909680909624A116003E05C490968ED
:1002D0005F4A11605D490968C1F3C221042905D153
:1002E0005749096849085B4A116027E0574909687E
:1002F000C1F3C221052905D1514909688908554A28
:1003000011601BE051490968C1F3C221062905D1DA
:100310004B490968C9084F4A11600FE04B49096809
:10032000C1F3C221072905D1454909680909494A8C
:10033000116003E042490968464A11607047002194
:10034000454A1160AA21444A0832116055211160C2
:100350000021424A1160AA219160552191604049D3
:1003600009684FF0FF314FF0E022C2F880123249A5
:10037000D1F8381221F480713A4A11604FF002012D
:100380002D4A11624FF0000001E000BF401CC82858
:10039000FBD30121284A516411640021516444F2C5
:1003A000490191602F49096821F08001C2F8381293
:1003B0004FF0000001E000BF401CC828FBD3032120
:1003C000294AD16001211C4A51670221116700218D
:1003D000516701219167254A1160174A5162114600
:1003E000D1F8381221F040011E4A116040F2FF118D
:1003F000114AC2F884101146D1F8881041F000511A
:10040000C2F888101146D1F8381221F01001154AAF
:10041000116041F24801164A116040F2FF1102F1E9
:100420000402116041F24801124A116040F2FF11CA
:1004300002F104021160704700100240005A62028B
:100440000000002000127A000400002094100240F6
:10045000080000200C000020002C0040003000406C
:1004600080E200E038120240002002409810024072
:10047000007400401074004008480047FEE7FEE7A3
:10048000FEE7FEE7FEE7FEE7FEE7FEE7FEE7FEE744
:1004900003480449044A054B704700003501000039
:1004A0007000002070060020700200207002002002
:1004B000026A8A430262704701627047C2680A4357
:1004C000C260704702690A430261704742690A4389
:1004D0004261704702465068084201D001207047CF
:1004E0000020FCE70146486880B2704702680A4372
:1004F0000260704702688A4302607047014648689C
:1005000080B270478160704770B505460C4616464C
:10051000012E07D1BC48006840EA0400BB49C1F87D
:10052000000206E0B848006820EA0400B749C1F8B4
:100530000002B748854207D1B348006820F4602024
:10054000B249C1F800024CE0B248854209D1AE4838
:10055000006820F4602000F50030AC49C1F80002CA
:100560003FE0AD48854209D1A748006820F46020EB
:1005700000F58020A549C1F8000232E0A748854275
:1005800009D1A148006820F4602000F5C0209F49EF
:10059000C1F8000225E0A248854209D19A480068C6
:1005A00020F4602000F500209849C1F8000218E00E
:1005B0009C48854209D19448006820F4602000F5E9
:1005C00020209249C1F800020BE09648854208D1EC
:1005D0008D48006820F4602000F540208B49C1F868
:1005E00000028948006820F4803000F58030874997
:1005F000C1F80002012C03D1062000F0EFF868E0FA
:10060000022C03D1072000F0E9F862E0042C03D1AA
:10061000082000F0E3F85CE0082C03D1092000F08A
:10062000DDF856E0102C03D10A2000F0D7F850E096
:10063000B4F5007F01D1012000E00020B4F5807FF7
:1006400001D1012100E000210843802C01D10121CA
:1006500000E000210843402C01D1012100E00021ED
:100660000843202C01D1012100E00021084303D0E0
:10067000172000F0B3F82CE0B4F5004F01D10120B1
:1006800000E00020B4F5804F01D1012100E00021FD
:100690000843B4F5005F01D1012100E000210843C7
:1006A000B4F5805F01D1012100E000210843B4F5D9
:1006B000006F01D1012100E000210843B4F5806FF3
:1006C00001D1012100E00021084302D0282000F0E0
:1006D00085F85548046070BD544A126842EA010228
:1006E0004A4BC3F80822704770B505460C464E4881
:1006F000006820EA04004549C1F80402012C03D136
:10070000062000F077F868E0022C03D1072000F003
:1007100071F862E0042C03D1082000F06BF85CE073
:10072000082C03D1092000F065F856E0102C03D105
:100730000A2000F05FF850E0B4F5007F01D10120FD
:1007400000E00020B4F5807F01D1012100E000210C
:100750000843802C01D1012100E000210843402CF6
:1007600001D1012100E000210843202C01D1012109
:1007700000E00021084303D0172000F03BF82CE0F4
:10078000B4F5004F01D1012000E00020B4F5804F06
:1007900001D1012100E000210843B4F5005F01D13F
:1007A000012100E000210843B4F5805F01D101215F
:1007B00000E000210843B4F5006F01D1012100E001
:1007C00000210843B4F5806F01D1012100E0002130
:1007D000084302D0282000F00DF870BD00F01F0281
:1007E0000121914042094FF0E02303EB8202C2F85D
:1007F0000011704700F01F02012191400C4A43098B
:1008000042F823107047000000120240001002401E
:1008100000080140000C014000100140001401409C
:1008200000180140001C014004120240081202405E
:1008300080E100E000BF0100A0F10100FBD17047A2
:10084000FFF77DFD0D48006840F004000C49C1F839
:1008500084004FF004010B48FFF72EFE0DE0042149
:100860000848FFF72BFE0848FFF7E4FF042105487E
:10087000FFF728FE0448FFF7DDFFF0E78410024091
:10088000001002400008014080841E00704770473D
:100890007047754600F028F8AE4605006946534695
:1008A00020F00700854618B020B5FFF7F1FDBDE840
:1008B00020404FF000064FF000074FF000084FF0C7
:1008C000000B21F00701AC46ACE8C009ACE8C00958
:1008D000ACE8C009ACE8C0098D4670470446AFF3E8
:1008E00000802046FFF76FFC004870471000002092
:1008F000004870471400002001491820ABBEFEE7F5
:1009000026000200704710B5FFF7F2FF4FF000011C
:10091000016010BD3409000000000020100000003C
:100920007001000044090000100000206006000073
:100930008C01000000A24A0400A24A0400A24A045A
:0409400000A24A04C3
:0400000500000135C1
:00000001FF
