:020000040000FA
:1000000070060020D1020800D5020800D7020800BF
:10001000D9020800DB020800DD0208000000000031
:10002000000000000000000000000000DF020800E7
:10003000E102080000000000E3020800E5020800F9
:10004000E7020800E7020800E7020800E7020800EC
:100050000000000000000000F10A0800FB0A080090
:10006000050B08000F0B0800190B0800E702080039
:10007000E7020800E7020800E7020800E7020800BC
:10008000E7020800E7020800E7020800E7020800AC
:1000900000000000E702080000000000230B080039
:1000A000E7020800E7020800E7020800E70208008C
:1000B000E7020800E7020800E7020800E70208007C
:1000C00000000000E702080000000000E70208004E
:1000D000E7020800E7020800E7020800E70208005C
:1000E000310B080000000000E7020800E7020800EA
:1000F000E7020800E7020800E7020800E70208003C
:100100000000000000000000E7020800E70208000D
:10011000E7020800E7020800E7020800E70208001B
:10012000E7020800E7020800E7020800E70208000B
:100130000000000000F002F87FF068FF0AA090E8DD
:10014000000C82448344AAF10107DA4501D17FF013
:100150005DFFAFF2090EBAE80F0013F0010F18BFF0
:10016000FB1A43F001031847400000006000000044
:10017000103A24BF78C878C1FAD8520724BF30C8D3
:1001800030C144BF04680C607047000000230024A5
:1001900000250026103A28BF78C1FBD8520728BF97
:1001A00030C148BF0B607047C8010000000000204C
:1001B0001000000070010000D801000010000020B5
:1001C000600600008C01000000A24A0400A24A045C
:0801D00000A24A0400A24A0447
:020000040008F2
:100000001FB500F0E8FD1FBD10B510BD00F0A9FD43
:100010001146FFF7F5FF00F055FD00F0C7FD03B4F2
:10002000FFF7F2FF03BC00F0CFFD0000002098496D
:10003000096F11F0030106D0012908D002290AD066
:10004000032932D12EE09349934A11602DE0934960
:10005000914A116029E08E49096C11F0030106D024
:1000600001290ED0022916D0032919D114E088499C
:10007000896801F01F01491C864A5143864A116074
:100080000EE08349896801F01F01491C834A5143EE
:10009000814A116004E000BF00217F4A116000BF67
:1000A00000BF02E07C49086000BF00BF7A490968D0
:1000B0007B4A11607649896F774A1268B2FBF1F189
:1000C000754A116077490968C1F30221042905D1F5
:1000D000114609684908744A116027E071490968A6
:1000E000C1F30221052905D16B49096889086E4AC7
:1000F00011601BE06B490968C1F30221062905D193
:1001000065490968C908684A11600FE065490968CE
:10011000C1F30221072905D15F4909680909624A2B
:10012000116003E05C4909685F4A11605D49096834
:10013000C1F3C221042905D15749096849085B4A1E
:10014000116027E057490968C1F3C221052905D18B
:10015000514909688908554A11601BE051490968ED
:10016000C1F3C221062905D14B490968C9084F4A84
:1001700011600FE04B490968C1F3C221072905D17D
:10018000454909680909494A116003E0424909687B
:10019000464A116070470021454A1160AA21444A2D
:1001A00008321160552111600021424A1160AA21D4
:1001B000916055219160404909684FF0FF314FF03F
:1001C000E022C2F880123249D1F8381221F480714D
:1001D0003A4A11604FF002012D4A11624FF00000BF
:1001E00001E000BF401CC828FBD30121284A51640C
:1001F00011640021516444F2490191602F4909685A
:1002000021F08001C2F838124FF0000001E000BF79
:10021000401CC828FBD30321294AD16001211C4A74
:100220005167022111670021516701219167254A19
:100230001160174A51621146D1F8381221F040017D
:100240001E4A116040F2FF11114AC2F88410114693
:10025000D1F8881041F00051C2F888101146D1F849
:10026000381221F01001154A116041F24801164A76
:10027000116040F2FF1102F10402116041F24801E5
:10028000124A116040F2FF1102F10402116070473E
:1002900000100240005A62020000002000127A00A2
:1002A0000400002094100240080000200C000020F0
:1002B000002C00400030004080E200E03812024094
:1002C000002002409810024000740040107400406A
:1002D00008480047FEE7FEE7FEE7FEE7FEE7FEE729
:1002E000FEE7FEE7FEE7FEE703480449044A054B44
:1002F00070470000350100007000002070060020EB
:100300007002002070020020026A8A430262704775
:1003100001627047C2680A43C260704702690A43BB
:100320000261704742690A43426170470246506861
:10033000084201D0012070470020FCE701464868D0
:1003400080B2704702680A430260704702688A43BD
:10035000026070470146486880B27047816070470C
:1003600070B505460C461646012E07D1BC480068FC
:1003700040EA0400BB49C1F8000206E0B848006842
:1003800020EA0400B749C1F80002B748854207D106
:10039000B348006820F46020B249C1F800024CE084
:1003A000B248854209D1AE48006820F4602000F5CB
:1003B0000030AC49C1F800023FE0AD48854209D1A8
:1003C000A748006820F4602000F58020A549C1F806
:1003D000000232E0A748854209D1A148006820F414
:1003E000602000F5C0209F49C1F8000225E0A24826
:1003F000854209D19A48006820F4602000F5002069
:100400009849C1F8000218E09C48854209D19448F7
:10041000006820F4602000F520209249C1F8000215
:100420000BE09648854208D18D48006820F4602092
:1004300000F540208B49C1F800028948006820F48B
:10044000803000F580308749C1F80002012C03D1CB
:10045000062000F0EFF868E0022C03D1072000F03E
:10046000E9F862E0042C03D1082000F0E3F85CE036
:10047000082C03D1092000F0DDF856E0102C03D140
:100480000A2000F0D7F850E0B4F5007F01D1012038
:1004900000E00020B4F5807F01D1012100E00021BF
:1004A0000843802C01D1012100E000210843402CA9
:1004B00001D1012100E000210843202C01D10121BC
:1004C00000E00021084303D0172000F0B3F82CE02F
:1004D000B4F5004F01D1012000E00020B4F5804FB9
:1004E00001D1012100E000210843B4F5005F01D1F2
:1004F000012100E000210843B4F5805F01D1012112
:1005000000E000210843B4F5006F01D1012100E0B3
:1005100000210843B4F5806F01D1012100E00021E2
:10052000084302D0282000F085F85548046070BDCB
:10053000544A126842EA01024A4BC3F80822704743
:1005400070B505460C464E48006820EA040045494F
:10055000C1F80402012C03D1062000F077F868E00E
:10056000022C03D1072000F071F862E0042C03D1C3
:10057000082000F06BF85CE0082C03D1092000F0A3
:1005800065F856E0102C03D10A2000F05FF850E027
:10059000B4F5007F01D1012000E00020B4F5807F98
:1005A00001D1012100E000210843802C01D101216B
:1005B00000E000210843402C01D1012100E000218E
:1005C0000843202C01D1012100E00021084303D081
:1005D000172000F03BF82CE0B4F5004F01D10120CA
:1005E00000E00020B4F5804F01D1012100E000219E
:1005F0000843B4F5005F01D1012100E00021084368
:10060000B4F5805F01D1012100E000210843B4F579
:10061000006F01D1012100E000210843B4F5806F93
:1006200001D1012100E00021084302D0282000F080
:100630000DF870BD00F01F020121914042094FF0FA
:10064000E02303EB8202C2F80011704700F01F02A2
:10065000012191400C4A430942F8231070470000E1
:10066000001202400010024000080140000C01404E
:10067000001001400014014000180140001C01401E
:10068000041202400812024080E100E010B5FFF7BA
:1006900082FDF7480068F7498862FF20F649086044
:1006A00010BD10B50446F348406F20F00300401C15
:1006B000F04948672CB90846006F20F0030008672E
:1006C00008E0032C06D1EB48006F20F00300801CEB
:1006D000E8490867E748406F20F00300E5494867AC
:1006E000FFF7A4FC10BD10B50446E248806F64F328
:1006F0000700E0498867FFF799FC10BD30B9DD4974
:10070000496A21F48051DB4A516209E0032807D18C
:10071000D849496A21F4805101F58051D54A516286
:10072000704705280ED2DFE800F0030905070B002B
:10073000002008E0012006E0022004E0032002E09F
:10074000042000E0704700BFCC49096821F0010196
:1007500001F10101C74AC2F8E4101146D1F8E010D6
:1007600060F30201C2F8E0101146D1F8E41021F064
:100770000101C2F8E41000BFE4E7C149096860F371
:100780000701BC4AC2F8E810704740F23120BD4969
:1007900008607047BA48006820F0FF00B549C1F80A
:1007A000E8004FF40C70B74908607047B649096813
:1007B00060F30701AF4AC2F84C117047B3490968AA
:1007C00041EA0001AB4AC2F838127047AF490968E4
:1007D00021EA0001A74AC2F838127047AC490968FB
:1007E00041EA0001A34AC2F880101146D1F88410F2
:1007F00041EA0001C2F884101146D1F8881041EA9C
:100800000001C2F888107047A149096821EA000177
:10081000984AC2F8801070479E49096821EA000191
:10082000944AC2F88C101146D1F88C1041EA0001AC
:10083000C2F88C101146D1F8901021EA0001C2F8DC
:1008400090101146D1F8901041EA0001C2F89010C2
:10085000704700BF9048006800F4E0608F4908438B
:10086000001D8D490860BFF3408F00BF00BFFEE749
:10087000012809D18A49096821F0100101F110010C
:100880007C4AC2F850110EE08549096821F0100138
:10089000784AC2F850118249096821F0400101F1FB
:1008A0004001C2F8501170477248006B7047FF203A
:1008B0007049086370477B48006820F0020079495E
:1008C00008607548001D006820F004007249091D89
:1008D000086030BF704730B50A467349086042B9B6
:1008E000A1F10401096821EA0001624BC3F800127A
:1008F00001E06E4908604FF006014FF0010303FA72
:1009000001F34FEA51144FF0E02505EB8404C4F8DD
:10091000003100BF30BD00206349086040F6FF7021
:100920005449C1F80802704710B5584B1B68C3F30F
:10093000801363B1554B1B6823F040034D4CC4F842
:10094000383200BF134602F10102FF2BFAD3584B95
:100950001860484BC3F834125B6F23F0030303F1B4
:100960000103444C636723461B6F23F0030303F129
:100970000203236723465B6F23F003036367494B3E
:100980001B6823F0020303F10203464C2360494B2A
:100990001B6843F00403474C236030BF00BF00BF17
:1009A00000BF00BF00BF334B5B6F23F0030303F1B5
:1009B0000103304C636723461B6F23F00303236757
:1009C00023465B6F23F00303636710BD10F0200F15
:1009D00007D03749096821F02001264AC2F83012B1
:1009E00008E03349096821F0200101F12001214A82
:1009F000C2F830122E49096821F0080101F10801FE
:100A00001C4AC2F830122A49096821F0400101F15C
:100A10004001C2F830122349096821F0020101F1B6
:100A20000201204A11602349096841F00401214A6A
:100A3000116030BF704701607047016821F0080104
:100A40000160016821F010011031016070470168F8
:100A500021F010010160016821F0080108310160F6
:100A60007047016821F4006101F500610160704781
:100A70001814FF1F0010024074110240E4100240DD
:100A8000E8100240A00001404C1102403812024020
:100A9000801002408C1002400CED00E00000FA05CE
:100AA0005011024000700040041202400012024047
:100AB0003012024010ED00E0016821F40061016095
:100AC00070470000FFF7E2FD2048006840F0040096
:100AD0001F49C1F884004FF400711E48FFF714FC51
:100AE00000224FF400711B48FFF73AFC00BFFEE7FD
:100AF000062000F022F800BFFEE7072000F01DF8F6
:100B000000BFFEE7082000F018F800BFFEE709204C
:100B100000F013F800BFFEE70A2000F00EF800BF57
:100B2000FEE74FF400710B48FFF702FD00BFFEE740
:100B3000282000F002F800BFFEE700F01F020121AC
:100B40009140054A430942F823107047841002403F
:100B5000001002400008014080E100E0704770474B
:100B60007047754600F028F8AE46050069465346C2
:100B700020F00700854618B020B5FFF7B5FBBDE8AB
:100B800020404FF000064FF000074FF000084FF0F4
:100B9000000B21F00701AC46ACE8C009ACE8C00985
:100BA000ACE8C009ACE8C0098D4670470446AFF315
:100BB00000802046FFF733FA0048704710000020FD
:100BC000004870471400002001491820ABBEFEE722
:100BD00026000200704710B5FFF7F2FF4FF000014A
:040BE000016010BDE3
:0400000500000135C1
:00000001FF
