:020000040000FA
:1000000038050020ED030000F1030000F3030000B9
:10001000F5030000F7030000F903000000000000F2
:10002000000000000000000000000000FB030000D2
:10003000FD03000000000000FF03000001040000B9
:100040000304000003040000030400000304000094
:100050000000000000000000AF220000CD220000E0
:10006000EB220000612400007F2400000304000054
:100070000304000003040000030400000304000064
:100080000304000003040000030400000304000054
:100090000000000003040000000000009D24000098
:1000A0000304000003040000030400000304000034
:1000B0000304000003040000030400001B260000EA
:1000C0000000000025260000000000008D25000033
:1000D000A3250000DD2100001722000051220000AE
:1000E000BB24000000000000030400000304000023
:1000F00003040000030400000304000003040000E4
:1001000000000000000000000304000003040000E1
:1001100003040000030400000304000003040000C3
:1001200003040000030400000304000003040000B3
:1001300000000000DFF80CD002F0A4FB00480047EC
:10014000851F00003805002000209849096F11F034
:10015000030106D0012908D002290AD0032932D18F
:100160002EE09349934A11602DE09349914A116022
:1001700029E08E49096C11F0030106D001290ED047
:10018000022916D0032919D114E08849896801F0A1
:100190001F01491C864A5143864A11600EE083497B
:1001A000896801F01F01491C834A5143814A11604B
:1001B00004E000BF00217F4A116000BF00BF02E0E1
:1001C0007C49086000BF00BF7A4909687B4A11601A
:1001D0007649896F774A1268B2FBF1F1754A11606E
:1001E00077490968C1F30221042905D1114609683C
:1001F0004908744A116027E071490968C1F3022176
:10020000052905D16B49096889086E4A11601BE010
:100210006B490968C1F30221062905D165490968BE
:10022000C908684A11600FE065490968C1F30221F5
:10023000072905D15F4909680909624A116003E08D
:100240005C4909685F4A11605D490968C1F3C221D0
:10025000042905D15749096849085B4A116027E01C
:1002600057490968C1F3C221052905D151490968D7
:100270008908554A11601BE051490968C1F3C22140
:10028000062905D14B490968C9084F4A11600FE09A
:100290004B490968C1F3C221072905D145490968BD
:1002A0000909494A116003E042490968464A116058
:1002B00070470021454A1160AA21444A0832116062
:1002C000552111600021424A1160AA2191605521F7
:1002D0009160404909684FF0FF314FF0E022C2F8C9
:1002E00080123249D1F8381221F480713A4A1160F3
:1002F0004FF002012D4A11624FF0000001E000BFF3
:10030000401CC828FBD30121284A516411640021F4
:10031000516444F2490191602F49096821F080013C
:10032000C2F838124FF0000001E000BF401CC8289E
:10033000FBD30321294AD16001211C4A51670221C4
:1003400011670021516701219167254A1160174A01
:1003500051621146D1F8381221F040011E4A116055
:1003600040F2FF11114AC2F884101146D1F88810EA
:1003700041F00051C2F888101146D1F8381221F02E
:100380001001154A116041F24801164A116040F20D
:10039000FF1102F10402116041F24801124A11609A
:1003A00040F2FF1102F10402116070470010024098
:1003B000005A62020000002000127A0004000020AF
:1003C00094100240080000200C000020002C004087
:1003D0000030004080E200E038120240002002407D
:1003E0009810024000740040107400400548004717
:1003F000FEE7FEE7FEE7FEE7FEE7FEE7FEE7FEE7D5
:10040000FEE7FEE73501000030B5AE4C2468AE4D86
:10041000AC4207D2AD4CE46F24F0FF04641CAB4D3A
:10042000EC6720E0A74C2468A94DAC4207D2A74C4A
:10043000E46F24F0FF04A41CA44DEC6713E0A14C6E
:100440002468A44DAC4207D2A04CE46F24F0FF0412
:10045000E41C9E4DEC6706E09C4CE46F24F0FF0426
:10046000241D9A4DEC679C4CA04209D19B4C2468FA
:1004700024F4007404F50074944DC5F8844018E029
:10048000974CA04209D1954C246824F4806404F56B
:1004900080648E4DC5F884400BE0924CA04208D198
:1004A0008E4C246824F4004404F50044874DC5F8BC
:1004B0008440046824F080440460874CA04210D13A
:1004C000894C246824F4007404F500747F4DC5F849
:1004D0008C402C46D4F88C4024F40074C5F88C4031
:1004E00026E07F4CA04210D17F4C246824F4806425
:1004F00004F58064754DC5F88C402C46D4F88C40CA
:1005000024F48064C5F88C4012E0764CA0420FD1F0
:10051000754C246824F4004404F500446B4DC5F880
:100520008C402C46D4F88C4024F40044C5F88C4010
:100530006E4CA14200D921460901624C2468B4FBEB
:10054000F1F4624DED6FEDB2B4FBF5F202FB01F494
:100550005C4D2D68AC4206D0654C5443594D2D6816
:10056000AC4200D2521C046862F30F240460FF23E3
:1005700000BF1C00A3F10103FBD1046824F4803404
:1005800004F580340460046824F0005404F100543D
:100590000460046824F0FF04641C046000BF046B62
:1005A000C4F34054002CFAD030BD0021C160491E74
:1005B0000163016821F0804101F180410160002167
:1005C000424AD1677047F0B50C46002500210CE087
:1005D0000F278F40174027FA01F606FA01F73D432F
:1005E000076864F307070760091D2029F0D38560B9
:1005F000076827F000570760012B03D1076827F031
:1006000070670760076863F310470760076827F0A3
:10061000005707F1005707602BB900BF076BC7F3FE
:100620004057002FFAD0F0BD036861F31B630360ED
:10063000036862F31C73036000BF036BC3F3405392
:10064000002BFAD07047436B61F30B0343630F2A0F
:1006500000D10022436B62F30E3343637047436B58
:1006600061F31B4343630F2A00D10022436B62F303
:100670001E7343637047836B61F30B0383630F2A1D
:1006800000D10022836B62F30E3383637047836B68
:1006900061F31B4383630F2A00D10022836B62F353
:1006A0001E7383637047C160704702460B4600BFEC
:1006B00002F1100050F8231011F0004FF8D0C1F3F0
:1006C0000B0070470C000020002D3101001002408B
:1006D000005A620200879303002401408410024004
:1006E00000280140003C01408C10024040420F00B5
:1006F0000024F400026A8A43026270470162704774
:10070000C2680A43C260704702690A4302617047C7
:1007100042690A434261704702465068084201D06C
:10072000012070470020FCE70146486880B270470E
:1007300002680A430260704702688A430260704799
:100740000146486880B270478160704770B50546C1
:100750000C461646012E07D1BC48006840EA04004A
:10076000BB49C1F8000206E0B848006820EA04006E
:10077000B749C1F80002B748854207D1B3480068BD
:1007800020F46020B249C1F800024CE0B248854232
:1007900009D1AE48006820F4602000F50030AC4973
:1007A000C1F800023FE0AD48854209D1A748006882
:1007B00020F4602000F58020A549C1F8000232E055
:1007C000A748854209D1A148006820F4602000F5BF
:1007D000C0209F49C1F8000225E0A248854209D106
:1007E0009A48006820F4602000F500209849C1F87C
:1007F000000218E09C48854209D19448006820F422
:10080000602000F520209249C1F800020BE09648D4
:10081000854208D18D48006820F4602000F5402012
:100820008B49C1F800028948006820F4803000F547
:1008300080308749C1F80002012C03D1062000F066
:10084000EFF868E0022C03D1072000F0E9F862E03D
:10085000042C03D1082000F0E3F85CE0082C03D15D
:10086000092000F0DDF856E0102C03D10A2000F03A
:10087000D7F850E0B4F5007F01D1012000E000205E
:10088000B4F5807F01D1012100E000210843802CD4
:1008900001D1012100E000210843402C01D10121B8
:1008A00000E000210843202C01D1012100E00021BB
:1008B000084303D0172000F0B3F82CE0B4F5004F44
:1008C00001D1012000E00020B4F5804F01D10121C9
:1008D00000E000210843B4F5005F01D1012100E0F0
:1008E00000210843B4F5805F01D1012100E000211F
:1008F0000843B4F5006F01D1012100E00021084355
:10090000B4F5806F01D1012100E00021084302D03D
:10091000282000F085F85548046070BD544A1268DC
:1009200042EA01024A4BC3F80822704770B50546F7
:100930000C464E48006820EA04004549C1F804020C
:10094000012C03D1062000F077F868E0022C03D1D7
:10095000072000F071F862E0042C03D1082000F0B9
:100960006BF85CE0082C03D1092000F065F856E034
:10097000102C03D10A2000F05FF850E0B4F5007F9E
:1009800001D1012000E00020B4F5807F01D10121D8
:1009900000E000210843802C01D1012100E000216A
:1009A0000843402C01D1012100E000210843202C04
:1009B00001D1012100E00021084303D0172000F0FD
:1009C0003BF82CE0B4F5004F01D1012000E00020FD
:1009D000B4F5804F01D1012100E000210843B4F5B6
:1009E000005F01D1012100E000210843B4F5805FE0
:1009F00001D1012100E000210843B4F5006F01D1CD
:100A0000012100E000210843B4F5806F01D10121EC
:100A100000E00021084302D0282000F00DF870BD4E
:100A200000F01F020121914042094FF0E02303EB47
:100A30008202C2F80011704700F01F0201219140AC
:100A40000C4A430942F8231070470000001202408C
:100A50000010024000080140000C0140001001405D
:100A60000014014000180140001C01400412024023
:100A70000812024080E100E08160704710B5034633
:100A80000C46002204E0995CFA48FFF7F5FF521C7F
:100A9000A242F8D310BD2DE9F04104460D4616469A
:100AA0001F46F548844218D1F448006820F400102D
:100AB00000F50010F249C1F890000846D0F8900007
:100AC00020F40010C1F89000EE48006820F40010F7
:100AD00000F50010C1F888001AE0E648844217D1FA
:100AE000E648006820F4800000F58000E449C1F881
:100AF00090000846D0F8900020F48000C1F89000E3
:100B0000E048006820F4800000F58000C1F888000B
:100B10004FF0FF00A0614FF4FA6006FB00F0DA49E5
:100B20000968B1FBF0F1206961F30F0020614FF417
:100B3000FA6006FB00F0D4490968B1FBF0F1606986
:100B400061F30F00606105B9E76015B142202060D4
:100B500003E00020A06040202060C748844203D109
:100B60001F2000F009FD05E0C248844202D1212087
:100B700000F002FDBDE8F0810146486880B2704790
:100B800002461068084070470160704781617047F5
:100B900001468868C0B2704770B50346B6488342C4
:100BA00001D1BA4A00E0BA4A1846FFF7E5FF044609
:100BB000002000B950B110211846FFF7E5FF0C20C6
:100BC000107429211846FFF7E1FF70BD186810F076
:100BD000020F72D024F4E864E0B2102831D004DCB3
:100BE000012807D00B2869D139E0142868D01D28C6
:100BF000F9D19AE0506A012810D100205062D061EA
:100C00001078401CC1B21846FFF736FF106A401C2E
:100C1000106229211846FFF7B9FF11E00020106289
:100C2000D06101211846FFF7AFFF11781846FFF792
:100C300023FF106A401C106228211846FFF7A6FF08
:100C4000A6E00020D061156A681C1062515D18464C
:100C5000FFF712FF28211846FFF798FF98E0186861
:100C600000F00100012815D19069012806D110215A
:100C70001846FFF789FF0720107406E0156A681C04
:100C80001062515D1846FFF7F7FE08211846FFF77E
:100C90007DFF11E0D069401C5169884204D20421D3
:100CA0001846FFF771FF03E004211846FFF76EFFB7
:100CB00028211846FFF76AFF6AE06AE061E0FFE773
:100CC0009169106A884207D2156A681C1062515DEA
:100CD0001846FFF7D1FE23E05069D8B100205062DA
:100CE000D06192F8280050B11078401CC1B218466B
:100CF000FFF7C2FE20211846FFF746FF05E01078F7
:100D0000401CC1B21846FFF7B7FE09211846FFF78D
:100D10003DFF3DE010211846FFF736FF0C20107410
:100D200008211846FFF732FF32E01846FFF730FF80
:100D3000D569691CD16102F108014855D069401C90
:100D40005169884208D204211846FFF71DFF082187
:100D50001846FFF71BFF13E0186800F00400042892
:100D600004D10C211846FFF711FF09E00C20107484
:100D700010211846FFF708FF08211846FFF706FF65
:100D800006E00A20107408211846FFF7FFFE00BF96
:100D900054E014F4807F33D04FF48070986118468B
:100DA000FFF7F6FE054600201062D061D868A84221
:100DB00003D1002082F8290013E0186AA84203D169
:100DC000012082F829000CE0586AA84203D10220D1
:100DD00082F8290005E0986AA84202D1032082F82F
:100DE0002900002605E02B48815D02F108008155AD
:100DF000761C082EF7DB082050610020D0611AE035
:100E000014F4007F07D000209968C8B2166A711CDC
:100E1000116290550FE014F4806F0CD0D169481C1A
:100E2000D06102F10800405C98605169D069884245
:100E300001D30020D0612820986100BF00BFC4E624
:100E400070B503460C48834201D1104A00E0104AB5
:100E50001846FFF791FE0446002000B9E0B11021CA
:100E60001846FFF791FE0C20107429211846FFF751
:100E70008DFE70BD005800400054004090100240AC
:100E80000010024088100240000000202C000020CA
:100E90005800002010000020186810F0020F72D0D7
:100EA00024F4E864E0B2102831D004DC012807D033
:100EB0000B2869D139E0142868D01D28F9D19AE0AF
:100EC000506A012810D100205062D0611078401C77
:100ED000C1B21846FFF7D0FD106A401C10622921EC
:100EE0001846FFF753FE11E000201062D061012187
:100EF0001846FFF749FE11781846FFF7BDFD106A46
:100F0000401C106228211846FFF740FEA6E0002092
:100F1000D061156A681C1062515D1846FFF7ACFD80
:100F200028211846FFF732FE98E0186800F001000B
:100F3000012815D19069012806D110211846FFF724
:100F400023FE0720107406E0156A681C1062515DCC
:100F50001846FFF791FD08211846FFF717FE11E02C
:100F6000D069401C5169884204D204211846FFF719
:100F70000BFE03E004211846FFF708FE282118465F
:100F8000FFF704FE6AE06AE061E0FFE79169106A3A
:100F9000884207D2156A681C1062515D1846FFF737
:100FA0006BFD23E05069D8B100205062D06192F807
:100FB000280050B11078401CC1B21846FFF75CFD04
:100FC00020211846FFF7E0FD05E01078401CC1B273
:100FD0001846FFF751FD09211846FFF7D7FD3DE000
:100FE00010211846FFF7D0FD0C2010740821184678
:100FF000FFF7CCFD32E01846FFF7CAFDD569691C42
:10100000D16102F108014855D069401C51698842FC
:1010100008D204211846FFF7B7FD08211846FFF74C
:10102000B5FD13E0186800F00400042804D10C2179
:101030001846FFF7ABFD09E00C201074102118468C
:10104000FFF7A2FD08211846FFF7A0FD06E00A20E1
:10105000107408211846FFF799FD00BF46E014F40C
:10106000807F25D04FF4807098611846FFF790FD7F
:10107000054600201062D061D868A84203D1002044
:1010800082F829002FE0186AA84203D1012082F8D3
:10109000290028E0586AA84203D1022082F82900DA
:1010A00021E0986AA8421ED1032082F829001AE0A4
:1010B00014F4007F07D000209968C8B2166A711C2A
:1010C000116290550FE014F4806F0CD0D169481C68
:1010D000D06102F10800405C98605169D069884293
:1010E00001D30020D0612820986100BF00BFC0E676
:1010F00070B50346F848834201D1F84A00E0F84A47
:101100001846FFF739FD0446002000B950B1102100
:101110001846FFF739FD0C20107429211846FFF7F7
:1011200035FD70BD186810F0020F72D024F4E86429
:10113000E0B2102831D004DC012807D00B2869D197
:1011400039E0142868D01D28F9D19AE0506A0128A6
:1011500010D100205062D0611078401CC1B21846F6
:10116000FFF78AFC106A401C106229211846FFF71D
:101170000DFD11E000201062D06101211846FFF73B
:1011800003FD11781846FFF777FC106A401C1062C7
:1011900028211846FFF7FAFCA6E00020D061156A66
:1011A000681C1062515D1846FFF766FC282118463E
:1011B000FFF7ECFC98E0186800F00100012815D159
:1011C0009069012806D110211846FFF7DDFC0720A1
:1011D000107406E0156A681C1062515D1846FFF72E
:1011E0004BFC08211846FFF7D1FC11E0D069401CE8
:1011F0005169884204D204211846FFF7C5FC03E078
:1012000004211846FFF7C2FC28211846FFF7BEFC50
:101210006AE06AE061E0FFE79169106A884207D2FC
:10122000156A681C1062515D1846FFF725FC23E023
:101230005069D8B100205062D06192F8280050B1B6
:101240001078401CC1B21846FFF716FC2021184642
:10125000FFF79AFC05E01078401CC1B21846FFF772
:101260000BFC09211846FFF791FC3DE010211846C0
:10127000FFF78AFC0C20107408211846FFF786FC43
:1012800032E01846FFF784FCD569691CD16102F190
:1012900008014855D069401C5169884208D2042190
:1012A0001846FFF771FC08211846FFF76FFC13E0A2
:1012B000186800F00400042804D10C211846FFF738
:1012C00065FC09E00C20107410211846FFF75CFC47
:1012D00008211846FFF75AFC06E00A20107408217E
:1012E0001846FFF753FC00BF55E014F4807F34D05C
:1012F00000264FF4807098611846FFF749FC0546B8
:1013000000201062D061D868A84203D1002082F882
:10131000290013E0186AA84203D1012082F82900AD
:101320000CE0586AA84203D1022082F8290005E0A7
:10133000986AA84202D1032082F82900002605E01D
:101340006848815D02F108008155761C082EF7DBA4
:10135000082050610020D0611AE014F4007F07D00B
:1013600000209968C8B2166A711C116290550FE08E
:1013700014F4806F0CD0D169481CD06102F10800D0
:10138000405C98605169D069884201D30020D061E7
:101390002820986100BF00BFC3E6F0B504460D46A3
:1013A00016464D48844201D14C4A00E04C4A157023
:1013B00056709370002082F82800506103209061DD
:1013C00020212046FFF7E0FB0020107400BF107CB6
:1013D0000C28FCD1FF2700BF3800A7F10101CFB2D4
:1013E000FAD1F0BD2DE9F04104460D461746984666
:1013F000069E3948844201D1384A00E0384A1570C7
:101400005770002305E018F80310981C1154581C5D
:10141000C3B2B342F7DB002082F828005061B01C51
:10142000906120212046FFF7AFFB0020107400BF21
:10143000107C0C28FCD1FF2300BF1800A3F1010190
:10144000CBB2FAD1BDE8F08170B503460C46154623
:101450002148834201D1214A00E0214A147055708D
:10146000022090610120506182F828002021184656
:10147000FFF78AFB0020107400BF107C0C28FCD101
:10148000FF2600BF3000A6F10101CEB2FAD1107ADA
:1014900070BD2DE9F04105460E4617461C46DDF8A5
:1014A00018800D48854201D10C4A00E00C4A1670A4
:1014B0005770022090615461012082F82800202199
:1014C0002846FFF761FB0020107400BF107C0C2839
:1014D000FCD100230FE00000005400402C0000204D
:1014E000580000201000002002F10800C05C08F83D
:1014F0000300581CC3B2A342F6DB002305E0002121
:1015000002F10800C154581CC3B2A342F7DBFF2309
:1015100000BF1800A3F10101CBB2FAD1BDE8F08100
:1015200070B503460C461A48834201D1194900E0C0
:1015300019490C70022088614A61012081F8280055
:101540000020087400BF087C0C28FCD1FF2500BFD8
:101550002800A5F10106F5B2FAD1087A70BD10B5E0
:1015600003460B4CA34201D10A4800E00A4800247C
:1015700084614261447410BD00F01F02012191405A
:1015800042094FF0E02303EB8202C2F800117047DA
:10159000005400402C0000205800002070B5049C2E
:1015A0007C4DA84209D17C4D2D6825F4805505F568
:1015B00080557A4EC6F8845018E0794DA84209D17A
:1015C000784D2D6825F4804505F58045734EC6F8A5
:1015D00088500BE0744DA84208D1724D2D6825F457
:1015E000004505F500456D4EC6F88850056861F365
:1015F00005150560056862F30305056023B94568B4
:1016000025F00405456004E0456825F004052D1D1E
:101610004560056864F3861505606610056866F325
:10162000C7150560456825F00205AD1C456070BD15
:101630005849884207D15849096821F48051574ACE
:10164000C2F8841014E05649884207D15549096808
:1016500021F48041514AC2F8881009E05249884279
:1016600006D15049096821F400414C4AC2F888105B
:1016700070470A464D4B1B68B3FBF2F14368C3F356
:1016800080031BB10C2904D20C2102E0072900D2EF
:101690000721036961F307030361704700BFC16855
:1016A000C1F300010029FAD0016A21F00201891C6E
:1016B0000162016A21F002010162704700BFC26845
:1016C000C2F30002002AFAD0026A22F00202921C3F
:1016D0000262026A22F0020202620B88826863F3ED
:1016E0000F02826000BFC268C2F30002002AFAD073
:1016F00082680A80704710B507E00C88836864F33D
:101700000F03836013785B1E1370C368C3F3400339
:1017100013B11378002BF0D110BD03E0836821F8DA
:10172000023B521EC368C3F3800313B11378002B2E
:10173000F4D17047016A704742690A4342617047B9
:1017400042698A4342617047416821F010011031BB
:1017500041607047416821F0100141607047826824
:1017600061F30F02826070470146C86800F0110003
:10177000012801D0012070470020FCE700BFC168AC
:10178000C1F380010029FAD070470146886880B211
:1017900070470000003001408410024000100240F9
:1017A0000038004088100240003C0040000000204B
:1017B00010B5FEF77EFDF7480068F7498862FF2004
:1017C000F649086010BD10B50446F348406F20F09C
:1017D0000300401CF04948672CB90846006F20F010
:1017E0000300086708E0032C06D1EB48006F20F0E7
:1017F0000300801CE8490867E748406F20F00300B9
:10180000E5494867FEF7A0FC10BD10B50446E24864
:10181000806F64F30700E0498867FEF795FC10BD10
:1018200030B9DD49496A21F48051DB4A516209E04F
:10183000032807D1D849496A21F4805101F5805124
:10184000D54A5162704705280ED2DFE800F003093F
:1018500005070B00002008E0012006E0022004E05C
:10186000032002E0042000E0704700BFCC49096873
:1018700021F0010101F10101C74AC2F8E41011464B
:10188000D1F8E01060F30201C2F8E0101146D1F87F
:10189000E41021F00101C2F8E41000BFE4E7C149FF
:1018A000096860F30701BC4AC2F8E810704740F2CB
:1018B0003120BD4908607047BA48006820F0FF0039
:1018C000B549C1F8E8004FF40C70B749086070479B
:1018D000B649096860F30701AF4AC2F84C11704776
:1018E000B349096841EA0001AB4AC2F838127047AF
:1018F000AF49096821EA0001A74AC2F838127047C7
:10190000AC49096841EA0001A34AC2F880101146B7
:10191000D1F8841041EA0001C2F884101146D1F8D0
:10192000881041EA0001C2F888107047A14909688F
:1019300021EA0001984AC2F8801070479E49096860
:1019400021EA0001944AC2F88C101146D1F88C109B
:1019500041EA0001C2F88C101146D1F8901021EA3A
:101960000001C2F890101146D1F8901041EA000130
:10197000C2F89010704700BF9048006800F4E06023
:101980008F490843001D8D490860BFF3408F00BF99
:1019900000BFFEE7012809D18A49096821F010013A
:1019A00001F110017C4AC2F850110EE08549096826
:1019B00021F01001784AC2F850118249096821F0DB
:1019C000400101F14001C2F8501170477248006BAC
:1019D0007047FF207049086370477B48006820F01B
:1019E0000200794908607548001D006820F0040075
:1019F0007249091D086030BF704730B50A46734907
:101A0000086042B9A1F10401096821EA0001624BB2
:101A1000C3F8001201E06E4908604FF006014FF074
:101A2000010303FA01F34FEA51144FF0E02505EBEF
:101A30008404C4F8003100BF30BD00206349086051
:101A400040F6FF705449C1F80802704710B5584B72
:101A50001B68C3F3801363B1554B1B6823F040032D
:101A60004D4CC4F8383200BF134602F10102FF2B7F
:101A7000FAD3584B1860484BC3F834125B6F23F00D
:101A8000030303F10103444C636723461B6F23F0F8
:101A9000030303F10203236723465B6F23F0030371
:101AA0006367494B1B6823F0020303F10203464CB2
:101AB0002360494B1B6843F00403474C236030BF4D
:101AC00000BF00BF00BF00BF00BF334B5B6F23F000
:101AD000030303F10103304C636723461B6F23F0BC
:101AE0000303236723465B6F23F00303636710BD83
:101AF00010F0200F07D03749096821F02001264A4D
:101B0000C2F8301208E03349096821F0200101F1E0
:101B10002001214AC2F830122E49096821F008013B
:101B200001F108011C4AC2F830122A49096821F063
:101B3000400101F14001C2F830122349096821F047
:101B4000020101F10201204A11602349096841F0B4
:101B50000401214A116030BF70470160704701687D
:101B600021F008010160016821F0100110310160CD
:101B70007047016821F010010160016821F008013F
:101B8000083101607047016821F4006101F50061CE
:101B9000016070471814FF1F0010024074110240CA
:101BA000E4100240E8100240A00001404C11024045
:101BB00038120240801002408C1002400CED00E010
:101BC0000000FA055011024000700040041202406B
:101BD000001202403012024010ED00E0016821F4D2
:101BE00000610160704700002DE9F04104460F4696
:101BF00016461D46B948006820F0FF0000F10100BC
:101C0000B749C1F89800B74884421BD1252000F09D
:101C10005CF9B548006820F4804000F58040B04988
:101C2000C1F88400B148006820F4804000F580408D
:101C3000C1F88C000846D0F88C0020F48040C1F830
:101C40008C003FE0AA4884421BD1262000F03DF9D9
:101C5000A848006820F4003000F50030A049C1F821
:101C60008800A548006820F4003000F50030C1F875
:101C700090000846D0F8900020F40030C1F89000A1
:101C800020E09E4884421BD1272000F01EF999488D
:101C9000006820F4802000F580209149C1F8880078
:101CA0009548006820F4802000F58020C1F890005D
:101CB0000846D0F8900020F48020C1F8900001E0A0
:101CC000BDE8F0818E480068B0FBF7F1206961F350
:101CD00013002061022E05D1A06820F4807000F569
:101CE0008070A0602EB1A06820F4007000F5007034
:101CF000A060022D04D1A06820F00200801CA0602A
:101D0000202D04D1A06820F020002030A060082DF4
:101D100004D1A06820F008000830A060A06820F47A
:101D2000000000F50000A060A06820F4800000F52D
:101D30008000A060FF20606100BFC1E7C16841F082
:101D4000FF01C1607047816821F0FF018160704729
:101D500010B50446634884420AD1252000F0B5F846
:101D60006148006820F480405D49C1F884001CE0AF
:101D70005F4884420AD1262000F0A7F85D48006839
:101D800020F400305649C1F888000EE05B488442D8
:101D90000AD1272000F099F85648006820F48020E6
:101DA0004F49C1F8880000E010BD2046FFF7CBFF87
:101DB0002046FFF7C3FF00BFF6E702465068C0F3B6
:101DC000400018B110680870002070470120FCE73F
:101DD00030B5002304E0046801F8014B5C1CE3B259
:101DE0004468C4F3400424B115786C1E1470002DAF
:101DF000F1D1137030BD02465068C0F3800008B1C5
:101E000001207047106861F3070010600020F8E7B8
:101E100010B503465868C0F3800008B9102A01D3F2
:101E2000012010BD05E011F8014B186864F30700AC
:101E300018601000A2F10102F5D100BFF1E710B562
:101E40000BE000BF4368C3F38003002BFAD111F805
:101E5000014B036864F3070303601300A2F101025E
:101E6000EFD110BD08E000BF4268C2F38002002A33
:101E7000FAD111F8012B02600A78002AF3D17047D9
:101E80000A4600BF02F00F01092903DD01F1370303
:101E9000D9B202E001F13003D9B200BF4368C3F305
:101EA0008003002BFAD1036861F307030360130971
:101EB000E8D0704782680A438260704701464868EC
:101EC000C0B27047FF214161704700F01F0201213D
:101ED00091400C4A430942F8231070479810024081
:101EE0000010024000380140841002408C10024073
:101EF000004400408810024090100240004800401A
:101F00000400002080E100E0014600E0491E0029B5
:101F1000FCDC704740F20440FB498865C865886670
:101F2000C8667047F848406A20F00700401CF64930
:101F300048620846406A20F01000103048620846A7
:101F4000806A20F00700401C88620846806A20F002
:101F5000100010308862704710B5FFF7E3FF2023B0
:101F600000224FF4E131E948FFF73EFEE8A000F01F
:101F7000BBFCFFF7CFFF702332220021EF48FEF7B2
:101F80008AFD10BDFFF714FCFFF7E6FF00BFFEE778
:101F9000DD48806820F00700401CDB498860084667
:101FA000806820F01000103088600846C06820F07B
:101FB0000700401CC8600846C06820F010001030C0
:101FC000C8607047D048806E20F00700401CCE49A2
:101FD00088660846806E20F010001030886608463B
:101FE000C06E20F00700401CC8660846C06E20F096
:101FF00010001030C866704710B5D148006840F432
:102000000070D049C1F88400FFF78CFF2023002224
:102010004FF4E131BD48FFF7E7FDCBA000F064FCD1
:102020000720B94908644864D249086001F10401F5
:10203000086001F10401086001F10401086001F188
:1020400004010860B049C1F89400CB49CB48FEF7C1
:10205000DBF90123CA4AFF21C848FEF7B4FA4FF65C
:10206000FF70FFF751FF10BD704770B505460E4673
:1020700000BF31462846FEF718FB044640F24D10DB
:10208000604340F6FF71B0FBF1F4204670BD0020C4
:10209000BC490880BC490880BC490880BC4908800C
:1020A000A748006840F00400A649C1F8840008462B
:1020B000D0F8840040F00800C1F884000846D0F849
:1020C000840040F01000C1F884000846D0F8840075
:1020D00040F02000C1F8840000BFFEE710B598482A
:1020E000006840F004009749C1F884000846D0F821
:1020F000840040F00800C1F884000846D0F884004D
:1021000040F01000C1F884000846D0F8840040F088
:102110002000C1F88400FFF705FF202300224FF4C0
:10212000E1317A48FFF760FD9AA000F0DDFB042161
:10213000A448FEF7DFFA01220421A248FEF706FBBD
:10214000062000F085FA072000F082FA082000F04F
:102150007FFA092000F07CFA0A2000F079FA1720B3
:1021600000F076FA282000F073FA10BDFFF7DAFECF
:10217000FFF70EFFFFF726FF202300224FF4E13187
:102180006248FFF731FD022300224FF4E1318E480F
:10219000FFF72AFD022300224FF4E1318B48FFF7BD
:1021A00023FD02215948FFF785FE02218648FFF7EB
:1021B00081FE02218548FFF77DFE252000F048FAC8
:1021C000262000F045FA272000F042FA05E080487A
:1021D000FFF79AFE7FA000F087FBF8E738B50020F4
:1021E0000090102449480C300068C0F340000128DA
:1021F00010D169464548FFF7E0FD9DF800104348BF
:10220000FFF7F9FD00BF4148FFF758FE00F001005D
:102210000128F8D038BD38B50020009010246A4855
:102220000C300068C0F34000012810D169466648B0
:10223000FFF7C3FD9DF800106348FFF7DCFD00BF0A
:102240006148FFF73BFE00F001000128F8D038BDDF
:1022500038B50020009010245C480C300068C0F3B2
:102260004000012810D169465848FFF7A6FD9DF8A7
:1022700000105648FFF7BFFD00BF5448FFF71EFE91
:1022800000F001000128F8D038BD70B505460F24D4
:102290002E46002408E00120A040B04203D1214690
:1022A00051A000F021FB641C0F2CF4DD70BD10B5B3
:1022B000544804684FF001015348FEF72FFB53A028
:1022C00000F012FB2046FFF7E0FF10BD10B54D48AF
:1022D00004684FF002014C48FEF720FB52A000F0CA
:1022E00003FB2046FFF7D1FF10BD10B54548046839
:1022F0004FF004013348FEF711FB52A000F0F4FA4E
:102300002046FFF7C2FF10BD000001400038014029
:102310000D0A2D2D2D2D2D2D2D2D2D2D2D2D2D2D30
:102320002D2D49324320546573742D2D2D2D2D2DC7
:102330002D2D2D2D2D2D2D2D2D0D0A000058004059
:1023400084100240001002400D0A2D2D2D2D2D2D40
:102350002D2D2D2D2D2D2D2D2D2D4144432054651A
:1023600073742D2D2D2D2D2D2D2D2D2D2D2D2D2D10
:102370002D0D0A008000014020A107000028014027
:1023800098BADCFE2000002022000020240000205B
:10239000260000200D0A2D2D2D2D2D2D2D2D2D2D1E
:1023A0002D2D2D2D2D2D494F5F4558544920546515
:1023B00073742D2D2D2D2D2D2D2D2D2D2D2D2D2DC0
:1023C0002D0D0A0000140140004400400048004068
:1023D00080841E0048656C6C6F2077616E676E6B41
:1023E0007569210D0A00000054686520455854495C
:1023F0002050696E2069733A2050494E25640D0AB9
:10240000000000000C120240001001400945585421
:10241000493020496E746572727570742070726FE5
:1024200064756374210A00000945585449312049F4
:102430006E746572727570742070726F64756374F7
:10244000210A000009455854493220496E746572CA
:10245000727570742070726F64756374210A000065
:1024600010B5814804684FF008018048FEF756FA1D
:102470007FA000F039FA2046FFF707FF10BD10B526
:10248000794804684FF010017848FEF747FA7FA0BA
:1024900000F02AFA2046FFF7F8FE10BD10B572488A
:1024A00004684FF6FF717148FEF738FA7EA000F01D
:1024B0001BFA2046FFF7E9FE10BD10B56A48046814
:1024C0004FF6FF716948FEF729FA7FA000F00CFA79
:1024D0002046FFF7DAFE10BD0220834908614861FB
:1024E0008861C8610520086748678867C8677047C2
:1024F00008B5FFF717FD202300224FF4E1317B4898
:10250000FFF772FB7AA000F0EFF9FFF7E5FF00207C
:1025100003460722014600908048FFF73FF88049B4
:102520007E48FFF7A6F8002001230722014600900D
:102530007C48FFF733F87A497A48FFF79AF8022186
:102540007648FFF7F9F802217648FFF7F5F82320DF
:1025500000F07EF8242000F07BF808BD70B5002460
:10256000002500266D48FFF799F86FA000F0BCF930
:102570006A48FFF7E9F86948FFF7ECF84421674833
:10258000FFF7EDF86548FFF7DFF870BD10B50024E0
:102590006248FFF7FAF8044621466CA000F0A4F95F
:1025A00010BD10B500245F48FFF7EFF80446214640
:1025B00072A000F099F95B48FFF770F8552159486F
:1025C000FFF7CDF810BD30B585B00025002477A108
:1025D00003C9CDE90301002001900290754908620A
:1025E0007548FFF791FC01A80823AA2270210090EA
:1025F0007248FEF74EFF72A000F076F906E001A8DF
:10260000025D21467CA000F06FF9641C082CF6DB0B
:102610006BA000F069F905B030BD10B56748FEF752
:102620000FFC10BD10B57D48FEF762FD10BD70B502
:1026300004460D46E1B22D48FFF7DDFB00BF2B48F5
:10264000FFF73CFC00F001000128F8D0204670BDE7
:1026500000F01F020121914042094FF0E02303EBFB
:102660008202C2F8001170470C12024000100140B3
:1026700009455854493320496E74657272757074F7
:102680002070726F64756374210A00000945585404
:10269000493420496E746572727570742070726F5F
:1026A00064756374210A00000945585449395F353F
:1026B00020496E746572727570742070726F6475E3
:1026C0006374210A00000000094558544931355F00
:1026D000313020496E746572727570742070726F3B
:1026E00064756374210A0000000001400038014055
:1026F0000D0A2D2D2D2D2D2D2D2D2D2D2D2D2D2D4D
:102700002D2D53504920546573742D2D2D2D2D2DB5
:102710002D2D2D2D2D2D2D2D2D0D0A00003001409C
:1027200040420F00003800402D2D2D2D2D2D2D2D38
:102730002D5350492053656E6420646174612D2DC2
:102740002D2D2D2D2D2D0D0A00000000496E20533A
:1027500050493120696E746572727570742C74689A
:102760006520535049312052656164206461746171
:102770002069733A2025780D0A000000496E205325
:1027800050493220696E746572727570742C746869
:102790006520535049322052656164206461746140
:1027A0002069733A2025780D0A0000001122334475
:1027B0005566FF000801002080841E000054004080
:1027C0000D0A2D2D2D2D2D2D2D54686520493243B8
:1027D00031205265636976652044617461205072CE
:1027E000696E7420656E64696E672D2D2D2D2D2DFB
:1027F0002D2D0D0A00000000546865204932433138
:1028000020526563697665204E6F2E2564206461D1
:1028100074612069733A25780D0A00000058004061
:102820002DE9F05F0546002092469B468846064605
:10283000814640241BE0284641464746224600F098
:1028400042F852465B46801A994110D31046194609
:10285000224600F029F82D1A67EB01084F46224660
:102860000120002100F020F817EB00094E41201E46
:10287000A4F10104DFDC484631462A464346BDE860
:10288000F09F0000064C074D06E0E06840F00103B1
:1028900094E8070098471034AC42F6D3FDF74EFC9D
:1028A000F82B0000182C0000202A04DB203A00FA44
:1028B00002F1002070479140C2F1200320FA03F397
:1028C000194390407047202A04DB203A21FA02F095
:1028D0000021704721FA02F3D040C2F1200291405A
:1028E00008431946704700000FB4054B10B503A903
:1028F000044A029800F018F810BC5DF814FB0000C0
:102900002F2600002800002002E008C8121F08C17E
:10291000002AFAD170477047002001E001C1121F60
:10292000002AFBD1704700002DE9FF4F8DB004460F
:102930009B460F46002641E1252801D00F9963E010
:102940000025641CA14AA84601212378203B01FAF6
:1029500003F0104202D00543641CF6E720782E28CD
:1029600017D114F8010F45F004052A280ED06FF096
:102970002F022078A0F1300109290AD808EB88013C
:1029800002EB410100EB0108641CF2E757F8048BED
:10299000641C20786C280DD004DC4C2812D06A28E6
:1029A00011D104E074280DD07A280CD10AE045F446
:1029B000001507E0617845F48015814202D1641C5E
:1029C00005F58015641C94F800C0BCF1690F4DD06A
:1029D0000CDCBCF1000F6ED0BCF1580F6FD0BCF115
:1029E000630F16D0BCF1640F0CD13FE0BCF1700F47
:1029F0006AD0BCF1730F15D0BCF1750F5DD0BCF17E
:102A0000780F5CD00F9960465A46904706F1010650
:102A1000D3E001CF8DF8000000208DF80100E946D9
:102A2000012003E057F8049B4FF0FF3069074FF097
:102A3000000501D40AE06D1C45450DDA8542FADB3C
:102A400019F805100029F6D106E06D1C8542FCDB63
:102A500019F805100029F8D12E4404E019F8010BEB
:102A60005A460F9990476D1EF8D2A6E00A20002121
:102A7000CDE90801C5F3025002280AD001CFC117E1
:102A800000290DDA0023D0EB030063EB01012D22B6
:102A900009E007F1070727F00707F7E80201EFE76A
:102AA0002A0504D52B228DF82820012230E0EA07E0
:102AB0002ED02022F7E785E001E00A2000E0102078
:102AC0000021CDE9080107E01020002145F00405B0
:102AD000CDE908014FF00808C5F3025002281CD0C8
:102AE00001CF00214FF0000A2A0712D5BCF1700F68
:102AF00019D0DDE9083283F01003134309D150EAFD
:102B0000010206D030228DF828208DF829C002223B
:102B10009246BCF1580F10D00AE0FF1D27F00707BE
:102B2000F7E80201DEE740228DF828204FF0010A85
:102B300027A20DF120090B9209E02AA2F9E7DDE9AD
:102B40000823FFF76DFE0B9B9B5C09F8013D50EAE3
:102B50000102F4D1ADEB090000F1200008906807F4
:102B600001D44FF001080899884502DDA8EB010067
:102B700000E000208046002506E00AA85A46405D95
:102B80000F999047761C6D1C5545F6DB04E030200C
:102B90005A460F999047761CB8F10001A8F1010838
:102BA000F5DC05E019F8010B5A460F999047761CA1
:102BB0000899481E08900029F4DC641C207800283D
:102BC0007FF4BAAE11B03046BDE8F08F092801009D
:102BD0003031323334353637383961626364656693
:102BE0000000000030313233343536373839414255
:102BF0004344454600000000182C0000000000205F
:102C00002C00000008290000442C00002C000020AB
:102C10000C0500001829000000A24A0400A24A0482
:102C200000A24A0400A24A04AA112233445566FFB6
:102C30000000000000000000000000000000000094
:042C40000000000090
:0400000500000135C1
:00000001FF
