:020000040000FA
:1000000070060020C9030000CD030000CF030000EC
:10001000D1030000D3030000D5030000000000005E
:10002000000000000000000000000000D7030000F6
:10003000D903000000000000DB030000DD03000026
:10004000DF030000DF030000DF030000DF03000028
:100050000000000000000000DF030000DF030000DC
:10006000DF030000DF030000DF030000DF03000008
:10007000DF030000DF030000DF030000DF030000F8
:10008000DF030000DF030000DF030000DF030000E8
:1000900000000000DF03000000000000DF0300009C
:1000A0000F080000DF030000DF030000DF03000093
:1000B000DF030000DF030000DF030000DF030000B8
:1000C00000000000DF03000000000000DF0300006C
:1000D000DF030000DF030000DF030000DF03000098
:1000E000DF03000000000000DF030000DF0300006A
:1000F000DF030000DF030000DF030000DF03000078
:100100000000000000000000DF030000DF0300002B
:10011000DF030000DF030000DF030000DF03000057
:10012000DF030000DF030000DF030000DF03000047
:100130000000000000F002F800F03CF80AA090E88F
:10014000000C82448344AAF10107DA4501D100F092
:1001500031F8AFF2090EBAE80F0013F0010F18BF23
:10016000FB1A43F001031847480700006807000026
:10017000103A24BF78C878C1FAD8520724BF30C8D3
:1001800030C144BF04680C607047000000230024A5
:1001900000250026103A28BF78C1FBD8520728BF97
:1001A00030C148BF0B6070471FB500F07AFB1FBD20
:1001B00010B510BD00F03BFB1146FFF7F5FF00F056
:1001C000F0FA00F059FB03B4FFF7F2FF03BC00F0B4
:1001D00061FB00000023724A106F724910F00300A7
:1001E00006D0012807D0022808D0032825D123E013
:1001F0006D48086021E06D4808601EE0106C10F04A
:10020000030006D001280CD0022812D0032814D1F4
:100210000FE09068644B00F01F00401C58430860DA
:100220000BE09068614B00F01F00401C58430860D1
:1002300003E00020086000E00B6008684860936FEE
:10024000B0FBF3F00860D2F89430C3F30223042B20
:100250002CD0D2F89430C3F30223052B29D0D2F846
:100260009430C3F30223062B26D0D2F894306FEAE1
:1002700013235B0723D08860D2F89430C3F3C223E2
:10028000042B1FD0D2F89430C3F3C223052B1CD00B
:10029000D2F89430C3F3C223062B19D0D2F894209D
:1002A0006FEAD222520716D0C860704743088B60AD
:1002B000E2E783088B60DFE7C3088B60DCE70309B4
:1002C0008B60D9E74008C86070478008C8607047F5
:1002D000C008C86070470009C860704730B534482E
:1002E000002303603248AA210830016055220260D1
:1002F00030480360816082602F4801684FF0FF3111
:1003000001602749D1F8380220F48070C1F8380222
:100310004FF002040C624FF0000000BF00F101003A
:10032000C828FAD301224A640A644B6444F24900A3
:100330008860D1F8380220F08000C1F8380200202F
:1003400000BF401CC828FBD31C4D0320E86001F10E
:1003500024010A65CC640B654A654A670A60D1F8D6
:10036000140220F04000C1F8140240F2FF100866A9
:100370004A6E42F000524A66D1F8142222F010026E
:10038000C1F814220E4A41F24801116002F1040240
:1003900010600C4A116002F10401086030BD0000D9
:1003A0000010024000000020005A620200127A0091
:1003B000002C00400030004080E200E000200240BD
:1003C000007400401074004008480047FEE7FEE754
:1003D000FEE7FEE7FEE7FEE7FEE7FEE7FEE7FEE7F5
:1003E00003480449044A054B7047000035010000EA
:1003F00070000020700600207002002070020020B3
:1004000070B5049A0024D94ED94DB04205D155F8A3
:10041000846F46F400662E6007E0D64EB04268D185
:1004200055F8846F46F400562E60056864F346154F
:100430000560846C24F002048464846C24F0040459
:100440008464846C24F008048464846C62F349241A
:100450008464846C24F020048464846C62F38A24B1
:100460008464846C24F040048464846C62F3CB2440
:100470008464846C24F080048464846C63F34D345D
:100480008464BD4C012B35D023685B08B3FBF1F1CC
:100490004161016841F400610160016E62F3000195
:1004A0000166016E62F341010166016E62F3820131
:1004B0000166016E62F3C3010166016E62F304110D
:1004C0000166016E62F345110166016841F0800129
:1004D0000160016841F480710160016841F40071BC
:1004E0000160416E6FF30F014166016841F0020146
:1004F000016070BD2368B3FBF1F14161016821F433
:1005000000610160C9E7994A9949904205D151F8C3
:10051000840F20F4006008607047964A9042FBD137
:1005200051F8840F20F4005008607047026861F3AE
:100530000F320260704770B500230126642406FA6A
:1005400003F50D401DB3062B27D2DFE803F00309A6
:100550000F151B2145695543B5FBF4F585611CE07A
:1005600045695543B5FBF4F5C56116E0456955434A
:10057000B5FBF4F5056210E045695543B5FBF4F5AC
:1005800045620AE045695543B5FBF4F5856204E030
:1005900045695543B5FBF4F5C5625B1CDBB2062B20
:1005A000CDD3016841F00201016070BD01EB810112
:1005B00089008163704701EB81018900C163704745
:1005C00051B1022907D1416862F3041141604168C9
:1005D00063F3451141607047416862F30001416077
:1005E000416863F3410141607047816841F0010156
:1005F0008160816841F0040181607047016841F0C9
:1006000001010160C16C21F04001C164C16C21F0A5
:100610008001C164C16C21F48071C164C16C21F49A
:100620000071C164C16C21F48061C164C16C21F4AA
:100630000061C164016841F080710160016841F0AE
:1006400000710160016841F080610160016841F062
:1006500000610160016841F080510160016841F072
:1006600000510160416D41F010014165016841F0A8
:10067000020101607047016821F001010160C16C55
:1006800041F04001C164C16C41F08001C164C16CA2
:1006900041F48071C164C16C41F40071C164C16CEA
:1006A00041F48061C164C16C41F40061C1640168BE
:1006B00021F080710160016821F000710160016822
:1006C00021F080610160016821F000610160016832
:1006D00021F080510160016821F000510160416DFD
:1006E00021F010014165016841F00201016070478D
:1006F000026842F008020260026861F3CB220260E5
:10070000704710B50022012404FA02F30B4223D0F3
:10071000062A21D2DFE802F003080D12171C036835
:1007200043F08073036017E0036843F000730360D5
:1007300012E0036843F0806303600DE0036843F058
:100740000063036008E0036843F08053036003E044
:10075000036843F000530360521CD2B2062AD3D37D
:1007600010BD016841F4803101607047002C0140E8
:1007700000100240003401400C00002002E064211F
:10078000491EFDD2401EFAD2704724481621C1618D
:1007900001620164416241648162C16201638161FD
:1007A000704708B5FFF79AFDFFF7EFFF00201C4CDC
:1007B00003460246009041F288312046FFF720FEB2
:1007C00028223F212046FFF7B6FE02212046FFF7F0
:1007D000EDFE02212046FFF7EEFE00220123114626
:1007E0002046FFF7EDFE0123002202212046FFF7FD
:1007F000E7FE0C494FF080720A602046FFF7FEFECC
:100800000A20FFF7BBFF2046FFF7ABFFF8E710B564
:100810000348FFF7EAFE002010BD00000000014081
:10082000002C014000E100E07047704770477546BA
:1008300000F028F8AE4605006946534620F0070050
:10084000854618B020B5FFF7CBFDBDE820404FF03E
:1008500000064FF000074FF000084FF0000B21F0AA
:100860000701AC46ACE8C009ACE8C009ACE8C00977
:10087000ACE8C0098D4670470446AFF300802046BF
:10088000FFF7A1FC004870471000002000487047A7
:100890001400002001491820ABBEFEE7260002002C
:1008A000704710B5FFF7F2FF4FF00001016010BD77
:1008B000D0080000000000201000000070010000BF
:1008C000E008000010000020600600008C0100001D
:1008D00000A24A0400A24A0400A24A0400A24A0458
:0400000500000135C1
:00000001FF
