:020000040000FA
:1000000018040020ED030000F1030000F3030000DA
:10001000F5030000F7030000F903000000000000F2
:10002000000000000000000000000000FB030000D2
:10003000FD03000000000000FF03000001040000B9
:100040007D0D000003040000030400000304000011
:100050000000000000000000030400000304000092
:100060000304000003040000030400000304000074
:100070000304000003040000030400000304000064
:100080000304000003040000030400000304000054
:100090000000000003040000000000000304000052
:1000A0000304000003040000030400000304000034
:1000B0000304000003040000030400000304000024
:1000C0000000000003040000000000000304000022
:1000D0000304000003040000030400000304000004
:1000E00003040000000000000304000003040000FB
:1000F00003040000030400000304000003040000E4
:1001000000000000000000000304000003040000E1
:1001100003040000030400000304000003040000C3
:1001200003040000030400000304000003040000B3
:1001300000000000DFF80CD000F03AFE0048004755
:10014000190D00001804002000209849096F11F0D3
:10015000030106D0012908D002290AD0032932D18F
:100160002EE09349934A11602DE09349914A116022
:1001700029E08E49096C11F0030106D001290ED047
:10018000022916D0032919D114E08849896801F0A1
:100190001F01491C864A5143864A11600EE083497B
:1001A000896801F01F01491C834A5143814A11604B
:1001B00004E000BF00217F4A116000BF00BF02E0E1
:1001C0007C49086000BF00BF7A4909687B4A11601A
:1001D0007649896F774A1268B2FBF1F1754A11606E
:1001E00077490968C1F30221042905D1114609683C
:1001F0004908744A116027E071490968C1F3022176
:10020000052905D16B49096889086E4A11601BE010
:100210006B490968C1F30221062905D165490968BE
:10022000C908684A11600FE065490968C1F30221F5
:10023000072905D15F4909680909624A116003E08D
:100240005C4909685F4A11605D490968C1F3C221D0
:10025000042905D15749096849085B4A116027E01C
:1002600057490968C1F3C221052905D151490968D7
:100270008908554A11601BE051490968C1F3C22140
:10028000062905D14B490968C9084F4A11600FE09A
:100290004B490968C1F3C221072905D145490968BD
:1002A0000909494A116003E042490968464A116058
:1002B00070470021454A1160AA21444A0832116062
:1002C000552111600021424A1160AA2191605521F7
:1002D0009160404909684FF0FF314FF0E022C2F8C9
:1002E00080123249D1F8381221F480713A4A1160F3
:1002F0004FF002012D4A11624FF0000001E000BFF3
:10030000401CC828FBD30121284A516411640021F4
:10031000516444F2490191602F49096821F080013C
:10032000C2F838124FF0000001E000BF401CC8289E
:10033000FBD30321294AD16001211C4A51670221C4
:1003400011670021516701219167254A1160174A01
:1003500051621146D1F8381221F040011E4A116055
:1003600040F2FF11114AC2F884101146D1F88810EA
:1003700041F00051C2F888101146D1F8381221F02E
:100380001001154A116041F24801164A116040F20D
:10039000FF1102F10402116041F24801124A11609A
:1003A00040F2FF1102F10402116070470010024098
:1003B000005A62020000002000127A0004000020AF
:1003C00094100240080000200C000020002C004087
:1003D0000030004080E200E038120240002002407D
:1003E0009810024000740040107400400548004717
:1003F000FEE7FEE7FEE7FEE7FEE7FEE7FEE7FEE7D5
:10040000FEE7FEE73501000010B5FFF752FFF9489F
:100410000068F9498862FF20F849086040F201103D
:10042000F749C1F8B800C1F8BC00F348D0F8380269
:1004300020F02000F049C1F83802F248406920F469
:10044000C050F049486110BD10B50446EA48406FFD
:1004500020F00300401CE84948672CB90846006FAB
:1004600020F00300086708E0032C06D1E248006F83
:1004700020F00300801CE0490867DF48406F20F04F
:100480000300DD494867FFF75FFE10BD10B5044665
:10049000D948806F64F30700D7498867FFF754FE97
:1004A00010BD30B9D449496A21F48051D24A516211
:1004B00009E0032807D1D049496A21F4805101F5A8
:1004C0008051CD4A5162704705280ED2DFE800F016
:1004D000030905070B00002008E0012006E00220C8
:1004E00004E0032002E0042000E0704700BFC6499A
:1004F000096821F0010101F10101BF4AC2F8E410CD
:100500001146D1F8E01060F30201C2F8E010114684
:10051000D1F8E41021F00101C2F8E41000BFE4E7D3
:10052000BA49096860F30701B34AC2F8E810704796
:1005300040F23120B64908607047B448006820F0A6
:10054000FF00AD49C1F8E8004FF40C70B0490860F5
:100550007047B049096860F30701A74AC2F84C1117
:100560007047AD49096841EA0001A34AC2F8381250
:100570007047A949096821EA00019F4AC2F8381268
:100580007047A649096841EA00019B4AC2F88010F9
:100590001146D1F8841041EA0001C2F884101146D6
:1005A000D1F8881041EA0001C2F8881070479B49D1
:1005B000096821EA0001904AC2F880107047984902
:1005C000096821EA00018C4AC2F88C101146D1F862
:1005D0008C1041EA0001C2F88C101146D1F890103D
:1005E00021EA0001C2F890101146D1F8901041EABA
:1005F0000001C2F89010704700BF8A48006800F4FC
:10060000E06089490843001D86490860BFF3408FB8
:1006100000BF00BFFEE7012809D18449096821F025
:10062000100101F11001744AC2F850110EE07F4927
:10063000096821F01001704AC2F850117B4909681D
:1006400021F0400101F14001C2F8501170476A48A1
:10065000006B7047FF20684908637047694800686D
:1006600020F00200674908606E48001D006820F015
:1006700004006C49091D086030BF704730B50A4658
:100680006B49086042B9A1F10401096821EA00013F
:10069000594BC3F8001201E0664908604FF00601AB
:1006A0004FF0010303FA01F34FEA51144FF0E02534
:1006B00005EB8404C4F8003100BF30BD00205C4964
:1006C000086040F6FF704C49C1F80802704710B549
:1006D000514B1B68C3F3801363B14F4B1B6823F06E
:1006E0004003454CC4F8383200BF134602F1010202
:1006F000FF2BFAD3504B18603F4BC3F834125B6F9B
:1007000023F0030303F101033B4C636723461B6F94
:1007100023F0030303F10203236723465B6F23F0F7
:1007200003036367374B1B6823F0020303F10203E3
:10073000344C2360414B1B6843F004033F4C23605F
:1007400030BF00BF00BF00BF00BF00BF2A4B5B6FC0
:1007500023F0030303F10103274C636723461B6F58
:1007600023F00303236723465B6F23F003036367D0
:1007700010BD10F0200F07D02F49096821F020018B
:100780001D4AC2F8301208E02B49096821F0200107
:1007900001F12001184AC2F830122749096821F0F6
:1007A000080101F10801144AC2F83012224909680F
:1007B00021F0400101F14001C2F8301211490968ED
:1007C00021F0020101F102010E4A11601B49096882
:1007D00041F00401194A116030BF70470160704751
:1007E000016821F008010160016821F01001103159
:1007F000016070471814FF1F00100240741102407E
:100800000000014000700040E4100240E810024087
:10081000A00001404C1102403812024080100240FA
:100820008C1002400CED00E00000FA05501102406F
:1008300004120240001202403012024010ED00E0AB
:10084000016821F010010160016821F00801083100
:1008500001607047016821F4006101F500610160E9
:100860007047016821F400610160704742480068E8
:1008700020F4006000F500604049C1F8880070472E
:100880003D48006820F400603C49C1F8880070478A
:100890003B4A126860F30902394B1A601A1D12684C
:1008A00061F317021B1D1A60704735480C38006849
:1008B00020F0FF00AA3032490C3908600846006871
:1008C00020F0FF005530086070472D491039096845
:1008D00060F317012A4A103A116070470146274A0F
:1008E000526AC2F3003212B14FF4FA4001E0254AD5
:1008F000106801FB00F24FF47A73B2FBF3F2900838
:100900001F4A103A126860F317021D4B103B1A6021
:1009100070471B481438006820F00200801C1849FA
:1009200014390860704716481438006820F0040035
:100930001349143908600846006820F008000830A0
:10094000086070470E480838006870470C48143833
:10095000006820F02000203009491439086008465A
:10096000006820F04000403008600846006820F031
:1009700080008030086070478810024000100240FC
:10098000142C004004000020026A8A43026270476F
:1009900001627047C2680A43C260704702690A4335
:1009A0000261704742690A434261704702465068DB
:1009B000084201D0012070470020FCE7014648684A
:1009C00080B2704702680A430260704702688A4337
:1009D000026070470146486880B270478160704786
:1009E00070B505460C461646012E07D1BC48006876
:1009F00040EA0400BB49C1F8000206E0B8480068BC
:100A000020EA0400B749C1F80002B748854207D17F
:100A1000B348006820F46020B249C1F800024CE0FD
:100A2000B248854209D1AE48006820F4602000F544
:100A30000030AC49C1F800023FE0AD48854209D121
:100A4000A748006820F4602000F58020A549C1F87F
:100A5000000232E0A748854209D1A148006820F48D
:100A6000602000F5C0209F49C1F8000225E0A2489F
:100A7000854209D19A48006820F4602000F50020E2
:100A80009849C1F8000218E09C48854209D1944871
:100A9000006820F4602000F520209249C1F800028F
:100AA0000BE09648854208D18D48006820F460200C
:100AB00000F540208B49C1F800028948006820F405
:100AC000803000F580308749C1F80002012C03D145
:100AD000062000F0EFF868E0022C03D1072000F0B8
:100AE000E9F862E0042C03D1082000F0E3F85CE0B0
:100AF000082C03D1092000F0DDF856E0102C03D1BA
:100B00000A2000F0D7F850E0B4F5007F01D10120B1
:100B100000E00020B4F5807F01D1012100E0002138
:100B20000843802C01D1012100E000210843402C22
:100B300001D1012100E000210843202C01D1012135
:100B400000E00021084303D0172000F0B3F82CE0A8
:100B5000B4F5004F01D1012000E00020B4F5804F32
:100B600001D1012100E000210843B4F5005F01D16B
:100B7000012100E000210843B4F5805F01D101218B
:100B800000E000210843B4F5006F01D1012100E02D
:100B900000210843B4F5806F01D1012100E000215C
:100BA000084302D0282000F085F85548046070BD45
:100BB000544A126842EA01024A4BC3F808227047BD
:100BC00070B505460C464E48006820EA04004549C9
:100BD000C1F80402012C03D1062000F077F868E088
:100BE000022C03D1072000F071F862E0042C03D13D
:100BF000082000F06BF85CE0082C03D1092000F01D
:100C000065F856E0102C03D10A2000F05FF850E0A0
:100C1000B4F5007F01D1012000E00020B4F5807F11
:100C200001D1012100E000210843802C01D10121E4
:100C300000E000210843402C01D1012100E0002107
:100C40000843202C01D1012100E00021084303D0FA
:100C5000172000F03BF82CE0B4F5004F01D1012043
:100C600000E00020B4F5804F01D1012100E0002117
:100C70000843B4F5005F01D1012100E000210843E1
:100C8000B4F5805F01D1012100E000210843B4F5F3
:100C9000006F01D1012100E000210843B4F5806F0D
:100CA00001D1012100E00021084302D0282000F0FA
:100CB0000DF870BD00F01F020121914042094FF074
:100CC000E02303EB8202C2F80011704700F01F021C
:100CD000012191400C4A430942F82310704700005B
:100CE000001202400010024000080140000C0140C8
:100CF000001001400014014000180140001C014098
:100D0000041202400812024080E100E000BF01002E
:100D1000A0F10100FBD17047FFF776FB1E48006889
:100D200040F010001D49C1F884004FF001011C483B
:100D3000FFF72EFEFFF79AFD40F2FF10FFF7C5FD0B
:100D400040F2FF714810FFF7A3FD00200121814010
:100D500042094FF0E02303EB8202C2F8001100BF0A
:100D60000BE0FFF7A2FD0F48006820F00100401CD7
:100D70000C4908600C48FFF7C9FFF2E710B5FFF710
:100D8000D2FD0A480088C043084908800846018807
:100D90000348FFF723FE10BD8410024000100240FC
:100DA00000100140002C004080841E001000002034
:100DB000064C074D06E0E06840F0010394E80700A8
:100DC00098471034AC42F6D3FFF7B8F9F40D0000A1
:100DD000140E000002E008C8121F08C1002AFAD150
:100DE00070477047002001E001C1121F002AFBD1AB
:100DF00070470000140E00000000002014000000E6
:100E0000D40D0000280E000014000020040400008F
:100E1000E40D000000A24A0400A24A0400A24A0411
:080E200000A24A0401000000D9
:0400000500000135C1
:00000001FF
