:020000040000FA
:1000000020040020ED030000F1030000F3030000D2
:10001000F5030000F7030000F903000000000000F2
:10002000000000000000000000000000FB030000D2
:10003000FD03000000000000FF03000001040000B9
:100040000304000003040000030400000304000094
:100050000000000000000000030400000304000092
:100060000304000003040000030400000304000074
:100070000304000003040000030400000304000064
:100080000304000003040000030400000304000054
:100090000000000003040000000000000304000052
:1000A0000304000003040000030400000304000034
:1000B0000304000003040000030400000304000024
:1000C0000000000003040000000000000304000022
:1000D0000304000003040000030400000304000004
:1000E00003040000000000000304000003040000FB
:1000F00003040000030400000304000003040000E4
:1001000000000000000000000304000003040000E1
:1001100003040000030400000304000003040000C3
:1001200003040000030400000304000003040000B3
:1001300000000000DFF80CD001F0A4F900480047EF
:10014000D90D00002004002000209849096F11F00B
:10015000030106D0012908D002290AD0032932D18F
:100160002EE09349934A11602DE09349914A116022
:1001700029E08E49096C11F0030106D001290ED047
:10018000022916D0032919D114E08849896801F0A1
:100190001F01491C864A5143864A11600EE083497B
:1001A000896801F01F01491C834A5143814A11604B
:1001B00004E000BF00217F4A116000BF00BF02E0E1
:1001C0007C49086000BF00BF7A4909687B4A11601A
:1001D0007649896F774A1268B2FBF1F1754A11606E
:1001E00077490968C1F30221042905D1114609683C
:1001F0004908744A116027E071490968C1F3022176
:10020000052905D16B49096889086E4A11601BE010
:100210006B490968C1F30221062905D165490968BE
:10022000C908684A11600FE065490968C1F30221F5
:10023000072905D15F4909680909624A116003E08D
:100240005C4909685F4A11605D490968C1F3C221D0
:10025000042905D15749096849085B4A116027E01C
:1002600057490968C1F3C221052905D151490968D7
:100270008908554A11601BE051490968C1F3C22140
:10028000062905D14B490968C9084F4A11600FE09A
:100290004B490968C1F3C221072905D145490968BD
:1002A0000909494A116003E042490968464A116058
:1002B00070470021454A1160AA21444A0832116062
:1002C000552111600021424A1160AA2191605521F7
:1002D0009160404909684FF0FF314FF0E022C2F8C9
:1002E00080123249D1F8381221F480713A4A1160F3
:1002F0004FF002012D4A11624FF0000001E000BFF3
:10030000401CC828FBD30121284A516411640021F4
:10031000516444F2490191602F49096821F080013C
:10032000C2F838124FF0000001E000BF401CC8289E
:10033000FBD30321294AD16001211C4A51670221C4
:1003400011670021516701219167254A1160174A01
:1003500051621146D1F8381221F040011E4A116055
:1003600040F2FF11114AC2F884101146D1F88810EA
:1003700041F00051C2F888101146D1F8381221F02E
:100380001001154A116041F24801164A116040F20D
:10039000FF1102F10402116041F24801124A11609A
:1003A00040F2FF1102F10402116070470010024098
:1003B000005A62020000002000127A0004000020AF
:1003C00094100240080000200C000020002C004087
:1003D0000030004080E200E038120240002002407D
:1003E0009810024000740040107400400548004717
:1003F000FEE7FEE7FEE7FEE7FEE7FEE7FEE7FEE7D5
:10040000FEE7FEE73501000030B5AE4C2468AE4D86
:10041000AC4207D2AD4CE46F24F0FF04641CAB4D3A
:10042000EC6720E0A74C2468A94DAC4207D2A74C4A
:10043000E46F24F0FF04A41CA44DEC6713E0A14C6E
:100440002468A44DAC4207D2A04CE46F24F0FF0412
:10045000E41C9E4DEC6706E09C4CE46F24F0FF0426
:10046000241D9A4DEC679C4CA04209D19B4C2468FA
:1004700024F4007404F50074944DC5F8844018E029
:10048000974CA04209D1954C246824F4806404F56B
:1004900080648E4DC5F884400BE0924CA04208D198
:1004A0008E4C246824F4004404F50044874DC5F8BC
:1004B0008440046824F080440460874CA04210D13A
:1004C000894C246824F4007404F500747F4DC5F849
:1004D0008C402C46D4F88C4024F40074C5F88C4031
:1004E00026E07F4CA04210D17F4C246824F4806425
:1004F00004F58064754DC5F88C402C46D4F88C40CA
:1005000024F48064C5F88C4012E0764CA0420FD1F0
:10051000754C246824F4004404F500446B4DC5F880
:100520008C402C46D4F88C4024F40044C5F88C4010
:100530006E4CA14200D921460901624C2468B4FBEB
:10054000F1F4624DED6FEDB2B4FBF5F202FB01F494
:100550005C4D2D68AC4206D0654C5443594D2D6816
:10056000AC4200D2521C046862F30F240460FF23E3
:1005700000BF1C00A3F10103FBD1046824F4803404
:1005800004F580340460046824F0005404F100543D
:100590000460046824F0FF04641C046000BF046B62
:1005A000C4F34054002CFAD030BD0021C160491E74
:1005B0000163016821F0804101F180410160002167
:1005C000424AD1677047F0B50C46002500210CE087
:1005D0000F278F40174027FA01F606FA01F73D432F
:1005E000076864F307070760091D2029F0D38560B9
:1005F000076827F000570760012B03D1076827F031
:1006000070670760076863F310470760076827F0A3
:10061000005707F1005707602BB900BF076BC7F3FE
:100620004057002FFAD0F0BD036861F31B630360ED
:10063000036862F31C73036000BF036BC3F3405392
:10064000002BFAD07047436B61F30B0343630F2A0F
:1006500000D10022436B62F30E3343637047436B58
:1006600061F31B4343630F2A00D10022436B62F303
:100670001E7343637047836B61F30B0383630F2A1D
:1006800000D10022836B62F30E3383637047836B68
:1006900061F31B4383630F2A00D10022836B62F353
:1006A0001E7383637047C160704702460B4600BFEC
:1006B00002F1100050F8231011F0004FF8D0C1F3F0
:1006C0000B0070470C000020002D3101001002408B
:1006D000005A620200879303002401408410024004
:1006E00000280140003C01408C10024040420F00B5
:1006F0000024F400026A8A43026270470162704774
:10070000C2680A43C260704702690A4302617047C7
:1007100042690A434261704702465068084201D06C
:10072000012070470020FCE70146486880B270470E
:1007300002680A430260704702688A430260704799
:100740000146486880B270478160704770B50546C1
:100750000C461646012E07D1BC48006840EA04004A
:10076000BB49C1F8000206E0B848006820EA04006E
:10077000B749C1F80002B748854207D1B3480068BD
:1007800020F46020B249C1F800024CE0B248854232
:1007900009D1AE48006820F4602000F50030AC4973
:1007A000C1F800023FE0AD48854209D1A748006882
:1007B00020F4602000F58020A549C1F8000232E055
:1007C000A748854209D1A148006820F4602000F5BF
:1007D000C0209F49C1F8000225E0A248854209D106
:1007E0009A48006820F4602000F500209849C1F87C
:1007F000000218E09C48854209D19448006820F422
:10080000602000F520209249C1F800020BE09648D4
:10081000854208D18D48006820F4602000F5402012
:100820008B49C1F800028948006820F4803000F547
:1008300080308749C1F80002012C03D1062000F066
:10084000EFF868E0022C03D1072000F0E9F862E03D
:10085000042C03D1082000F0E3F85CE0082C03D15D
:10086000092000F0DDF856E0102C03D10A2000F03A
:10087000D7F850E0B4F5007F01D1012000E000205E
:10088000B4F5807F01D1012100E000210843802CD4
:1008900001D1012100E000210843402C01D10121B8
:1008A00000E000210843202C01D1012100E00021BB
:1008B000084303D0172000F0B3F82CE0B4F5004F44
:1008C00001D1012000E00020B4F5804F01D10121C9
:1008D00000E000210843B4F5005F01D1012100E0F0
:1008E00000210843B4F5805F01D1012100E000211F
:1008F0000843B4F5006F01D1012100E00021084355
:10090000B4F5806F01D1012100E00021084302D03D
:10091000282000F085F85548046070BD544A1268DC
:1009200042EA01024A4BC3F80822704770B50546F7
:100930000C464E48006820EA04004549C1F804020C
:10094000012C03D1062000F077F868E0022C03D1D7
:10095000072000F071F862E0042C03D1082000F0B9
:100960006BF85CE0082C03D1092000F065F856E034
:10097000102C03D10A2000F05FF850E0B4F5007F9E
:1009800001D1012000E00020B4F5807F01D10121D8
:1009900000E000210843802C01D1012100E000216A
:1009A0000843402C01D1012100E000210843202C04
:1009B00001D1012100E00021084303D0172000F0FD
:1009C0003BF82CE0B4F5004F01D1012000E00020FD
:1009D000B4F5804F01D1012100E000210843B4F5B6
:1009E000005F01D1012100E000210843B4F5805FE0
:1009F00001D1012100E000210843B4F5006F01D1CD
:100A0000012100E000210843B4F5806F01D10121EC
:100A100000E00021084302D0282000F00DF870BD4E
:100A200000F01F020121914042094FF0E02303EB47
:100A30008202C2F80011704700F01F0201219140AC
:100A40000C4A430942F8231070470000001202408C
:100A50000010024000080140000C0140001001405D
:100A60000014014000180140001C01400412024023
:100A70000812024080E100E02DE9F04104460F46F3
:100A800016461D46B948006820F0FF0000F101003D
:100A9000B749C1F89800B74884421BD1252000F01F
:100AA0005CF9B548006820F4804000F58040B0490A
:100AB000C1F88400B148006820F4804000F580400F
:100AC000C1F88C000846D0F88C0020F48040C1F8B2
:100AD0008C003FE0AA4884421BD1262000F03DF95B
:100AE000A848006820F4003000F50030A049C1F8A3
:100AF0008800A548006820F4003000F50030C1F8F7
:100B000090000846D0F8900020F40030C1F8900022
:100B100020E09E4884421BD1272000F01EF999480E
:100B2000006820F4802000F580209149C1F88800F9
:100B30009548006820F4802000F58020C1F89000DE
:100B40000846D0F8900020F48020C1F8900001E021
:100B5000BDE8F0818E480068B0FBF7F1206961F3D1
:100B600013002061022E05D1A06820F4807000F5EA
:100B70008070A0602EB1A06820F4007000F50070B5
:100B8000A060022D04D1A06820F00200801CA060AB
:100B9000202D04D1A06820F020002030A060082D76
:100BA00004D1A06820F008000830A060A06820F4FC
:100BB000000000F50000A060A06820F4800000F5AF
:100BC0008000A060FF20606100BFC1E7C16841F004
:100BD000FF01C1607047816821F0FF0181607047AB
:100BE00010B50446634884420AD1252000F0B5F8C8
:100BF0006148006820F480405D49C1F884001CE031
:100C00005F4884420AD1262000F0A7F85D480068BA
:100C100020F400305649C1F888000EE05B48844259
:100C20000AD1272000F099F85648006820F4802067
:100C30004F49C1F8880000E010BD2046FFF7CBFF08
:100C40002046FFF7C3FF00BFF6E702465068C0F337
:100C5000400018B110680870002070470120FCE7C0
:100C600030B5002304E0046801F8014B5C1CE3B2DA
:100C70004468C4F3400424B115786C1E1470002D30
:100C8000F1D1137030BD02465068C0F3800008B146
:100C900001207047106861F3070010600020F8E73A
:100CA00010B503465868C0F3800008B9102A01D374
:100CB000012010BD05E011F8014B186864F307002E
:100CC00018601000A2F10102F5D100BFF1E710B5E4
:100CD0000BE000BF4368C3F38003002BFAD111F887
:100CE000014B036864F3070303601300A2F10102E0
:100CF000EFD110BD08E000BF4268C2F38002002AB5
:100D0000FAD111F8012B02600A78002AF3D170475A
:100D10000A4600BF02F00F01092903DD01F1370384
:100D2000D9B202E001F13003D9B200BF4368C3F386
:100D30008003002BFAD1036861F3070303601309F2
:100D4000E8D0704782680A4382607047014648686D
:100D5000C0B27047FF214161704700F01F020121BE
:100D600091400C4A430942F8231070479810024002
:100D70000010024000380140841002408C100240F4
:100D8000004400408810024090100240004800409B
:100D90000400002080E100E000BF0100A0F101009C
:100DA000FBD170475A48406A20F00700401C584960
:100DB00048620846406A20F0100010304862084639
:100DC000806A20F00700401C88620846806A20F094
:100DD0001000103088627047FFF76BFA4D480068CA
:100DE00040F008004C49C1F884000846D0F884005F
:100DF00040F01000C1F884000846D0F8840040F0AC
:100E00002000C1F884004FF400714448FFF776FCDD
:100E100001214348FFF772FC04214248FFF76EFCB2
:100E2000FFF7C0FF202300224FF4E1313E48FFF7D7
:100E300023FE3EA000F06AFB0720474908604749AF
:100E40004748FFF7E1FA0123F02202214448FFF767
:100E5000BAFB4FF6FF70FFF79FFF47E000BF00208F
:100E60004049086080460EE041F28830FFF794FF69
:100E700001213B48FFF719FC3A4909680844394900
:100E8000086008F10108B8F5806FEDD335480068B7
:100E9000800A344908600846016833A000F036FB38
:100EA0003048006840F24D11484340F6FF71B0FBF6
:100EB000F1F02C4908600846006800F0EEF806469C
:100EC0000022304B00F07AF804460D4622462B46AD
:100ED0002DA000F01BFB38480088C043364908802D
:100EE000084601880E48FFF72FFC00BFB6E770B533
:100EF00004460D46E1B20C48FFF7C5FE00BF0A48A4
:100F0000FFF724FF00F001000128F8D0204670BD53
:100F1000000001408410024000100240000C01401B
:100F20000010014000140140003801400D0A2D2D31
:100F30002D2D2D2D2D2D2D2D2D2D2D2D2D2D4144B6
:100F40004320546573742D2D2D2D2D2D2D2D2D2DDC
:100F50002D2D2D2D2D0D0A0094000140A08601009D
:100F600000240140140000205468652074656D70F1
:100F70002076616C75652069733A20307825780D8C
:100F80000A00000000005940546865204144433184
:100F9000325F494E31362063617074757265207618
:100FA0006F6C746167652069733A20252E33662063
:100FB00056200D0A00000000100000202DE9F04D21
:100FC00081EA030404F0004B21F0004714464FF07F
:100FD000000A23F0004150EA070220D054EA01023F
:100FE0001DD0C1F30A550246C1F31300C7F30A56D8
:100FF000C7F3130340F4801143F48013A6EB0508F4
:10100000101BD64608F2FD3873EB010002D308F13D
:10101000010801E092185B41B8F1000F03DA0020EB
:101020000146BDE8F08D00204FF4801506460746C6
:101030000EE0B2EB040C73EB010C04D3121B06435D
:1010400063EB01032F436D084FEA300092185B41B8
:1010500050EA050CEDD152EA030012D082EA0400F6
:1010600083EA0105284303D100224FF0004308E042
:10107000101B8B4102D20122002302E06FF001021B
:1010800053101AEB060047EB085110EB0A0041EB36
:101090000B01BDE8F04D00F054B80EB540F23341FD
:1010A00002910021CDE900110A460B4600F056F8E6
:1010B00003B000BD30B50B460146002020220124BC
:1010C00009E021FA02F59D4205D303FA02F5491B16
:1010D00004FA02F52844151EA2F10102F1DC30BD2C
:1010E0002DE9F05F0546002092469B46884606465D
:1010F000814640241BE0284641464746224600F0F0
:10110000E2F952465B46801A994110D310461946BF
:10111000224600F0C9F92D1A67EB01084F46224616
:101120000120002100F0C0F917EB00094E41201EFC
:10113000A4F10104DFDC484631462A464346BDE8B7
:10114000F09F10B5002B08DA401C41F10001921805
:101150005B411A4301D120F0010010BD2DE9F04D93
:1011600092469B4611B1B1FA81F202E0B0FA80F2E8
:101170002032904600F098F906460F4640EA0A00F1
:1011800041EA0B0152465B46084303D130463946DB
:10119000BDE8F08D194652EA010015D0C8F14002B1
:1011A000504600F090F904460D46504659464246D6
:1011B00000F07AF9084301D0012000E00020044348
:1011C00045EAE07526432F430A984FEAD625A0EB5F
:1011D00008000A304FEA46534FF0000245EA4755EF
:1011E0004FEAD72402D500200146D1E70105501966
:1011F0006141DDE9084500196941BDE8F04DA0E70E
:101200002DE9FE4F074681EA0300C00F0E4601900C
:1012100021F0004123F00044B81AA14105D238461C
:10122000314617461E460B46024623F00040104347
:1012300004D13846314603B0BDE8F08F350DC5F313
:101240000A00C3F30A510290401A0090402868DA5D
:10125000C3F3130040F4801B0198924620B1002391
:10126000D2EB030A63EB0B0B00985946C0F1400226
:10127000504600F019F980460C4650465946009AEF
:1012800000F031F9C0197141EF1785EA11533B4362
:1012900040D0019A52B3009A012A11DC0022801A30
:1012A0004FF0004361EB055103EA05538018CDE987
:1012B000002341F5801142462346FFF74FFFBAE76E
:1012C0002E050025401B61EB0601401941F58012F7
:1012D000001852412818A6F5001343EB020140EA1A
:1012E000D470294318EB0808644113E064084FEAFE
:1012F00038084FF0000244EAC0744FEA0553801AE0
:1013000061EB0301801841F5801149084FEA300074
:10131000801859414246234603B0BDE8F04FFFF71D
:1013200010BF0198012240000023D0EB020263EBC2
:10133000E07301984FEAE074381A66EB0401EBE7BA
:1013400083F000435CE781F0004159E72DE9FE4F4F
:1013500081EA030421F0004504F0004423F0004139
:101360004FF0000A009450EA050302D052EA01034C
:1013700004D10020014603B0BDE8F08FC1F30A5349
:10138000C5F30A541C44A0FB02B3C5F3130545F48E
:10139000801CC1F3130141F480180CFB023300FBE5
:1013A000083EA4F2F334810A930A41EA8C5143EADD
:1013B00088530194A1FB03474FEA9C2505FB037367
:1013C0004FEA982601FB06373D05260545EA143508
:1013D000BBEB06016EEB0503850E920E45EA8C15FC
:1013E00042EA8812A5FB0206261E67EB00070C0DD9
:1013F00044EA0334A41947EB1350C1F313064FF02A
:10140000000319464FEA033343EA165343EA040341
:10141000019CE5FB0201A4F10C040294009C4FEA3C
:101420000632CDE900A4FFF799FEA4E7C1F30A5202
:10143000C1F3130140F2FF3341F480119A4202DA02
:1014400000200146704740F233439A42A2F23342F1
:1014500002DC524200F037B800F026B830B500295F
:1014600004DB4FF00044404264EB0101002B04DB3D
:101470004FF00044524264EB0303994208BF90428C
:1014800030BD0000064C074D06E0E06840F0010367
:1014900094E8070098471034AC42F6D3FEF74EFEAE
:1014A000001E0000201E0000202A04DB203A00FA63
:1014B00002F1002070479140C2F1200320FA03F3AB
:1014C000194390407047202A04DB203A21FA02F0A9
:1014D0000021704721FA02F3D040C2F1200291406E
:1014E000084319467047202A06DBCB17203A41FAF9
:1014F00002F043EAE071704741FA02F3D040C2F1D2
:101500002002914008431946704700000FB4054B74
:1015100010B503A9044A029800F0C4F810BC5DF8A5
:1015200014FB0000EF0E00001800002002E008C8C5
:10153000121F08C1002AFAD170477047002001E04D
:1015400001C1121F002AFBD1704700002DE9FF5F87
:10155000DDE90210020DDDF838B001430FD10F981C
:1015600001244BA3012807D000980F9AC0E900314D
:10157000C0E90242BDE8FF9F6FEA0B01F4E7A2F267
:10158000FF3244F61050424315140F9801280ED034
:10159000A5EB0B00401C4FF000043E4EDFF8F89026
:1015A000B0F1000AA04605DACAF1000717E0CBF156
:1015B0000000F0E7074612E0F80707D0224633465E
:1015C00040464946FFF7C2FE8046894622463346DA
:1015D00010461946FFF7BAFE04460E467F10002F4C
:1015E000EAD1DDE90201BAF1000F42464B4602DAC8
:1015F000FFF7ACFE01E0FFF7E1FC04460E460022D7
:10160000264BFFF72BFF03D84FF0FF30014607E0D2
:101610000022234B20463146FFF7F2FDFFF706FF7D
:10162000102409E0002C0ADB0A220023FFF758FDF2
:10163000019B30321A55641E50EA0102F2D1641C3B
:10164000019AC4F1110314440F9A012A09D001220E
:10165000084301D15B450FDD4FF0000205F10105A4
:101660000DE0084303D1A3EB0B056D1E09E000203C
:101670004FF0110B0F9088E701DA00226D1E002A4F
:1016800083D000980F99C0E90231C0E9004571E7A5
:1016900030000000000024400000F03F0000F04354
:1016A0000000E03F2DE9FF4F95B006469A46894677
:1016B000002521E2252801D01799A6E00024F94948
:1016C0002746761C4FF0010803943278203A08FA36
:1016D00002F0084202D00443761CF6E730782A284C
:1016E00011D06FF02F023078A0F13001092916D8FF
:1016F000039944F0020401EB810102EB410108442B
:10170000761C0390EFE759F8041B0391002903DAD4
:10171000484244F40054039044F00204761C3078AC
:101720002E2816D116F8010F44F004042A280DD0F3
:101730006FF02F013078A0F13002092A09D807EBA9
:10174000870201EB42028718761CF3E759F8047B05
:10175000761C30786C280FD006DC4C2817D068280F
:101760000DD06A2814D104E0742810D07A280FD143
:101770000DE044F400140AE044F4801401E044F461
:1017800040147178814202D1761C04F58014761CD5
:1017900096F800C0BCF1660F10D01ADCBCF1580FEF
:1017A00070D00CDCBCF1000F6DD0BCF1450FF3D054
:1017B000BCF1460FF0D0BCF1470F24D1A4E1BCF13D
:1017C000630F40D0BCF1640F74D0BCF1650F1AD127
:1017D0009AE1BCF1700F6ED00CDCBCF1670FEDD05C
:1017E000BCF1690F75D0BCF16E0F12D0BCF16F0F58
:1017F00009D1B3E0BCF1730F2FD0BCF1750F76D0D7
:10180000BCF1780F74D017996046524690476D1C12
:1018100070E1C4F30250022809D003280DD0D9F892
:10182000001004280DD00D6009F1040962E1D9F817
:101830000010EA17C1E90052F6E7D9F800100D8050
:10184000F2E70D70F0E759F8041B8DF80010002046
:101850008DF80100EB46012003E059F804BB4FF07E
:10186000FF3061074FF0000102D40FE008F10101E1
:101870008846B94211DA8045F8DB1BF808100029C8
:10188000F4D10AE060E03BE108F1010188468142C1
:10189000FADB1BF808100029F6D103985346A0EB99
:1018A000080721463846179A00F091FA284400EBC1
:1018B000080506E00DE049E01BF8010B52461799B8
:1018C0009047B8F10108F7D2534621463846179A97
:1018D0000DE10A21C4F302524FF0000B0091022ADD
:1018E00007D059F8040BC117032A0AD00BE024E0F3
:1018F00025E009F1070020F00702F2E80201914615
:1019000005E000B2C117042A01D140B2C117002975
:1019100006DA0A460021404261EB02012D2202E074
:10192000220504D52B228DF80420012203E0E207D2
:1019300001D02022F7E7904654E00A2100E0102170
:101940004FF0000B00910DE0102008E010204FF048
:10195000000B44F004040827009003E008204FF037
:10196000000B0090C4F30252022A05D059F8040B70
:101970000021032A08D009E009F1070020F007023E
:10198000F2E80201914605E080B20021042A01D16B
:10199000C0B200214FF00008220723D5BCF1700F20
:1019A00028D0009B83F0100353EA0B0309D150EABF
:1019B000010206D030228DF804208DF805C00222E5
:1019C0009046009B83F0080353EA0B030AD150EAC8
:1019D000010201D1620705D530228DF804204FF0B5
:1019E00001087F1EBCF1580F09D02FA20C920CAA3F
:1019F000029211E040228DF804200122E0E72FA29C
:101A0000F4E75B46009AFFF76BFB0C9B9B5C029A2A
:101A1000A2F101020292137050EA0102F1D1029880
:101A200004A9A1EB000000F1200B600702D524F40B
:101A3000803400E001275F4502DDA7EB0B0000E0EA
:101A4000002000EB0B01009003984144A0EB010043
:101A50000390E00306D453462146179A039800F0FA
:101A6000B6F90544002706E001A85246C05D179963
:101A700090476D1C7F1C4745F6DBE0030CD55346B1
:101A80002146179A039800F0A2F9054404E030209B
:101A90005246179990476D1C0099481E00900029E6
:101AA000F5DC1EE009280100303132333435363799
:101AB000383961626364656600000000303132339A
:101AC000343536373839414243444546000000003A
:101AD0000298029952460078491C02911799904742
:101AE0006D1CBBF10001ABF1010BF1DC50E100F02A
:101AF0005BF9054406F10106307800287FF4DAAD81
:101B000019B02846BDE8F08F600700D4062709F118
:101B1000070020F00701F1E80220894600F00043A9
:101B2000190001D09DA109E0210501D59CA105E086
:101B3000E10701D09BA101E0AFF2840120F0004356
:101B40001391BCF1650F11D009DCBCF1450F0DD02C
:101B5000BCF1460F20D0BCF1470F3ED13EE0BCF1B6
:101B6000660F19D0BCF1670F7CD137E00021112F2F
:101B700001DB112000E0781CCDE9000104A90CA8CC
:101B8000FFF7E4FCDDE90D010C9A4FF0000B07F1C3
:101B90000108109200914CE04FF000400097CDE911
:101BA000018004A90CA8FFF7D1FCDDE90E20DDE9D6
:101BB0000C314FF0000B90461093009218B907F1CA
:101BC000010001EB0008B7EB080003D4C0F1FF3BB4
:101BD00007F10108A8EB0700019043E0012F00DAAC
:101BE00001270021112F01DD112000E03846CDE949
:101BF000000104A90CA8FFF7A9FCDDE90D010C9A6E
:101C000000914FF0000BB846109221070CD40099B8
:101C1000414500DA8846B8F1010F05DD109AA8F1B8
:101C20000101515C302908D0B84202DA10F1040FEA
:101C300006DA0121CDE9011014E0A8F10101E9E77C
:101C4000002803DC8344A8EB000102E0411C41456D
:101C500000DD8846A0EB0B0000F1010001904FF081
:101C600000400290200705D40198404502DB4FF068
:101C7000FF30019000208DF84B0002980DF14B07CA
:101C8000B0F1004F26D002200C902B200D9002982E
:101C900000280CDA404202902D200D9007E00A2126
:101CA0000298FFF707FA3031029007F8011D0C99EE
:101CB000481E0C900029F2DC02980028EFD1A7F111
:101CC00001010D980870307800F0200040F04500C8
:101CD00007F8020D11A8A0EB070000F10700029021
:101CE0001398007800B1012000EB0801019801EB86
:101CF000E071029801440398A0EB0100A0F10100FB
:101D00000390E00306D453462146179A039800F047
:101D10005EF805441398007820B152461799904711
:101D200005F10105E00322D553462146179A039891
:101D300000F04DF805441AE0BBF1000F07DB0098F6
:101D4000584504DD1098179910F80B0001E0179919
:101D500030205246904701986D1C401E0BF1010B3C
:101D6000019004D12E205246179990476D1CB8F16E
:101D70000001A8F10108DFDC05E017F8010B52466D
:101D8000179990476D1C0299481E02900029F4DCB7
:101D900053462146179A0398A9E600002D0000003B
:101DA0002B000000200000002DE9F0410446002532
:101DB00017461E46880405D406E039462020B04761
:101DC00005F10105641EF8D52846BDE8F0812DE92E
:101DD000F0410446002590461E46C80301D5302731
:101DE00000E02027880405D506E041463846B04784
:101DF00005F10105641EF8D52846BDE8F081000014
:101E0000201E0000000000201C0000002C15000017
:101E10003C1E00001C000020040400003C150000D3
:101E200000A24A0400A24A0400A24A0400A24A04F2
:0C1E3000010000000000000000000000A5
:0400000500000135C1
:00000001FF
