:020000040000FA
:1000000078060020790400007D0400007F040000D1
:10001000810400008304000085040000000000004B
:100020000000000000000000000000008704000045
:1000300089040000000000008B0400008D04000013
:100040008F0400008F0400008F0400008F04000064
:1000500000000000000000008F0400008F0400007A
:100060008F0400008F0400008F0400008F04000044
:100070008F0400008F0400008F0400008F04000034
:100080008F0400008F0400008F0400008F04000024
:10009000000000008F040000000000008F0400003A
:1000A0008F0400008F0400008F0400008F04000004
:1000B0008F0400008F0400008F0400008F040000F4
:1000C000000000008F040000000000008F0400000A
:1000D0008F0400008F0400008F0400008F040000D4
:1000E0008F040000000000008F0400008F04000057
:1000F0008F0400008F0400008F0400008F040000B4
:1001000000000000000000008F0400008F040000C9
:100110008F0400008F0400008F0400008F04000093
:100120008F0400008F0400008F0400008F04000083
:100130000000000000F002F800F03CF80AA090E88F
:10014000000C82448344AAF10107DA4501D100F092
:1001500031F8AFF2090EBAE80F0013F0010F18BF23
:10016000FB1A43F00103184734070000540700004E
:10017000103A24BF78C878C1FAD8520724BF30C8D3
:1001800030C144BF04680C607047000000230024A5
:1001900000250026103A28BF78C1FBD8520728BF97
:1001A00030C148BF0B6070471FB500F070FB1FBD2A
:1001B00010B510BD00F031FB1146FFF7F5FF00F060
:1001C000F3FA00F04FFB03B4FFF7F2FF03BC00F0BB
:1001D00057FB000000209849096F11F0030106D079
:1001E000012908D002290AD0032932D12EE09349EF
:1001F000934A11602DE09349914A116029E08E499C
:10020000096C11F0030106D001290ED0022916D085
:10021000032919D114E08849896801F01F01491C9C
:10022000864A5143864A11600EE08349896801F08D
:100230001F01491C834A5143814A116004E000BFF9
:1002400000217F4A116000BF00BF02E07C490860C6
:1002500000BF00BF7A4909687B4A11607649896FFF
:10026000774A1268B2FBF1F1754A11607749096863
:10027000C1F30221042905D1114609684908744ACD
:10028000116027E071490968C1F30221052905D1F0
:100290006B49096889086E4A11601BE06B4909685F
:1002A000C1F30221062905D165490968C908684AD0
:1002B00011600FE065490968C1F30221072905D1E2
:1002C0005F4909680909624A116003E05C490968ED
:1002D0005F4A11605D490968C1F3C221042905D153
:1002E0005749096849085B4A116027E0574909687E
:1002F000C1F3C221052905D1514909688908554A28
:1003000011601BE051490968C1F3C221062905D1DA
:100310004B490968C9084F4A11600FE04B49096809
:10032000C1F3C221072905D1454909680909494A8C
:10033000116003E042490968464A11607047002194
:10034000454A1160AA21444A0832116055211160C2
:100350000021424A1160AA219160552191604049D3
:1003600009684FF0FF314FF0E022C2F880123249A5
:10037000D1F8381221F480713A4A11604FF002012D
:100380002D4A11624FF0000001E000BF401CC82858
:10039000FBD30121284A516411640021516444F2C5
:1003A000490191602F49096821F08001C2F8381293
:1003B0004FF0000001E000BF401CC828FBD3032120
:1003C000294AD16001211C4A51670221116700218D
:1003D000516701219167254A1160174A5162114600
:1003E000D1F8381221F040011E4A116040F2FF118D
:1003F000114AC2F884101146D1F8881041F000511A
:10040000C2F888101146D1F8381221F01001154AAF
:10041000116041F24801164A116040F2FF1102F1E9
:100420000402116041F24801124A116040F2FF11CA
:1004300002F104021160704700100240005A62028B
:100440000000002000127A000400002094100240F6
:10045000080000200C000020002C0040003000406C
:1004600080E200E038120240002002409810024072
:10047000007400401074004008480047FEE7FEE7A3
:10048000FEE7FEE7FEE7FEE7FEE7FEE7FEE7FEE744
:1004900003480449044A054B704700003501000039
:1004A00078000020780600207802002078020020E2
:1004B00030B5AE4C2468AE4DAC4207D2AD4CE46FC3
:1004C00024F0FF04641CAB4DEC6720E0A74C2468CB
:1004D000A94DAC4207D2A74CE46F24F0FF04A41C42
:1004E000A44DEC6713E0A14C2468A44DAC4207D2A4
:1004F000A04CE46F24F0FF04E41C9E4DEC6706E082
:100500009C4CE46F24F0FF04241D9A4DEC679C4C36
:10051000A04209D19B4C246824F4007404F50074B3
:10052000944DC5F8844018E0974CA04209D1954CF1
:10053000246824F4806404F580648E4DC5F88440FA
:100540000BE0924CA04208D18E4C246824F4004465
:1005500004F50044874DC5F88440046824F08044C5
:100560000460874CA04210D1894C246824F40074A4
:1005700004F500747F4DC5F88C402C46D4F88C40AF
:1005800024F40074C5F88C4026E07F4CA04210D1C2
:100590007F4C246824F4806404F58064754DC5F8AC
:1005A0008C402C46D4F88C4024F48064C5F88C40F0
:1005B00012E0764CA0420FD1754C246824F400441C
:1005C00004F500446B4DC5F88C402C46D4F88C40A3
:1005D00024F40044C5F88C406E4CA14200D9214659
:1005E0000901624C2468B4FBF1F4624DED6FEDB289
:1005F000B4FBF5F202FB01F45C4D2D68AC4206D071
:10060000654C5443594D2D68AC4200D2521C0468CD
:1006100062F30F240460FF2300BF1C00A3F1010359
:10062000FBD1046824F4803404F580340460046849
:1006300024F0005404F100540460046824F0FF0422
:10064000641C046000BF046BC4F34054002CFAD057
:1006500030BD0021C160491E0163016821F0804165
:1006600001F1804101600021424AD1677047F0B535
:100670000C46002500210CE00F278F40174027FA79
:1006800001F606FA01F73D43076864F307070760C0
:10069000091D2029F0D38560076827F000570760FF
:1006A000012B03D1076827F070670760076863F3C1
:1006B00010470760076827F0005707F100570760E9
:1006C0002BB900BF076BC7F34057002FFAD0F0BD1E
:1006D000036861F31B630360036862F31C730360C8
:1006E00000BF036BC3F34053002BFAD07047436B3A
:1006F00061F30B0343630F2A00D10022436B62F3C3
:100700000E3343637047436B61F31B4343630F2A0C
:1007100000D10022436B62F31E7343637047836B07
:1007200061F30B0383630F2A00D10022836B62F312
:100730000E3383637047836B61F31B4383630F2A1C
:1007400000D10022836B62F31E7383637047C16024
:10075000704702460B4600BF02F1100050F823100C
:1007600011F0004FF8D0C1F30B0070470C000020CF
:10077000002D310100100240005A620200879303ED
:10078000002401408410024000280140003C014048
:100790008C10024040420F000024F40000BF010012
:1007A000A0F10100FBD17047FFF7C9FDFFF712FD73
:1007B00007201449086014491448FFF779FE002205
:1007C00001211248FFF784FF00231A4601210F4838
:1007D000FFF74DFF4FF6FF70FFF7E0FF11E00B480A
:1007E0004030006820F00100401C0849403108609A
:1007F000FF20FFF7D3FF00210448FFF7AAFF0449B9
:100800000880ECE70000014020A10700002401401F
:1008100010000020704770477047754600F028F8B8
:10082000AE4605006946534620F00700854618B0DD
:1008300020B5FFF72DFEBDE820404FF000064FF039
:1008400000074FF000084FF0000B21F00701AC4605
:10085000ACE8C009ACE8C009ACE8C009ACE8C00924
:100860008D4670470446AFF300802046FFF7ABFC8F
:10087000004870471400002000487047180000200E
:1008800001491820ABBEFEE726000200704710B5F4
:10089000FFF7F2FF4FF00001016010BDBC0800003F
:1008A000000000201400000070010000D0080000CB
:1008B00014000020640600008C01000000A24A041D
:1008C00000A24A0400A24A0400A24A040000000058
:0400000500000135C1
:00000001FF
