:020000040000FA
:100000008804002085040000890400008B0400009F
:100010008D0400008F040000910400000000000027
:100020000000000000000000000000009304000039
:10003000950400000000000097040000C5010000C6
:100040009B0400009B0400009B0400009B04000034
:1000500000000000000000002F2700004D270000D6
:100060006B27000089270000A72700009B040000E1
:100070009B0400009B0400009B0400009B04000004
:100080009B0400009B0400009B0400009B040000F4
:10009000000000009B04000000000000C5270000D5
:1000A0009B0400009B0400009B0400009B040000D4
:1000B0009B0400009B0400009B0400000B2900002F
:1000C0000000000015290000000000008728000043
:1000D0009D2800005D26000097260000D126000024
:1000E000E3270000000000009B0400009B040000C8
:1000F0009B0400009B0400009B0400009B04000084
:1001000000000000000000009B0400009B040000B1
:100110009B0400009B0400009B0400009B04000063
:100120009B0400009B0400009B0400009B04000053
:1001300000000000DFF80CD002F066FF0048004726
:100140005D2200008804002030B520480068204A65
:10015000B0FBF2F1B1F1807F01D301201DE021F06D
:100160007F40401E4FF0E0225061501707220028C8
:1001700007DA53071D0E174B00F00F04241F1D55FF
:1001800003E053071C0E144B1C5400BF00204FF01B
:10019000E022906107201061002008B100BFFEE757
:1001A00030BD0E49086000BF0C4909680029FBD129
:1001B00070470A48006820B108480068401E074997
:1001C0000860704700B5FFF7F4FF00BD0400002091
:1001D00040420F0018ED00E000E400E000000020C5
:1001E00000209849096F11F0030106D0012908D0B9
:1001F00002290AD0032932D12EE09349934A116093
:100200002DE09349914A116029E08E49096C11F063
:10021000030106D001290ED0022916D0032919D1D5
:1002200014E08849896801F01F01491C864A51433E
:10023000864A11600EE08349896801F01F01491C5C
:10024000834A5143814A116004E000BF00217F4A84
:10025000116000BF00BF02E07C49086000BF00BF22
:100260007A4909687B4A11607649896F774A126832
:10027000B2FBF1F1754A116077490968C1F30221B7
:10028000042905D1114609684908744A116027E01C
:1002900071490968C1F30221052905D16B49096833
:1002A00089086E4A11601BE06B490968C1F302219D
:1002B000062905D165490968C908684A11600FE037
:1002C00065490968C1F30221072905D15F49096819
:1002D0000909624A116003E05C4909685F4A1160DC
:1002E0005D490968C1F3C221042905D1574909684C
:1002F00049085B4A116027E057490968C1F3C221E8
:10030000052905D1514909688908554A11601BE042
:1003100051490968C1F3C221062905D14B49096831
:10032000C9084F4A11600FE04B490968C1F3C22167
:10033000072905D1454909680909494A116003E0BF
:1003400042490968464A116070470021454A1160D8
:10035000AA21444A08321160552111600021424A05
:100360001160AA21916055219160404909684FF0C0
:10037000FF314FF0E022C2F880123249D1F8381232
:1003800021F480713A4A11604FF002012D4A116246
:100390004FF0000001E000BF401CC828FBD3012142
:1003A000284A516411640021516444F2490191606A
:1003B0002F49096821F08001C2F838124FF000007F
:1003C00001E000BF401CC828FBD30321294AD160AB
:1003D00001211C4A51670221116700215167012147
:1003E0009167254A1160174A51621146D1F83812B7
:1003F00021F040011E4A116040F2FF11114AC2F87B
:1004000084101146D1F8881041F00051C2F88810CC
:100410001146D1F8381221F01001154A116041F24D
:100420004801164A116040F2FF1102F10402116006
:1004300041F24801124A116040F2FF1102F1040238
:100440001160704700100240005A62020400002050
:1004500000127A0008000020941002400C000020D6
:1004600010000020002C00400030004080E200E03E
:1004700038120240002002409810024000740040F0
:100480001074004005480047FEE7FEE7FEE7FEE780
:10049000FEE7FEE7FEE7FEE7FEE7FEE735010000C8
:1004A00030B5AE4C2468AE4DAC4207D2AD4CE46FD3
:1004B00024F0FF04641CAB4DEC6720E0A74C2468DB
:1004C000A94DAC4207D2A74CE46F24F0FF04A41C52
:1004D000A44DEC6713E0A14C2468A44DAC4207D2B4
:1004E000A04CE46F24F0FF04E41C9E4DEC6706E092
:1004F0009C4CE46F24F0FF04241D9A4DEC679C4C47
:10050000A04209D19B4C246824F4007404F50074C3
:10051000944DC5F8844018E0974CA04209D1954C01
:10052000246824F4806404F580648E4DC5F884400A
:100530000BE0924CA04208D18E4C246824F4004475
:1005400004F50044874DC5F88440046824F08044D5
:100550000460874CA04210D1894C246824F40074B4
:1005600004F500747F4DC5F88C402C46D4F88C40BF
:1005700024F40074C5F88C4026E07F4CA04210D1D2
:100580007F4C246824F4806404F58064754DC5F8BC
:100590008C402C46D4F88C4024F48064C5F88C4000
:1005A00012E0764CA0420FD1754C246824F400442C
:1005B00004F500446B4DC5F88C402C46D4F88C40B3
:1005C00024F40044C5F88C406E4CA14200D9214669
:1005D0000901624C2468B4FBF1F4624DED6FEDB299
:1005E000B4FBF5F202FB01F45C4D2D68AC4206D081
:1005F000654C5443594D2D68AC4200D2521C0468DE
:1006000062F30F240460FF2300BF1C00A3F1010369
:10061000FBD1046824F4803404F580340460046859
:1006200024F0005404F100540460046824F0FF0432
:10063000641C046000BF046BC4F34054002CFAD067
:1006400030BD0021C160491E0163016821F0804175
:1006500001F1804101600021424AD1677047F0B545
:100660000C46002500210CE00F278F40174027FA89
:1006700001F606FA01F73D43076864F307070760D0
:10068000091D2029F0D38560076827F0005707600F
:10069000012B03D1076827F070670760076863F3D1
:1006A00010470760076827F0005707F100570760F9
:1006B0002BB900BF076BC7F34057002FFAD0F0BD2E
:1006C000036861F31B630360036862F31C730360D8
:1006D00000BF036BC3F34053002BFAD07047436B4A
:1006E00061F30B0343630F2A00D10022436B62F3D3
:1006F0000E3343637047436B61F31B4343630F2A1D
:1007000000D10022436B62F31E7343637047836B17
:1007100061F30B0383630F2A00D10022836B62F322
:100720000E3383637047836B61F31B4383630F2A2C
:1007300000D10022836B62F31E7383637047C16034
:10074000704702460B4600BF02F1100050F823101C
:1007500011F0004FF8D0C1F30B00704710000020DB
:10076000002D310100100240005A620200879303FD
:10077000002401408410024000280140003C014058
:100780008C10024040420F000024F400026A8A43A9
:100790000262704701627047C2680A43C2607047D4
:1007A00002690A430261704742690A434261704725
:1007B00002465068084201D0012070470020FCE743
:1007C0000146486880B2704702680A430260704779
:1007D00002688A43026070470146486880B27047E9
:1007E0008160704770B505460C461646012E07D14C
:1007F000BC48006840EA0400BB49C1F8000206E0BA
:10080000B848006820EA0400B749C1F80002B748B8
:10081000854207D1B348006820F46020B249C1F88E
:1008200000024CE0B248854209D1AE48006820F48D
:10083000602000F50030AC49C1F800023FE0AD484F
:10084000854209D1A748006820F4602000F5802087
:10085000A549C1F8000232E0A748854209D1A14864
:10086000006820F4602000F5C0209F49C1F8000214
:1008700025E0A248854209D19A48006820F460200A
:1008800000F500209849C1F8000218E09C48854214
:1008900009D19448006820F4602000F52020924996
:1008A000C1F800020BE09648854208D18D480068E7
:1008B00020F4602000F540208B49C1F800028948EF
:1008C000006820F4803000F580308749C1F80002CC
:1008D000012C03D1062000F0EFF868E0022C03D1D0
:1008E000072000F0E9F862E0042C03D1082000F0B2
:1008F000E3F85CE0082C03D1092000F0DDF856E0B5
:10090000102C03D10A2000F0D7F850E0B4F5007F96
:1009100001D1012000E00020B4F5807F01D1012148
:1009200000E000210843802C01D1012100E00021DA
:100930000843402C01D1012100E000210843202C74
:1009400001D1012100E00021084303D0172000F06D
:10095000B3F82CE0B4F5004F01D1012000E00020F5
:10096000B4F5804F01D1012100E000210843B4F526
:10097000005F01D1012100E000210843B4F5805F50
:1009800001D1012100E000210843B4F5006F01D13D
:10099000012100E000210843B4F5806F01D101215D
:1009A00000E00021084302D0282000F085F85548D7
:1009B000046070BD544A126842EA01024A4BC3F80F
:1009C0000822704770B505460C464E48006820EA7C
:1009D00004004549C1F80402012C03D1062000F0AF
:1009E00077F868E0022C03D1072000F071F862E08C
:1009F000042C03D1082000F06BF85CE0082C03D134
:100A0000092000F065F856E0102C03D10A2000F010
:100A10005FF850E0B4F5007F01D1012000E0002034
:100A2000B4F5807F01D1012100E000210843802C32
:100A300001D1012100E000210843402C01D1012116
:100A400000E000210843202C01D1012100E0002119
:100A5000084303D0172000F03BF82CE0B4F5004F1A
:100A600001D1012000E00020B4F5804F01D1012127
:100A700000E000210843B4F5005F01D1012100E04E
:100A800000210843B4F5805F01D1012100E000217D
:100A90000843B4F5006F01D1012100E000210843B3
:100AA000B4F5806F01D1012100E00021084302D09C
:100AB000282000F00DF870BD00F01F0201219140C8
:100AC00042094FF0E02303EB8202C2F800117047A5
:100AD00000F01F02012191400C4A430942F8231003
:100AE0007047000000120240001002400008014060
:100AF000000C0140001001400014014000180140AA
:100B0000001C0140041202400812024080E100E093
:100B10008160704710B503460C46002204E0995CE2
:100B2000FA48FFF7F5FF521CA242F8D310BD2DE999
:100B3000F04104460D4616461F46F548844218D13A
:100B4000F448006820F4001000F50010F249C1F8E4
:100B500090000846D0F8900020F40010C1F89000F2
:100B6000EE48006820F4001000F50010C1F888007D
:100B70001AE0E648844217D1E648006820F4800075
:100B800000F58000E449C1F890000846D0F89000D4
:100B900020F48000C1F89000E048006820F4800054
:100BA00000F58000C1F888004FF0FF00A0614FF40D
:100BB000FA6006FB00F0DA490968B1FBF0F1206940
:100BC00061F30F0020614FF4FA6006FB00F0D44996
:100BD0000968B1FBF0F1606961F30F00606105B96C
:100BE000E76015B14220206003E00020A0604020B3
:100BF0002060C748844203D11F2000F009FD05E0B2
:100C0000C248844202D1212000F002FDBDE8F081FB
:100C10000146486880B27047024610680840704735
:100C2000016070478161704701468868C0B27047B3
:100C300070B50346B648834201D1BA4A00E0BA4AC9
:100C40001846FFF7E5FF0446002000B950B1102117
:100C50001846FFF7E5FF0C20107429211846FFF70E
:100C6000E1FF70BD186810F0020F72D024F4E86440
:100C7000E0B2102831D004DC012807D00B2869D15C
:100C800039E0142868D01D28F9D19AE0506A01286B
:100C900010D100205062D0611078401CC1B21846BB
:100CA000FFF736FF106A401C106229211846FFF733
:100CB000B9FF11E000201062D06101211846FFF752
:100CC000AFFF11781846FFF723FF106A401C10622F
:100CD00028211846FFF7A6FFA6E00020D061156A7C
:100CE000681C1062515D1846FFF712FF2821184654
:100CF000FFF798FF98E0186800F00100012815D16F
:100D00009069012806D110211846FFF789FF0720B6
:100D1000107406E0156A681C1062515D1846FFF7F2
:100D2000F7FE08211846FFF77DFF11E0D069401C4F
:100D30005169884204D204211846FFF771FF03E08D
:100D400004211846FFF76EFF28211846FFF76AFFB7
:100D50006AE06AE061E0FFE79169106A884207D2C1
:100D6000156A681C1062515D1846FFF7D1FE23E03A
:100D70005069D8B100205062D06192F8280050B17B
:100D80001078401CC1B21846FFF7C2FE2021184659
:100D9000FFF746FF05E01078401CC1B21846FFF788
:100DA000B7FE09211846FFF73DFF3DE01021184628
:100DB000FFF736FF0C20107408211846FFF732FFAA
:100DC00032E01846FFF730FFD569691CD16102F1A6
:100DD00008014855D069401C5169884208D2042155
:100DE0001846FFF71DFF08211846FFF71BFF13E009
:100DF000186800F00400042804D10C211846FFF7FD
:100E000011FF09E00C20107410211846FFF708FFAD
:100E100008211846FFF706FF06E00A201074082193
:100E20001846FFF7FFFE00BF54E014F4807F33D074
:100E30004FF4807098611846FFF7F6FE05460020D3
:100E40001062D061D868A84203D1002082F829003E
:100E500013E0186AA84203D1012082F829000CE0AF
:100E6000586AA84203D1022082F8290005E0986A56
:100E7000A84202D1032082F82900002605E02B4871
:100E8000815D02F108008155761C082EF7DB0820F1
:100E900050610020D0611AE014F4007F07D00020D8
:100EA0009968C8B2166A711C116290550FE014F46B
:100EB000806F0CD0D169481CD06102F10800405C01
:100EC00098605169D069884201D30020D061282000
:100ED000986100BF00BFC4E670B503460C4883426A
:100EE00001D1104A00E0104A1846FFF791FE04466F
:100EF000002000B9E0B110211846FFF791FE0C2048
:100F0000107429211846FFF78DFE70BD005800406F
:100F1000005400409010024000100240881002402F
:100F200004000020300000205C000020140000209D
:100F3000186810F0020F72D024F4E864E0B21028B0
:100F400031D004DC012807D00B2869D139E01428FE
:100F500068D01D28F9D19AE0506A012810D10020EC
:100F60005062D0611078401CC1B21846FFF7D0FD26
:100F7000106A401C106229211846FFF753FE11E049
:100F800000201062D06101211846FFF749FE117858
:100F90001846FFF7BDFD106A401C10622821184654
:100FA000FFF740FEA6E00020D061156A681C1062C1
:100FB000515D1846FFF7ACFD28211846FFF732FEB9
:100FC00098E0186800F00100012815D19069012807
:100FD00006D110211846FFF723FE0720107406E003
:100FE000156A681C1062515D1846FFF791FD0821D3
:100FF0001846FFF717FE11E0D069401C516988427E
:1010000004D204211846FFF70BFE03E00421184622
:10101000FFF708FE28211846FFF704FE6AE06AE0A1
:1010200061E0FFE79169106A884207D2156A681C7F
:101030001062515D1846FFF76BFD23E05069D8B18F
:1010400000205062D06192F8280050B11078401C06
:10105000C1B21846FFF75CFD20211846FFF7E0FDFE
:1010600005E01078401CC1B21846FFF751FD092178
:101070001846FFF7D7FD3DE010211846FFF7D0FDD9
:101080000C20107408211846FFF7CCFD32E01846FA
:10109000FFF7CAFDD569691CD16102F10801485505
:1010A000D069401C5169884208D204211846FFF7D4
:1010B000B7FD08211846FFF7B5FD13E0186800F0EA
:1010C0000400042804D10C211846FFF7ABFD09E009
:1010D0000C20107410211846FFF7A2FD08211846B5
:1010E000FFF7A0FD06E00A20107408211846FFF75C
:1010F00099FD00BF46E014F4807F25D04FF4807046
:1011000098611846FFF790FD054600201062D061F7
:10111000D868A84203D1002082F829002FE0186A7D
:10112000A84203D1012082F8290028E0586AA84289
:1011300003D1022082F8290021E0986AA8421ED13A
:10114000032082F829001AE014F4007F07D0002061
:101150009968C8B2166A711C116290550FE014F4B8
:10116000806F0CD0D169481CD06102F10800405C4E
:1011700098605169D069884201D30020D06128204D
:10118000986100BF00BFC0E670B50346F8488342CF
:1011900001D1F84A00E0F84A1846FFF739FD044645
:1011A000002000B950B110211846FFF739FD0C207E
:1011B000107429211846FFF735FD70BD186810F02E
:1011C000020F72D024F4E864E0B2102831D004DCBD
:1011D000012807D00B2869D139E0142868D01D28D0
:1011E000F9D19AE0506A012810D100205062D061F4
:1011F0001078401CC1B21846FFF78AFC106A401CE8
:10120000106229211846FFF70DFD11E00020106241
:10121000D06101211846FFF703FD11781846FFF74A
:1012200077FC106A401C106228211846FFF7FAFC70
:10123000A6E00020D061156A681C1062515D184656
:10124000FFF766FC28211846FFF7ECFC98E01868C9
:1012500000F00100012815D19069012806D1102164
:101260001846FFF7DDFC0720107406E0156A681CBD
:101270001062515D1846FFF74BFC08211846FFF736
:10128000D1FC11E0D069401C5169884204D204218C
:101290001846FFF7C5FC03E004211846FFF7C2FC1F
:1012A00028211846FFF7BEFC6AE06AE061E0FFE72C
:1012B0009169106A884207D2156A681C1062515DF4
:1012C0001846FFF725FC23E05069D8B10020506292
:1012D000D06192F8280050B11078401CC1B2184675
:1012E000FFF716FC20211846FFF79AFC05E010785E
:1012F000401CC1B21846FFF70BFC09211846FFF746
:1013000091FC3DE010211846FFF78AFC0C20107478
:1013100008211846FFF786FC32E01846FFF784FCE8
:10132000D569691CD16102F108014855D069401C9A
:101330005169884208D204211846FFF771FC082140
:101340001846FFF76FFC13E0186800F0040004284B
:1013500004D10C211846FFF765FC09E00C2010743D
:1013600010211846FFF75CFC08211846FFF75AFCCD
:1013700006E00A20107408211846FFF753FC00BF4E
:1013800055E014F4807F34D000264FF480709861CB
:101390001846FFF749FC054600201062D061D86866
:1013A000A84203D1002082F8290013E0186AA8425D
:1013B00003D1012082F829000CE0586AA84203D129
:1013C000022082F8290005E0986AA84202D1032091
:1013D00082F82900002605E06848815D02F10800D6
:1013E0008155761C082EF7DB082050610020D06163
:1013F0001AE014F4007F07D000209968C8B2166A7A
:10140000711C116290550FE014F4806F0CD0D169FB
:10141000481CD06102F10800405C98605169D069B5
:10142000884201D30020D0612820986100BF00BF0E
:10143000C3E6F0B504460D4616464D48844201D138
:101440004C4A00E04C4A157056709370002082F8A8
:10145000280050610320906120212046FFF7E0FB27
:101460000020107400BF107C0C28FCD1FF2700BFA7
:101470003800A7F10101CFB2FAD1F0BD2DE9F0415A
:1014800004460D4617469846069E3948844201D1C7
:10149000384A00E0384A15705770002305E018F804
:1014A0000310981C1154581CC3B2B342F7DB002040
:1014B00082F828005061B01C906120212046FFF77F
:1014C000AFFB0020107400BF107C0C28FCD1FF2360
:1014D00000BF1800A3F10101CBB2FAD1BDE8F08141
:1014E00070B503460C4615462148834201D1214A76
:1014F00000E0214A14705570022090610120506173
:1015000082F8280020211846FFF78AFB002010747B
:1015100000BF107C0C28FCD1FF2600BF3000A6F1D4
:101520000101CEB2FAD1107A70BD2DE9F041054625
:101530000E4617461C46DDF818800D48854201D13D
:101540000C4A00E00C4A16705770022090615461FA
:10155000012082F8280020212846FFF761FB0020A7
:10156000107400BF107C0C28FCD100230FE0000099
:1015700000540040300000205C00002014000020D7
:1015800002F10800C05C08F80300581CC3B2A34273
:10159000F6DB002305E0002102F10800C154581CCD
:1015A000C3B2A342F7DBFF2300BF1800A3F1010180
:1015B000CBB2FAD1BDE8F08170B503460C461A48AB
:1015C000834201D1194900E019490C700220886159
:1015D0004A61012081F828000020087400BF087CBF
:1015E0000C28FCD1FF2500BF2800A5F10106F5B2AB
:1015F000FAD1087A70BD10B503460B4CA34201D155
:101600000A4800E00A48002484614261447410BD25
:1016100000F01F020121914042094FF0E02303EB4B
:101620008202C2F8001170470054004030000020D0
:101630005C00002070B5049C7C4DA84209D17C4D13
:101640002D6825F4805505F580557A4EC6F88450EE
:1016500018E0794DA84209D1784D2D6825F48045D0
:1016600005F58045734EC6F888500BE0744DA842CE
:1016700008D1724D2D6825F4004505F500456D4EE5
:10168000C6F88850056861F305150560056862F3C2
:101690000305056023B9456825F00405456004E0AD
:1016A000456825F004052D1D4560056864F3861521
:1016B00005606610056866F3C7150560456825F086
:1016C0000205AD1C456070BD5849884207D1584994
:1016D000096821F48051574AC2F8841014E0564931
:1016E000884207D15549096821F48041514AC2F81E
:1016F000881009E05249884206D15049096821F40E
:1017000000414C4AC2F8881070470A464D4B1B688E
:10171000B3FBF2F14368C3F380031BB10C2904D27D
:101720000C2102E0072900D20721036961F30703B6
:101730000361704700BFC168C1F300010029FAD0FE
:10174000016A21F00201891C0162016A21F0020193
:101750000162704700BFC268C2F30002002AFAD0DB
:10176000026A22F00202921C0262026A22F0020263
:1017700002620B88826863F30F02826000BFC26856
:10178000C2F30002002AFAD082680A80704710B5BE
:1017900007E00C88836864F30F03836013785B1E93
:1017A0001370C368C3F3400313B11378002BF0D157
:1017B00010BD03E0836821F8023B521EC368C3F3E7
:1017C000800313B11378002BF4D17047016A70477E
:1017D00042690A434261704742698A4342617047E5
:1017E000416821F01001103141607047416821F0DB
:1017F000100141607047826861F30F028260704798
:101800000146C86800F01100012801D0012070478E
:101810000020FCE700BFC168C1F380010029FAD0B5
:1018200070470146886880B2704700000030014070
:10183000841002400010024000380040881002402E
:10184000003C00400400002010B5FEF77EFDF74884
:101850000068F7498862FF20F649086010BD10B59E
:101860000446F348406F20F00300401CF0494867ED
:101870002CB90846006F20F00300086708E0032C2D
:1018800006D1EB48006F20F00300801CE849086790
:10189000E748406F20F00300E5494867FEF7A0FCE9
:1018A00010BD10B50446E248806F64F30700E049BC
:1018B0008867FEF795FC10BD30B9DD49496A21F40F
:1018C0008051DB4A516209E0032807D1D849496AAF
:1018D00021F4805101F58051D54A516270470528A5
:1018E0000ED2DFE800F0030905070B00002008E036
:1018F000012006E0022004E0032002E0042000E0D2
:10190000704700BFCC49096821F0010101F10101D4
:10191000C74AC2F8E4101146D1F8E01060F30201A2
:10192000C2F8E0101146D1F8E41021F00101C2F82C
:10193000E41000BFE4E7C149096860F30701BC4A4D
:10194000C2F8E810704740F23120BD490860704786
:10195000BA48006820F0FF00B549C1F8E8004FF42C
:101960000C70B74908607047B649096860F3070111
:10197000AF4AC2F84C117047B349096841EA000107
:10198000AB4AC2F838127047AF49096821EA000132
:10199000A74AC2F838127047AC49096841EA000109
:1019A000A34AC2F880101146D1F8841041EA000120
:1019B000C2F884101146D1F8881041EA0001C2F83B
:1019C00088107047A149096821EA0001984AC2F8C5
:1019D000801070479E49096821EA0001944AC2F8C4
:1019E0008C101146D1F88C1041EA0001C2F88C101D
:1019F0001146D1F8901021EA0001C2F8901011466A
:101A0000D1F8901041EA0001C2F89010704700BF71
:101A10009048006800F4E0608F490843001D8D493C
:101A20000860BFF3408F00BF00BFFEE7012809D167
:101A30008A49096821F0100101F110017C4AC2F8BD
:101A400050110EE08549096821F01001784AC2F86A
:101A500050118249096821F0400101F14001C2F8AA
:101A6000501170477248006B7047FF20704908633F
:101A700070477B48006820F002007949086075488B
:101A8000001D006820F004007249091D086030BF85
:101A9000704730B50A467349086042B9A1F10401A4
:101AA000096821EA0001624BC3F8001201E06E49A7
:101AB00008604FF006014FF0010303FA01F34FEA0B
:101AC00051144FF0E02505EB8404C4F8003100BF49
:101AD00030BD00206349086040F6FF705449C1F8EA
:101AE0000802704710B5584B1B68C3F3801363B1ED
:101AF000554B1B6823F040034D4CC4F8383200BFEF
:101B0000134602F10102FF2BFAD3584B1860484BE1
:101B1000C3F834125B6F23F0030303F10103444C59
:101B2000636723461B6F23F0030303F1020323675C
:101B300023465B6F23F003036367494B1B6823F065
:101B4000020303F10203464C2360494B1B6843F038
:101B50000403474C236030BF00BF00BF00BF00BF7D
:101B600000BF334B5B6F23F0030303F10103304CE1
:101B7000636723461B6F23F00303236723465B6FD2
:101B800023F00303636710BD10F0200F07D037491F
:101B9000096821F02001264AC2F8301208E03349D2
:101BA000096821F0200101F12001214AC2F8301218
:101BB0002E49096821F0080101F108011C4AC2F808
:101BC00030122A49096821F0400101F14001C2F8B0
:101BD00030122349096821F0020101F10201204A73
:101BE00011602349096841F00401214A116030BFA6
:101BF000704701607047016821F0080101600168C9
:101C000021F01001103101607047016821F01001CE
:101C10000160016821F00801083101607047016826
:101C200021F4006101F50061016070471814FF1F85
:101C30000010024074110240E4100240E81002401B
:101C4000A00001404C1102403812024080100240B6
:101C50008C1002400CED00E00000FA05501102402B
:101C60000070004004120240001202403012024094
:101C700010ED00E0016821F4006101607047000090
:101C80002DE9F04104460F4616461D46B948006846
:101C900020F0FF0000F10100B749C1F89800B748F3
:101CA00084421BD1252000F05CF9B548006820F47F
:101CB000804000F58040B049C1F88400B148006818
:101CC00020F4804000F58040C1F88C000846D0F830
:101CD0008C0020F48040C1F88C003FE0AA48844288
:101CE0001BD1262000F03DF9A848006820F4003000
:101CF00000F50030A049C1F88800A548006820F42C
:101D0000003000F50030C1F890000846D0F890008F
:101D100020F40030C1F8900020E09E4884421BD19E
:101D2000272000F01EF99948006820F4802000F573
:101D300080209149C1F888009548006820F48020EF
:101D400000F58020C1F890000846D0F8900020F4FB
:101D50008020C1F8900001E0BDE8F0818E48006865
:101D6000B0FBF7F1206961F313002061022E05D169
:101D7000A06820F4807000F58070A0602EB1A0688B
:101D800020F4007000F50070A060022D04D1A0685E
:101D900020F00200801CA060202D04D1A06820F05B
:101DA00020002030A060082D04D1A06820F0080099
:101DB0000830A060A06820F4000000F50000A060DA
:101DC000A06820F4800000F58000A060FF20606122
:101DD00000BFC1E7C16841F0FF01C1607047816881
:101DE00021F0FF018160704710B5044663488442CA
:101DF0000AD1252000F0B5F86148006820F4804041
:101E00005D49C1F884001CE05F4884420AD1262065
:101E100000F0A7F85D48006820F400305649C1F88A
:101E200088000EE05B4884420AD1272000F099F830
:101E30005648006820F480204F49C1F8880000E02F
:101E400010BD2046FFF7CBFF2046FFF7C3FF00BFC2
:101E5000F6E702465068C0F3400018B110680870F9
:101E6000002070470120FCE730B5002304E004683F
:101E700001F8014B5C1CE3B24468C4F3400424B194
:101E800015786C1E1470002DF1D1137030BD024610
:101E90005068C0F3800008B101207047106861F3FA
:101EA000070010600020F8E710B503465868C0F33B
:101EB000800008B9102A01D3012010BD05E011F8F7
:101EC000014B186864F3070018601000A2F10102CA
:101ED000F5D100BFF1E710B50BE000BF4368C3F3D5
:101EE0008003002BFAD111F8014B036864F3070358
:101EF00003601300A2F10102EFD110BD08E000BFA2
:101F00004268C2F38002002AFAD111F8012B026064
:101F10000A78002AF3D170470A4600BF02F00F0189
:101F2000092903DD01F13703D9B202E001F13003E1
:101F3000D9B200BF4368C3F38003002BFAD1036812
:101F400061F3070303601309E8D0704782680A430E
:101F50008260704701464868C0B27047FF21416106
:101F6000704700F01F02012191400C4A430942F8DA
:101F700023107047981002400010024000380140C2
:101F8000841002408C10024000440040881002403F
:101F900090100240004800400800002080E100E06E
:101FA000014600E0491E0029FCDC704770B505467B
:101FB0000E4600BF31462846FEF7C3FB044640F2FA
:101FC0004D10604340F6FF71B0FBF1F4204670BD48
:101FD0002DE9F04100BFF548006820F00100401CE9
:101FE000F2490860FF20FFF7DBFFF1A001F050F895
:101FF0000021EE484038FFF7D9FFFA49086008464B
:10200000006800F00CFE06460022F74B00F098FD39
:1020100004460D4622462B46F4A001F039F8FE484E
:10202000FFF7BEFFFC48FFF7BBFF0121DF48403848
:10203000FFF7BCFFEB4908600846006800F0EFFDC1
:1020400006460022E84B00F07BFD04460D46224682
:102050002B46F2A001F01CF8EF48FFF7A1FFEE4875
:10206000FFF79EFF0221D1484038FFF79FFFDD496F
:1020700008600846006800F0D2FD06460022DA4BF0
:1020800000F05EFD04460D4622462B46EEA000F011
:10209000FFFFE148FFF784FFDF48FFF781FF0321DF
:1020A000C2484038FFF782FFCE4908600846006802
:1020B00000F0B5FD06460022CB4B00F041FD044682
:1020C0000D4622462B46EBA000F0E2FFD248FFF778
:1020D00067FFD148FFF764FF0421B4484038FFF799
:1020E00065FFC04908600846006800F098FD064694
:1020F0000022BD4B00F024FD04460D4622462B462F
:10210000E7A000F0C5FFC448FFF74AFFC248FFF749
:1021100047FF0521A5484038FFF748FFB14908604F
:102120000846006800F07BFD06460022AE4B00F03A
:1021300007FD04460D4622462B46E4A000F0A8FF0A
:10214000B548FFF72DFFB448FFF72AFF062197484F
:102150004038FFF72BFFA34908600846006800F0ED
:102160005EFD06460022A04B00F0EAFC04460D4648
:1021700022462B46E0A000F08BFFA748FFF710FF98
:10218000A548FFF70DFF072188484038FFF70EFFED
:10219000944908600846006800F041FD06460022A8
:1021A000914B00F0CDFC04460D4622462B46DDA0A7
:1021B00000F06EFF9848FFF7F3FE9748FFF7F0FE38
:1021C0007BA000F065FFBDE8F081E148406A20F0A7
:1021D0000700401CDE4948620846406A20F01000B3
:1021E000103048620846806A20F00700401C886270
:1021F0000846806A20F0100010308862704710B5E1
:10220000D448006840F40070D349C1F88400FFF757
:10221000DCFF202300224FF4E131D048FFF730FDEE
:10222000CFA000F035FF0720C949086048608860EA
:10223000C860086148618861C861D4495B4840381A
:10224000FEF72EF90123D24AFF2158484038FEF705
:1022500006FA4FF6FF70FFF7A3FE10BDFFF7F4FA82
:10226000FFF7CDFF07E0FFF7B3FE6B48FFF798FEDF
:102270006948FFF795FEF6E7B548806820F007004B
:10228000401CB34988600846806820F01000103078
:1022900088600846C06820F00700401CC8600846F7
:1022A000C06820F010001030C8607047A848806EE9
:1022B00020F00700401CA64988660846806E20F082
:1022C0001000103088660846C06E20F00700401CE1
:1022D000C8660846C06E20F010001030C86670470F
:1022E0000020AC490880AC490880AC490880AC4962
:1022F00008809848006840F004009749C1F88400BD
:102300000846D0F8840040F00800C1F88400084670
:10231000D0F8840040F01000C1F884000846D0F8DE
:10232000840040F02000C1F8840000BFFEE710B533
:102330008848006840F004008749C1F884000846D6
:10234000D0F8840040F00800C1F884000846D0F8B6
:10235000840040F01000C1F884000846D0F88400E2
:1023600040F02000C1F88400FFF72FFF2023002257
:102370004FF4E1317948FFF783FC8AA000F088FE32
:1023800004219448FEF702FA012204219148FEF745
:1023900029FA062000F0D4FA072000F0D1FA08202C
:1023A00000F0CEFA092000F0CBFA15E140240140FC
:1023B0000D0A2D2D2D2D2D2D2D2D2D2D2D2D2D2D90
:1023C0002D2D2D2D2D2D2D2D2D2D2D2D2D2D2D2D3D
:1023D0002D2D2D2D2D2D2D2D2D2D2D2D2D2D2D2D2D
:1023E0002D0D0A002000002000005940546865208F
:1023F00041444331325F494E3020636170747572DD
:102400006520766F6C746167652069733A20252EAC
:1024100033662056200D0A0080841E005468652013
:1024200041444331325F494E3120636170747572AB
:102430006520766F6C746167652069733A20252E7C
:1024400033662056200D0A0054686520414443310C
:10245000325F494E32206361707475726520766F09
:102460006C746167652069733A20252E33662056A7
:10247000200D0A005468652041444331325F494EC3
:1024800033206361707475726520766F6C74616758
:10249000652069733A20252E33662056200D0A00E8
:1024A0005468652041444331325F494E34206361B2
:1024B000707475726520766F6C74616765206973DE
:1024C0003A20252E33662056200D0A0054686520D8
:1024D00041444331325F494E3520636170747572F7
:1024E0006520766F6C746167652069733A20252ECC
:1024F00033662056200D0A0054686520414443315C
:10250000325F494E36206361707475726520766F54
:102510006C746167652069733A20252E33662056F6
:10252000200D0A005468652041444331325F494E12
:1025300037206361707475726520766F6C746167A3
:10254000652069733A20252E33662056200D0A0037
:102550000000014084100240001002400038014099
:102560000D0A2D2D2D2D2D2D2D2D2D2D2D2D2D2DDE
:102570002D2D41444320546573742D2D2D2D2D2D6B
:102580002D2D2D2D2D2D2D2D2D0D0A00A086010078
:10259000103254762400002026000020280000205D
:1025A0002A0000200D0A2D2D2D2D2D2D2D2D2D2D08
:1025B0002D2D2D2D2D2D494F5F4558544920546503
:1025C00073742D2D2D2D2D2D2D2D2D2D2D2D2D2DAE
:1025D0002D0D0A00001401400A2000F0B1F9172067
:1025E00000F0AEF9282000F0ABF910BDFFF7EDFDCB
:1025F000FFF742FEFFF75AFE202300224FF4E1319D
:10260000D548FFF73DFB022300224FF4E131D348C8
:10261000FFF736FB022300224FF4E131D048FFF7E9
:102620002FFB0221CC48FFF791FC0221CB48FFF79A
:102630008DFC0221CA48FFF789FC252000F080F9B3
:10264000262000F07DF9272000F07AF905E0C54842
:10265000FDF7A7FDC4A000F01BFDF8E738B500208A
:1026600000901024BC480C300068C0F340000128E2
:1026700010D16946B848FFF7ECFB9DF80010B6484A
:10268000FFF705FC00BFB448FFF764FC00F0010051
:102690000128F8D038BD38B5002000901024AF488C
:1026A0000C300068C0F34000012810D16946AB48E7
:1026B000FFF7CFFB9DF80010A848FFF7E8FB00BF2D
:1026C000A648FFF747FC00F001000128F8D038BD0C
:1026D00038B5002000901024A1480C300068C0F3E9
:1026E0004000012810D169469D48FFF7B2FB9DF8D4
:1026F00000109B48FFF7CBFB00BF9948FFF72AFC6F
:1027000000F001000128F8D038BD70B505460F244F
:102710002E46002408E00120A040B04203D121460B
:1027200096A000F0B5FC641C0F2CF4DD70BD10B554
:10273000994804684FF001019848FEF73BF998A0CA
:1027400000F0A6FC2046FFF7E0FF10BD10B5924850
:1027500004684FF002019148FEF72CF997A000F0B1
:1027600097FC2046FFF7D1FF10BD10B58A480468DA
:102770004FF004019848FEF71DF998A000F088FC7E
:102780002046FFF7C2FF10BD10B5834804684FF024
:1027900008018248FEF70EF997A000F079FC204668
:1027A000FFF7B3FF10BD10B57B4804684FF0100170
:1027B0007A48FEF7FFF897A000F06AFC2046FFF782
:1027C000A4FF10BD10B5744804684FF6FF7173483C
:1027D000FEF7F0F896A000F05BFC2046FFF795FFAF
:1027E00010BD10B56C4804684FF6FF716B48FEF7DA
:1027F000E1F897A000F04CFC2046FFF786FF10BDE3
:1028000002209B49086148618861C861052008670A
:1028100048678867C867704708B5FFF7D6FC20236C
:1028200000224FF4E1314C48FFF72AFA91A000F062
:102830002FFCFFF7E5FF002003460722014600902A
:102840009748FEF7F7FE97499548FEF75EFF002090
:1028500001230722014600909348FEF7EBFE9149C1
:102860009148FEF752FF02218D48FEF7B1FF022189
:102870008D48FEF7ADFF232000F062F8242000F021
:102880005FF808BD704710B500248548FEF7C9FF02
:102890000446214685A000F0FBFB10BD10B50024C6
:1028A0008148FEF7BEFF044621468CA000F0F0FBF5
:1028B0007D48FEF73FFF55217B48FEF79CFF10BD8A
:1028C000704740F204406A498865C8658866C866F2
:1028D000704710B5FFF779FC202300224FF4E13157
:1028E0001D48FFF7CDF989A000F0D2FBFFF7E9FF03
:1028F0007023012211469048FEF719F97023012236
:1029000000218E48FEF713F910BD10B58A48FEF776
:102910008FF910BD10B58948FEF78AF910BD70B562
:1029200004460D46E1B20C48FFF7B1FA00BF0A4871
:10293000FFF710FB00F001000128F8D0204670BD21
:1029400000F01F020121914042094FF0E02303EB08
:102950008202C2F800117047003801400044004074
:102960000048004080841E0048656C6C6F207761D1
:102970006E676E6B7569210D0A0000005468652052
:10298000455854492050696E2069733A2050494E89
:1029900025640D0A000000000C12024000100140E6
:1029A00009455854493020496E74657272757074C7
:1029B0002070726F64756374210A000009455854D1
:1029C000493120496E746572727570742070726F2F
:1029D00064756374210A00000014014009455854CD
:1029E000493220496E746572727570742070726F0E
:1029F00064756374210A000009455854493320491D
:102A00006E746572727570742070726F6475637421
:102A1000210A000009455854493420496E746572F2
:102A2000727570742070726F64756374210A00008F
:102A30000945585449395F3520496E74657272757D
:102A400070742070726F64756374210A0000000056
:102A5000094558544931355F313020496E746572EB
:102A6000727570742070726F64756374210A00004F
:102A7000000001400D0A2D2D2D2D2D2D2D2D2D2D3C
:102A80002D2D2D2D2D2D53504920546573742D2D32
:102A90002D2D2D2D2D2D2D2D2D2D2D2D2D0D0A00D6
:102AA0000030014040420F0000380040496E205382
:102AB00050493120696E746572727570742C746837
:102AC000652053504931205265616420646174610E
:102AD0002069733A2025780D0A000000496E2053C2
:102AE00050493220696E746572727570742C746806
:102AF00065205350493220526561642064617461DD
:102B00002069733A2025780D0A0000000D0A2D2D4A
:102B10002D2D2D2D2D2D2D2D2D2D2D2D2D2D4932C4
:102B20004320546573742D2D2D2D2D2D2D2D2D2DE0
:102B30002D2D2D2D2D0D0A00005400400058004071
:102B40002DE9F04D81EA030404F0004B21F0004729
:102B500014464FF0000A23F0004150EA070220D04B
:102B600054EA01021DD0C1F30A550246C1F3130015
:102B7000C7F30A56C7F3130340F4801143F48013DC
:102B8000A6EB0508101BD64608F2FD3873EB0100D2
:102B900002D308F1010801E092185B41B8F1000F7F
:102BA00003DA00200146BDE8F08D00204FF48015C7
:102BB000064607460EE0B2EB040C73EB010C04D39F
:102BC000121B064363EB01032F436D084FEA3000ED
:102BD00092185B4150EA050CEDD152EA030012D085
:102BE00082EA040083EA0105284303D100224FF062
:102BF000004308E0101B8B4102D20122002302E0B7
:102C00006FF0010253101AEB060047EB085110EB6E
:102C10000A0041EB0B01BDE8F04D00F054B80EB5D1
:102C200040F2334102910021CDE900110A460B46E2
:102C300000F056F803B000BD30B50B460146002049
:102C40002022012409E021FA02F59D4205D303FA6E
:102C500002F5491B04FA02F52844151EA2F10102EF
:102C6000F1DC30BD2DE9F05F0546002092469B4621
:102C700088460646814640241BE028464146474692
:102C8000224600F0E2F952465B46801A994110D381
:102C900010461946224600F0C9F92D1A67EB0108C3
:102CA0004F4622460120002100F0C0F917EB000931
:102CB0004E41201EA4F10104DFDC484631462A467D
:102CC0004346BDE8F09F10B5002B08DA401C41F1E7
:102CD000000192185B411A4301D120F0010010BDA0
:102CE0002DE9F04D92469B4611B1B1FA81F202E016
:102CF000B0FA80F22032904600F098F906460F466E
:102D000040EA0A0041EA0B0152465B46084303D100
:102D100030463946BDE8F08D194652EA010015D01B
:102D2000C8F14002504600F090F904460D46504666
:102D30005946424600F07AF9084301D0012000E0EC
:102D40000020044345EAE07526432F430A984FEAE2
:102D5000D625A0EB08000A304FEA46534FF0000298
:102D600045EA47554FEAD72402D500200146D1E76E
:102D7000010550196141DDE9084500196941BDE8C7
:102D8000F04DA0E72DE9FE4F074681EA0300C00F92
:102D90000E46019021F0004123F00044B81AA141F1
:102DA00005D23846314617461E460B46024623F0EA
:102DB0000040104304D13846314603B0BDE8F08FDF
:102DC000350DC5F30A00C3F30A510290401A009072
:102DD000402868DAC3F3130040F4801B0198924640
:102DE00020B10023D2EB030A63EB0B0B009859468A
:102DF000C0F14002504600F019F980460C4650469A
:102E00005946009A00F031F9C0197141EF1785EA6F
:102E100011533B4340D0019A52B3009A012A11DC6E
:102E20000022801A4FF0004361EB055103EA05537D
:102E30008018CDE9002341F5801142462346FFF773
:102E40004FFFBAE72E050025401B61EB0601401934
:102E500041F58012001852412818A6F5001343EBE3
:102E6000020140EAD470294318EB0808644113E0DA
:102E700064084FEA38084FF0000244EAC0744FEA91
:102E80000553801A61EB0301801841F58011490850
:102E90004FEA3000801859414246234603B0BDE84E
:102EA000F04FFFF710BF0198012240000023D0EB44
:102EB000020263EBE07301984FEAE074381A66EBA4
:102EC0000401EBE783F000435CE781F0004159E740
:102ED0002DE9FE4F81EA030421F0004504F000448F
:102EE00023F000414FF0000A009450EA050302D09D
:102EF00052EA010304D10020014603B0BDE8F08F7F
:102F0000C1F30A53C5F30A541C44A0FB02B3C5F332
:102F1000130545F4801CC1F3130141F480180CFB28
:102F2000023300FB083EA4F2F334810A930A41EA1B
:102F30008C5143EA88530194A1FB03474FEA9C2537
:102F400005FB03734FEA982601FB06373D0526056E
:102F500045EA1435BBEB06016EEB0503850E920EB8
:102F600045EA8C1542EA8812A5FB0206261E67EB8D
:102F700000070C0D44EA0334A41947EB1350C1F3C6
:102F800013064FF0000319464FEA033343EA165382
:102F900043EA0403019CE5FB0201A4F10C04029442
:102FA000009C4FEA0632CDE900A4FFF799FEA4E7A2
:102FB000C1F30A52C1F3130140F2FF3341F480110F
:102FC0009A4202DA00200146704740F233439A42A7
:102FD000A2F2334202DC524200F037B800F026B8C9
:102FE00030B5002904DB4FF00044404264EB01019E
:102FF000002B04DB4FF00044524264EB0303994280
:1030000008BF904230BD0000064C074D06E0E06866
:1030100040F0010394E8070098471034AC42F6D31F
:10302000FDF78CF884390000A4390000202A04DB65
:10303000203A00FA02F1002070479140C2F12003CB
:1030400020FA03F3194390407047202A04DB203A0A
:1030500021FA02F00021704721FA02F3D040C2F1B8
:1030600020029140084319467047202A06DBCB17FF
:10307000203A41FA02F043EAE071704741FA02F364
:10308000D040C2F120029140084319467047000029
:103090000FB4054B10B503A9044A029800F0C4F818
:1030A00010BC5DF814FB00001F2900002C0000205C
:1030B00002E008C8121F08C1002AFAD17047704701
:1030C000002001E001C1121F002AFBD1704700005F
:1030D0002DE9FF5FDDE90210020DDDF838B0014394
:1030E0000FD10F9801244BA3012807D000980F9A05
:1030F000C0E90031C0E90242BDE8FF9F6FEA0B0161
:10310000F4E7A2F2FF3244F61050424315140F9830
:1031100001280ED0A5EB0B00401C4FF000043E4EE2
:10312000DFF8F890B0F1000AA04605DACAF100070E
:1031300017E0CBF10000F0E7074612E0F80707D0F0
:103140002246334640464946FFF7C2FE804689463E
:103150002246334610461946FFF7BAFE04460E468D
:103160007F10002FEAD1DDE90201BAF1000F4246DB
:103170004B4602DAFFF7ACFE01E0FFF7E1FC044644
:103180000E460022264BFFF72BFF03D84FF0FF30EF
:10319000014607E00022234B20463146FFF7F2FDAF
:1031A000FFF706FF102409E0002C0ADB0A220023A7
:1031B000FFF758FD019B30321A55641E50EA010298
:1031C000F2D1641C019AC4F1110314440F9A012A2C
:1031D00009D00122084301D15B450FDD4FF0000209
:1031E00005F101050DE0084303D1A3EB0B056D1EAE
:1031F00009E000204FF0110B0F9088E701DA002260
:103200006D1E002A83D000980F99C0E90231C0E9F1
:10321000004571E730000000000024400000F03F4E
:103220000000F0430000E03F2DE9FF4F95B0064657
:103230009A468946002521E2252801D01799A6E063
:103240000024F9492746761C4FF001080394327890
:10325000203A08FA02F0084202D00443761CF6E74E
:1032600030782A2811D06FF02F023078A0F1300189
:10327000092916D8039944F0020401EB810102EBFD
:1032800041010844761C0390EFE759F8041B0391B1
:10329000002903DA484244F40054039044F0020445
:1032A000761C30782E2816D116F8010F44F004044D
:1032B0002A280DD06FF02F013078A0F13002092AB2
:1032C00009D807EB870201EB42028718761CF3E767
:1032D00059F8047B761C30786C280FD006DC4C281B
:1032E00017D068280DD06A2814D104E0742810D0B3
:1032F0007A280FD10DE044F400140AE044F480145D
:1033000001E044F440147178814202D1761C04F546
:103310008014761C96F800C0BCF1660F10D01ADC41
:10332000BCF1580F70D00CDCBCF1000F6DD0BCF1BB
:10333000450FF3D0BCF1460FF0D0BCF1470F24D1BC
:10334000A4E1BCF1630F40D0BCF1640F74D0BCF1B8
:10335000650F1AD19AE1BCF1700F6ED00CDCBCF194
:10336000670FEDD0BCF1690F75D0BCF16E0F12D0B4
:10337000BCF16F0F09D1B3E0BCF1730F2FD0BCF1DA
:10338000750F76D0BCF1780F74D01799604652460D
:1033900090476D1C70E1C4F30250022809D0032845
:1033A0000DD0D9F8001004280DD00D6009F10409E2
:1033B00062E1D9F80010EA17C1E90052F6E7D9F83E
:1033C00000100D80F2E70D70F0E759F8041B8DF83E
:1033D000001000208DF80100EB46012003E059F8B1
:1033E00004BB4FF0FF3061074FF0000102D40FE043
:1033F00008F101018846B94211DA8045F8DB1BF873
:1034000008100029F4D10AE060E03BE108F1010175
:1034100088468142FADB1BF808100029F6D1039890
:103420005346A0EB080721463846179A00F091FA58
:10343000284400EB080506E00DE049E01BF8010B0D
:10344000524617999047B8F10108F7D253462146E2
:103450003846179A0DE10A21C4F302524FF0000BCF
:103460000091022A07D059F8040BC117032A0AD089
:103470000BE024E025E009F1070020F00702F2E864
:103480000201914605E000B2C117042A01D140B201
:10349000C117002906DA0A460021404261EB020109
:1034A0002D2202E0220504D52B228DF804200122D2
:1034B00003E0E20701D02022F7E7904654E00A211A
:1034C00000E010214FF0000B00910DE0102008E00B
:1034D00010204FF0000B44F004040827009003E094
:1034E00008204FF0000B0090C4F30252022A05D0CE
:1034F00059F8040B0021032A08D009E009F107005C
:1035000020F00702F2E80201914605E080B20021B6
:10351000042A01D1C0B200214FF00008220723D5B0
:10352000BCF1700F28D0009B83F0100353EA0B030B
:1035300009D150EA010206D030228DF804208DF81E
:1035400005C002229046009B83F0080353EA0B0358
:103550000AD150EA010201D1620705D530228DF867
:1035600004204FF001087F1EBCF1580F09D02FA294
:103570000C920CAA029211E040228DF80420012244
:10358000E0E72FA2F4E75B46009AFFF76BFB0C9B8A
:103590009B5C029AA2F101020292137050EA0102AE
:1035A000F1D1029804A9A1EB000000F1200B600703
:1035B00002D524F4803400E001275F4502DDA7EB4B
:1035C0000B0000E0002000EB0B0100900398414449
:1035D000A0EB01000390E00306D453462146179A5E
:1035E000039800F0B6F90544002706E001A852460A
:1035F000C05D179990476D1C7F1C4745F6DBE003C3
:103600000CD553462146179A039800F0A2F90544B9
:1036100004E030205246179990476D1C0099481ECF
:1036200000900029F5DC1EE009280100303132331A
:1036300034353637383961626364656600000000EE
:1036400030313233343536373839414243444546D8
:10365000000000000298029952460078491C02912D
:10366000179990476D1CBBF10001ABF1010BF1DC28
:1036700050E100F05BF9054406F1010630780028BE
:103680007FF4DAAD19B02846BDE8F08F600700D4AA
:10369000062709F1070020F00701F1E8022089461A
:1036A00000F00043190001D09DA109E0210501D5DA
:1036B0009CA105E0E10701D09BA101E0AFF28401EC
:1036C00020F000431391BCF1650F11D009DCBCF16F
:1036D000450F0DD0BCF1460F20D0BCF1470F3ED1B5
:1036E0003EE0BCF1660F19D0BCF1670F7CD137E02A
:1036F0000021112F01DB112000E0781CCDE9000131
:1037000004A90CA8FFF7E4FCDDE90D010C9A4FF0C9
:10371000000B07F10108109200914CE04FF00040BF
:103720000097CDE9018004A90CA8FFF7D1FCDDE9E1
:103730000E20DDE90C314FF0000B90461093009203
:1037400018B907F1010001EB0008B7EB080003D43A
:10375000C0F1FF3B07F10108A8EB0700019043E02F
:10376000012F00DA01270021112F01DD112000E0D7
:103770003846CDE9000104A90CA8FFF7A9FCDDE952
:103780000D010C9A00914FF0000BB84610922107E2
:103790000CD40099414500DA8846B8F1010F05DDE7
:1037A000109AA8F10101515C302908D0B84202DA20
:1037B00010F1040F06DA0121CDE9011014E0A8F19F
:1037C0000101E9E7002803DC8344A8EB000102E0E3
:1037D000411C414500DD8846A0EB0B0000F10100D3
:1037E00001904FF000400290200705D40198404519
:1037F00002DB4FF0FF30019000208DF84B00029863
:103800000DF14B07B0F1004F26D002200C902B2079
:103810000D90029800280CDA404202902D200D9065
:1038200007E00A210298FFF707FA3031029007F803
:10383000011D0C99481E0C900029F2DC029800280A
:10384000EFD1A7F101010D980870307800F0200049
:1038500040F0450007F8020D11A8A0EB070000F1A9
:10386000070002901398007800B1012000EB0801D6
:10387000019801EBE071029801440398A0EB01006C
:10388000A0F101000390E00306D453462146179AA5
:10389000039800F05EF805441398007820B1524672
:1038A0001799904705F10105E00322D553462146BB
:1038B000179A039800F04DF805441AE0BBF1000F89
:1038C00007DB0098584504DD1098179910F80B0095
:1038D00001E0179930205246904701986D1C401E18
:1038E0000BF1010B019004D12E20524617999047FD
:1038F0006D1CB8F10001A8F10108DFDC05E017F844
:10390000010B5246179990476D1C0299481E029070
:103910000029F4DC53462146179A0398A9E60000D3
:103920002D0000002B000000200000002DE9F041D8
:103930000446002517461E46880405D406E039468D
:103940002020B04705F10105641EF8D52846BDE8E2
:10395000F0812DE9F0410446002590461E46C8033B
:1039600001D5302700E02027880405D506E0414630
:103970003846B04705F10105641EF8D52846BDE874
:10398000F0810000A4390000000000203000000099
:10399000B0300000D439000030000020580400008E
:1039A000C03000000000000000A24A0400A24A0447
:1039B00000A24A0400A24A04AA112233445566FF19
:1039C00000000000000000000000000000000000F7
:0439D00000000000F3
:0400000500000135C1
:00000001FF
