:020000040000FA
:10000000C0060020691200006D1200006F1200008F
:100010007112000073120000751200000000000051
:100020000000000000000000000000007712000047
:1000300079120000000000007B1200007D12000019
:100040007F1200007F1200007F1200007F1200006C
:1000500000000000000000007F1200007F1200007E
:100060007F1200007F1200007F1200007F1200004C
:100070007F1200007F1200007F1200007F1200003C
:100080007F1200007F1200007F1200007F1200002C
:10009000000000007F120000000000007F1200003E
:1000A0007F1200007F1200007F1200007F1200000C
:1000B0007F1200007F1200007F120000691700000D
:1000C0000000000073170000000000007F12000015
:1000D0007F1200007F1200007F1200007F120000DC
:1000E0007F120000000000007F1200007F1200005D
:1000F0007F1200007F1200007F1200007F120000BC
:1001000000000000000000007F1200007F120000CD
:100110007F1200007F1200007F1200007F1200009B
:100120007F1200007F1200007F1200007F1200008B
:100130000000000000F002F800F066FF0AA090E85E
:10014000000C82448344AAF10107DA4501D100F092
:100150005BFFAFF2090EBAE80F0013F0010F18BFF2
:10016000FB1A43F001031847400000006000000044
:10017000103A24BF78C878C1FAD8520724BF30C8D3
:1001800030C144BF04680C607047000000230024A5
:1001900000250026103A28BF78C1FBD8520728BF97
:1001A00030C148BF0B607047C8010000000000204C
:1001B0000800000070010000D001000008000020CD
:1001C000B80600008C01000000A24A0400A24A0404
:020000040000FA
:101000001FB51FBD10B510BD00F0C9FB1146FFF79D
:10101000F7FF00F090FB00F0E7FB03B4FFF7F2FFEF
:1010200003BC00F0EBFB000000208249096F11F0C7
:10103000030106D0012908D0022923D003296DD14C
:1010400023E07D497D4A116068E07A49096C11F01E
:10105000030106D0012908D002290AD003290FD1A3
:101060000AE07549754A11600AE07549734A1160D2
:1010700006E07249086003E00021704A116000BF79
:1010800000BF4BE06D49086048E06A49096C11F007
:10109000030106D0012917D0022928D003293BD10A
:1010A00036E06449896811F4C07F03D06249634A1D
:1010B000116008E05F49896801F01F01491C5E4A20
:1010C00051435E4A116027E05A49896811F4C07F94
:1010D00003D05B49594A116008E05649896801F01C
:1010E0001F01491C564A5143544A116014E05149AA
:1010F000896811F4C07F02D05049086007E04D496B
:10110000896801F01F01491C41434C4A116003E00A
:1011100000214A4A116000BF00BF00BF00BF47491D
:101120000968484A11604349896F444A1268B2FB12
:10113000F1F1424A116070470021434A1160AA212F
:10114000414A083211605521116000213F4A116067
:10115000AA219160552191603D4909684FF0FF3106
:101160004FF0E022C2F880123249D1F8381221F44F
:101170008071384A11604FF002012E4A11624FF01F
:10118000000001E000BF401CC828FBD30121294A10
:10119000516411640021516444F2490191602D4968
:1011A000096821F08001C2F838124FF0000001E018
:1011B00000BF401CC828FBD30321274AD16001216E
:1011C0001C4A516702211167002151670121916773
:1011D000224A1160174A51621146D1F8381221F0A3
:1011E00040011C4A116040F2FF11124AC2F88410FB
:1011F0001146D1F8881041F00051C2F8881011460C
:10120000D1F8381221F01001124A116041F2480160
:10121000134A116040F2FF1102F10402116041F221
:101220004801104A116040F2FF1102F104021160FE
:101230007047000000100240005A620200000020C7
:1012400000127A0004000020002C00400030004012
:1012500080E200E038120240002002409810024074
:10126000007400401074004008480047FEE7FEE7A5
:10127000FEE7FEE7FEE7FEE7FEE7FEE7FEE7FEE746
:1012800003480449044A054B70470000350100003B
:10129000C0000020C0060020C0020020C0020020C4
:1012A0002DE9F04104460D4616461F46F848844293
:1012B00017D1F848006820F40010F749C1F89000F1
:1012C000F448006820F4001000F50010C1F8900008
:1012D000F248006820F4001000F50010C1F8880002
:1012E00019E0EF48844216D1EA48006820F48000F3
:1012F000E949C1F89000E748006820F4800000F553
:101300008000C1F89000E548006820F4800000F5F6
:101310008000C1F888004FF0FF00A061E14800683C
:10132000B0FBF6F1206961F30F002061DD48006831
:10133000B0FBF6F1606961F30F00606105B9E76029
:1013400015B14220206001E044202060D048844252
:1013500003D11F2000F0D3F905E0D148844202D127
:10136000212000F0CCF9BDE8F08101464868C0B208
:1013700070470246106808407047016070478161FD
:1013800070478160704701468868C0B2704730B5C9
:101390000446BF48844201D1C34A00E0C34A204604
:1013A000FFF7E3FF03464B2B01D0542B0AD110214A
:1013B0002046FFF7E2FF0C20107429212046FFF79A
:1013C000DEFF30BD23F04003102B31D004DC012BB5
:1013D00007D00B2B73D139E0142B64D01D2BF9D11E
:1013E00097E0506A012810D100205062D061107837
:1013F000401CC1B22046FFF7C4FF106A401C1062B7
:1014000029212046FFF7BBFF11E000201062D061C8
:1014100001212046FFF7B1FF11782046FFF7B1FF09
:10142000106A401C106228212046FFF7A8FFA3E0A5
:101430000020D061156A681C1062515D2046FFF7DC
:10144000A0FF28212046FFF79AFF95E0206810F0C2
:10145000010F15D09069012806D110212046FFF711
:101460008CFF0720107406E0156A681C1062515D3D
:101470002046FFF786FF08212046FFF780FF11E096
:10148000D069401C5169884204D204212046FFF7EC
:1014900074FF03E004212046FFF771FF2821204656
:1014A000FFF76DFF68E09169106A884208D2156AFB
:1014B000681C1062515D2046FFF763FF24E054E092
:1014C0005069D8B100205062D06192F8280050B124
:1014D0001078401CC1B22046FFF753FF2021204660
:1014E000FFF74BFF05E01078401CC1B22046FFF724
:1014F00048FF09212046FFF742FF3DE0102120462A
:10150000FFF73BFF0C20107408212046FFF737FF40
:1015100032E02046FFF737FFD569691CD16102F13F
:1015200008014855D069401C5169884208D20421FD
:101530002046FFF722FF08212046FFF720FF13E097
:10154000206800F00400042804D10C212046FFF795
:1015500016FF09E00C20107410212046FFF70DFF44
:1015600008212046FFF70BFF06E00A20107408212F
:101570002046FFF704FF00BF00BF00BF21E7F0B522
:1015800004460D4616464248844201D1464A00E0D0
:10159000464A157056709370002082F828005061FA
:1015A0000320906120212046FFF7E7FE0020107401
:1015B00000BF107C0C28FCD1FF2700BF3800A7F12A
:1015C0000101CFB2FAD1F0BD2DE9F04104460D463C
:1015D00017469846069E2E48844201D1324A00E0C2
:1015E000324A15705770002305E018F80310981C54
:1015F0001154581CC3B2B342F7DB002082F8280014
:101600005061B01C906120212046FFF7B6FE0020FB
:10161000107400BF107C0C28FCD1FF2300BF180001
:10162000A3F10101CBB2FAD1BDE8F08170B5034658
:101630000C4615461648834201D11B4A00E01B4A5E
:1016400014705570022090610120506182F82800CA
:1016500020211846FFF791FE0020107400BF107C77
:101660000C28FCD1FF2600BF3000A6F10101CEB24C
:10167000FAD1107A70BD2DE9F04105460E461746A5
:101680001C46DDF818800248854211D1064A10E058
:1016900000540040901002400010024088100240A8
:1016A0000058004000000020080000203400002006
:1016B000194A16705770022090615461012082F817
:1016C000280020212846FFF758FE0020107400BF94
:1016D000107C0C28FCD1002306E002F10800C05C5D
:1016E00008F80300581CC3B2A342F6DBFF2300BF77
:1016F0001800A3F10101CBB2FAD1BDE8F08100F0EE
:101700001F020121914042094FF0E02303EB8202C6
:10171000C2F80011704700003400002000BF010033
:10172000A0F10100FBD17047142018498865C865F5
:101730008866C866704710B5FFF7FEFCFFF7F4FF38
:101740007023322201211248FFF7AAFD70233222B2
:1017500000211048FFF7A4FDAA23552250210C4870
:10176000FFF70DFF002010BD10B50948FFF70FFE71
:1017700010BD10B500240748001D0068C0F3C0105C
:1017800018B10448FFF7FFFD044610BD00000140FA
:10179000005400400058004070477047704775463D
:1017A00000F028F8AE4605006946534620F00700D1
:1017B000854618B020B5FFF763FDBDE820404FF027
:1017C00000064FF000074FF000084FF0000B21F02B
:1017D0000701AC46ACE8C009ACE8C009ACE8C009F8
:1017E000ACE8C0098D4670470446AFF30080204640
:1017F000FFF713FC004870476000002001491820E3
:0C180000ABBEFEE72600020070470000AF
:0400000500000135C1
:00000001FF
