:020000040000FA
:1000000070060020790400007D0400007F040000D9
:10001000810400008304000085040000000000004B
:100020000000000000000000000000008704000045
:1000300089040000000000008B0400008D04000013
:100040008F0400008F0400008F0400008F04000064
:1000500000000000000000008F0400008F0400007A
:100060008F0400008F0400008F0400008F04000044
:100070008F0400008F0400008F0400008F04000034
:100080008F0400008F0400008F0400008F04000024
:10009000000000008F040000000000008F0400003A
:1000A0008F0400008F0400008F0400008F04000004
:1000B0008F0400008F0400008F0400008F040000F4
:1000C000000000008F040000000000008F0400000A
:1000D0008F0400008F0400008F0400008F040000D4
:1000E0008F040000000000008F0400008F04000057
:1000F0008F0400008F0400008F0400008F040000B4
:1001000000000000000000008F0400008F040000C9
:100110008F0400008F0400008F0400008F04000093
:100120008F0400008F0400008F0400008F04000083
:100130000000000000F002F800F03CF80AA090E88F
:10014000000C82448344AAF10107DA4501D100F092
:1001500031F8AFF2090EBAE80F0013F0010F18BF23
:10016000FB1A43F001031847DC040000FC04000004
:10017000103A24BF78C878C1FAD8520724BF30C8D3
:1001800030C144BF04680C607047000000230024A5
:1001900000250026103A28BF78C1FBD8520728BF97
:1001A00030C148BF0B6070471FB500F044FA1FBD57
:1001B00010B510BD00F005FA1146FFF7F5FF00F08D
:1001C000C5F900F023FA03B4FFF7F2FF03BC00F017
:1001D0002BFA000000209849096F11F0030106D0A6
:1001E000012908D002290AD0032932D12EE09349EF
:1001F000934A11602DE09349914A116029E08E499C
:10020000096C11F0030106D001290ED0022916D085
:10021000032919D114E08849896801F01F01491C9C
:10022000864A5143864A11600EE08349896801F08D
:100230001F01491C834A5143814A116004E000BFF9
:1002400000217F4A116000BF00BF02E07C490860C6
:1002500000BF00BF7A4909687B4A11607649896FFF
:10026000774A1268B2FBF1F1754A11607749096863
:10027000C1F30221042905D1114609684908744ACD
:10028000116027E071490968C1F30221052905D1F0
:100290006B49096889086E4A11601BE06B4909685F
:1002A000C1F30221062905D165490968C908684AD0
:1002B00011600FE065490968C1F30221072905D1E2
:1002C0005F4909680909624A116003E05C490968ED
:1002D0005F4A11605D490968C1F3C221042905D153
:1002E0005749096849085B4A116027E0574909687E
:1002F000C1F3C221052905D1514909688908554A28
:1003000011601BE051490968C1F3C221062905D1DA
:100310004B490968C9084F4A11600FE04B49096809
:10032000C1F3C221072905D1454909680909494A8C
:10033000116003E042490968464A11607047002194
:10034000454A1160AA21444A0832116055211160C2
:100350000021424A1160AA219160552191604049D3
:1003600009684FF0FF314FF0E022C2F880123249A5
:10037000D1F8381221F480713A4A11604FF002012D
:100380002D4A11624FF0000001E000BF401CC82858
:10039000FBD30121284A516411640021516444F2C5
:1003A000490191602F49096821F08001C2F8381293
:1003B0004FF0000001E000BF401CC828FBD3032120
:1003C000294AD16001211C4A51670221116700218D
:1003D000516701219167254A1160174A5162114600
:1003E000D1F8381221F040011E4A116040F2FF118D
:1003F000114AC2F884101146D1F8881041F000511A
:10040000C2F888101146D1F8381221F01001154AAF
:10041000116041F24801164A116040F2FF1102F1E9
:100420000402116041F24801124A116040F2FF11CA
:1004300002F104021160704700100240005A62028B
:100440000000002000127A000400002094100240F6
:10045000080000200C000020002C0040003000406C
:1004600080E200E038120240002002409810024072
:10047000007400401074004008480047FEE7FEE7A3
:10048000FEE7FEE7FEE7FEE7FEE7FEE7FEE7FEE744
:1004900003480449044A054B704700003501000039
:1004A0007000002070060020700200207002002002
:1004B00030B51F4C246824F010041E4DC5F8384296
:1004C0002C46D4F8384224F01004C5F838421A4CAF
:1004D000A14200D92146194C2468B4FBF1F3046809
:1004E00063F307040460046824F4805404F5805422
:1004F0000460046862F30824046030BD00210160D8
:100500000B49096821F0100101F11001094AC2F8F4
:1005100038127047016821F4806101F58061016043
:1005200070474160704701460A68C2F3C0307047A7
:10053000381202400010024040420F00000000202C
:1005400000BF0100A0F10100FBD1704710B5FFF71B
:10055000F6FE1548006840F000501449C1F88800C4
:100560004FF00700124948624FF00002114912484B
:10057000FFF79EFF4FF6FF70FFF7E2FF00240DE04C
:1005800000BF0D48FFF7CFFF0028FAD0A1B20A48FC
:10059000FFF7C7FF0520FFF7D3FF6434B4F5806F82
:1005A000EED3002010BD0000881002400010024071
:1005B0000000014040420F00107400407047704737
:1005C0007047754600F028F8AE4605006946534668
:1005D00020F00700854618B020B5FFF759FFBDE8A9
:1005E00020404FF000064FF000074FF000084FF09A
:1005F000000B21F00701AC46ACE8C009ACE8C0092B
:10060000ACE8C009ACE8C0098D4670470446AFF3BA
:1006100000802046FFF7D7FD0048704710000020FB
:10062000004870471400002001491820ABBEFEE7C7
:1006300026000200704710B5FFF7F2FF4FF00001EF
:10064000016010BD640600000000002010000000E2
:100650007001000074060000100000206006000019
:100660008C01000000A24A0400A24A0400A24A042D
:0406700000A24A0496
:0400000500000135C1
:00000001FF
