:020000040000FA
:1000000070060020790400007D0400007F040000D9
:10001000810400008304000085040000000000004B
:100020000000000000000000000000008704000045
:1000300089040000000000008B0400008D04000013
:100040008F0400008F0400008F0400008F04000064
:1000500000000000000000008F0400008F0400007A
:100060008F0400008F0400008F0400008F04000044
:100070008F0400008F0400008F0400008F04000034
:100080008F0400008F0400008F0400008F04000024
:10009000000000008F040000000000008F0400003A
:1000A0008F0400008F0400008F0400008F04000004
:1000B0008F0400008F0400008F0400008F040000F4
:1000C000000000008F040000000000008F0400000A
:1000D0008F0400008F0400008F0400008F040000D4
:1000E0008F040000000000008F0400008F04000057
:1000F0008F0400008F0400008F0400008F040000B4
:1001000000000000000000008F0400008F040000C9
:100110008F0400008F0400008F0400008F04000093
:100120008F0400008F0400008F0400008F04000083
:100130000000000000F002F800F03CF80AA090E88F
:10014000000C82448344AAF10107DA4501D100F092
:1001500031F8AFF2090EBAE80F0013F0010F18BF23
:10016000FB1A43F001031847100C0000300C00008C
:10017000103A24BF78C878C1FAD8520724BF30C8D3
:1001800030C144BF04680C607047000000230024A5
:1001900000250026103A28BF78C1FBD8520728BF97
:1001A00030C148BF0B6070471FB500F0DEFD1FBDBA
:1001B00010B510BD00F09FFD1146FFF7F5FF00F0F0
:1001C0003DFD00F0BDFD03B4FFF7F2FF03BC00F0FE
:1001D000C5FD000000209849096F11F0030106D009
:1001E000012908D002290AD0032932D12EE09349EF
:1001F000934A11602DE09349914A116029E08E499C
:10020000096C11F0030106D001290ED0022916D085
:10021000032919D114E08849896801F01F01491C9C
:10022000864A5143864A11600EE08349896801F08D
:100230001F01491C834A5143814A116004E000BFF9
:1002400000217F4A116000BF00BF02E07C490860C6
:1002500000BF00BF7A4909687B4A11607649896FFF
:10026000774A1268B2FBF1F1754A11607749096863
:10027000C1F30221042905D1114609684908744ACD
:10028000116027E071490968C1F30221052905D1F0
:100290006B49096889086E4A11601BE06B4909685F
:1002A000C1F30221062905D165490968C908684AD0
:1002B00011600FE065490968C1F30221072905D1E2
:1002C0005F4909680909624A116003E05C490968ED
:1002D0005F4A11605D490968C1F3C221042905D153
:1002E0005749096849085B4A116027E0574909687E
:1002F000C1F3C221052905D1514909688908554A28
:1003000011601BE051490968C1F3C221062905D1DA
:100310004B490968C9084F4A11600FE04B49096809
:10032000C1F3C221072905D1454909680909494A8C
:10033000116003E042490968464A11607047002194
:10034000454A1160AA21444A0832116055211160C2
:100350000021424A1160AA219160552191604049D3
:1003600009684FF0FF314FF0E022C2F880123249A5
:10037000D1F8381221F480713A4A11604FF002012D
:100380002D4A11624FF0000001E000BF401CC82858
:10039000FBD30121284A516411640021516444F2C5
:1003A000490191602F49096821F08001C2F8381293
:1003B0004FF0000001E000BF401CC828FBD3032120
:1003C000294AD16001211C4A51670221116700218D
:1003D000516701219167254A1160174A5162114600
:1003E000D1F8381221F040011E4A116040F2FF118D
:1003F000114AC2F884101146D1F8881041F000511A
:10040000C2F888101146D1F8381221F01001154AAF
:10041000116041F24801164A116040F2FF1102F1E9
:100420000402116041F24801124A116040F2FF11CA
:1004300002F104021160704700100240005A62028B
:100440000000002000127A000400002094100240F6
:10045000080000200C000020002C0040003000406C
:1004600080E200E038120240002002409810024072
:10047000007400401074004008480047FEE7FEE7A3
:10048000FEE7FEE7FEE7FEE7FEE7FEE7FEE7FEE744
:1004900003480449044A054B704700003501000039
:1004A0007000002070060020700200207002002002
:1004B00010B5FFF744FFF7480068F7498862FF204E
:1004C000F649086010BD10B50446F348406F20F0AF
:1004D0000300401CF04948672CB90846006F20F023
:1004E0000300086708E0032C06D1EB48006F20F0FA
:1004F0000300801CE8490867E748406F20F00300CC
:10050000E5494867FFF766FE10BD10B50446E248AE
:10051000806F64F30700E0498867FFF75BFE10BD5A
:1005200030B9DD49496A21F48051DB4A516209E062
:10053000032807D1D849496A21F4805101F5805137
:10054000D54A5162704705280ED2DFE800F0030952
:1005500005070B00002008E0012006E0022004E06F
:10056000032002E0042000E0704700BFCC49096886
:1005700021F0010101F10101C74AC2F8E41011465E
:10058000D1F8E01060F30201C2F8E0101146D1F892
:10059000E41021F00101C2F8E41000BFE4E7C14912
:1005A000096860F30701BC4AC2F8E810704740F2DE
:1005B0003120BD4908607047BA48006820F0FF004C
:1005C000B549C1F8E8004FF40C70B74908607047AE
:1005D000B649096860F30701AF4AC2F84C11704789
:1005E000B349096841EA0001AB4AC2F838127047C2
:1005F000AF49096821EA0001A74AC2F838127047DA
:10060000AC49096841EA0001A34AC2F880101146CA
:10061000D1F8841041EA0001C2F884101146D1F8E3
:10062000881041EA0001C2F888107047A1490968A2
:1006300021EA0001984AC2F8801070479E49096873
:1006400021EA0001944AC2F88C101146D1F88C10AE
:1006500041EA0001C2F88C101146D1F8901021EA4D
:100660000001C2F890101146D1F8901041EA000143
:10067000C2F89010704700BF9048006800F4E06036
:100680008F490843001D8D490860BFF3408F00BFAC
:1006900000BFFEE7012809D18A49096821F010014D
:1006A00001F110017C4AC2F850110EE08549096839
:1006B00021F01001784AC2F850118249096821F0EE
:1006C000400101F14001C2F8501170477248006BBF
:1006D0007047FF207049086370477B48006820F02E
:1006E0000200794908607548001D006820F0040088
:1006F0007249091D086030BF704730B50A4673491A
:10070000086042B9A1F10401096821EA0001624BC5
:10071000C3F8001201E06E4908604FF006014FF087
:10072000010303FA01F34FEA51144FF0E02505EB02
:100730008404C4F8003100BF30BD00206349086064
:1007400040F6FF705449C1F80802704710B5584B85
:100750001B68C3F3801363B1554B1B6823F0400340
:100760004D4CC4F8383200BF134602F10102FF2B92
:10077000FAD3584B1860484BC3F834125B6F23F020
:10078000030303F10103444C636723461B6F23F00B
:10079000030303F10203236723465B6F23F0030384
:1007A0006367494B1B6823F0020303F10203464CC5
:1007B0002360494B1B6843F00403474C236030BF60
:1007C00000BF00BF00BF00BF00BF334B5B6F23F013
:1007D000030303F10103304C636723461B6F23F0CF
:1007E0000303236723465B6F23F00303636710BD96
:1007F00010F0200F07D03749096821F02001264A60
:10080000C2F8301208E03349096821F0200101F1F3
:100810002001214AC2F830122E49096821F008014E
:1008200001F108011C4AC2F830122A49096821F076
:10083000400101F14001C2F830122349096821F05A
:10084000020101F10201204A11602349096841F0C7
:100850000401214A116030BF704701607047016890
:1008600021F008010160016821F0100110310160E0
:100870007047016821F010010160016821F0080152
:10088000083101607047016821F4006101F50061E1
:10089000016070471814FF1F0010024074110240DD
:1008A000E4100240E8100240A00001404C11024058
:1008B00038120240801002408C1002400CED00E023
:1008C0000000FA055011024000700040041202407E
:1008D000001202403012024010ED00E0016821F4E5
:1008E00000610160704700002DE9F04104460F46A9
:1008F00016461D46B948006820F0FF0000F10100CF
:10090000B749C1F89800B74884421BD1252000F0B0
:100910005CF9B548006820F4804000F58040B0499B
:10092000C1F88400B148006820F4804000F58040A0
:10093000C1F88C000846D0F88C0020F48040C1F843
:100940008C003FE0AA4884421BD1262000F03DF9EC
:10095000A848006820F4003000F50030A049C1F834
:100960008800A548006820F4003000F50030C1F888
:1009700090000846D0F8900020F40030C1F89000B4
:1009800020E09E4884421BD1272000F01EF99948A0
:10099000006820F4802000F580209149C1F888008B
:1009A0009548006820F4802000F58020C1F8900070
:1009B0000846D0F8900020F48020C1F8900001E0B3
:1009C000BDE8F0818E480068B0FBF7F1206961F363
:1009D00013002061022E05D1A06820F4807000F57C
:1009E0008070A0602EB1A06820F4007000F5007047
:1009F000A060022D04D1A06820F00200801CA0603D
:100A0000202D04D1A06820F020002030A060082D07
:100A100004D1A06820F008000830A060A06820F48D
:100A2000000000F50000A060A06820F4800000F540
:100A30008000A060FF20606100BFC1E7C16841F095
:100A4000FF01C1607047816821F0FF01816070473C
:100A500010B50446634884420AD1252000F0B5F859
:100A60006148006820F480405D49C1F884001CE0C2
:100A70005F4884420AD1262000F0A7F85D4800684C
:100A800020F400305649C1F888000EE05B488442EB
:100A90000AD1272000F099F85648006820F48020F9
:100AA0004F49C1F8880000E010BD2046FFF7CBFF9A
:100AB0002046FFF7C3FF00BFF6E702465068C0F3C9
:100AC000400018B110680870002070470120FCE752
:100AD00030B5002304E0046801F8014B5C1CE3B26C
:100AE0004468C4F3400424B115786C1E1470002DC2
:100AF000F1D1137030BD02465068C0F3800008B1D8
:100B000001207047106861F3070010600020F8E7CB
:100B100010B503465868C0F3800008B9102A01D305
:100B2000012010BD05E011F8014B186864F30700BF
:100B300018601000A2F10102F5D100BFF1E710B575
:100B40000BE000BF4368C3F38003002BFAD111F818
:100B5000014B036864F3070303601300A2F1010271
:100B6000EFD110BD08E000BF4268C2F38002002A46
:100B7000FAD111F8012B02600A78002AF3D17047EC
:100B80000A4600BF02F00F01092903DD01F1370316
:100B9000D9B202E001F13003D9B200BF4368C3F318
:100BA0008003002BFAD1036861F307030360130984
:100BB000E8D0704782680A438260704701464868FF
:100BC000C0B27047FF214161704700F01F02012150
:100BD00091400C4A430942F8231070479810024094
:100BE0000010024000380140841002408C10024086
:100BF000004400408810024090100240004800402D
:100C00000400002080E100E03148806D20F0070002
:100C1000401C2F4988650846806D20F01000103078
:100C200088650846C06D20F00700401CC86508466E
:100C3000C06D20F010001030C865704710B5FFF788
:100C400037FCFFF7E1FF022300224FF4E131214896
:100C5000FFF74AFE20A11F48FFF784FF1D48FFF75A
:100C6000F7FE002010BD1A48806820F00700401CE5
:100C7000174988600846806820F0100010308860AE
:100C80000846C06820F00700401CC8600846C068DD
:100C900020F010001030C86070470D48806E20F0C2
:100CA0000700401C0A4988660846806E20F0100044
:100CB000103088660846C06E20F00700401CC866E9
:100CC0000846C06E20F010001030C8667047000063
:100CD00000000140003801400944656D6F207379C0
:100CE0007374656D20666F722055415254210A005D
:100CF000704770477047754600F028F8AE4605000B
:100D00006946534620F00700854618B020B5FFF726
:100D1000BFFBBDE820404FF000064FF000074FF04A
:100D200000084FF0000B21F00701AC46ACE8C00909
:100D3000ACE8C009ACE8C009ACE8C0098D46704712
:100D40000446AFF300802046FFF73DFA00487047A5
:100D500010000020004870471400002001491820AE
:100D6000ABBEFEE726000200704710B5FFF7F2FFAA
:100D70004FF00001016010BD980D00000000002040
:100D80001000000070010000A80D000010000020FD
:100D9000600600008C01000000A24A0400A24A0480
:080DA00000A24A0400A24A046B
:0400000500000135C1
:00000001FF
