:020000040000FA
:10000000D006002075040000790400007B04000085
:100010007D0400007F040000810400000000000057
:100020000000000000000000000000008304000049
:10003000850400000000000087040000890400001F
:100040008B0400008B0400008B0400008B04000074
:1000500000000000000000008B0400008B04000082
:100060008B0400008B0400008B0400008B04000054
:100070008B0400008B0400008B0400008B04000044
:100080008B0400008B0400008B0400008B04000034
:10009000000000008B040000000000008B04000042
:1000A0008B0400008B0400008B0400008B04000014
:1000B0008B0400008B0400008B040000651000001E
:1000C000000000006F100000000000008B04000022
:1000D0008B0400008B0400008B0400008B040000E4
:1000E0008B040000000000008B0400008B04000063
:1000F0008B0400008B0400008B0400008B040000C4
:1001000000000000000000008B0400008B040000D1
:100110008B0400008B0400008B0400008B040000A3
:100120008B0400008B0400008B0400008B04000093
:100130000000000000F002F800F03AF80AA090E891
:10014000000C82448344AAF10107DA4501D100F092
:100150002FF8AFF2090EBAE80F0013F0010F18BF25
:10016000FB1A43F001031847940F0000B40F00007E
:10017000103A24BF78C878C1FAD8520724BF30C8D3
:1001800030C144BF04680C607047000000230024A5
:1001900000250026103A28BF78C1FBD8520728BF97
:1001A00030C148BF0B6070471FB51FBD10B510BDF3
:1001B00000F06DFF1146FFF7F7FF00F039FF00F088
:1001C0008BFF03B4FFF7F2FF03BC00F08FFF0000CA
:1001D00000209849096F11F0030106D0012908D0C9
:1001E00002290AD0032932D12EE09349934A1160A3
:1001F0002DE09349914A116029E08E49096C11F074
:10020000030106D001290ED0022916D0032919D1E5
:1002100014E08849896801F01F01491C864A51434E
:10022000864A11600EE08349896801F01F01491C6C
:10023000834A5143814A116004E000BF00217F4A94
:10024000116000BF00BF02E07C49086000BF00BF32
:100250007A4909687B4A11607649896F774A126842
:10026000B2FBF1F1754A116077490968C1F30221C7
:10027000042905D1114609684908744A116027E02C
:1002800071490968C1F30221052905D16B49096843
:1002900089086E4A11601BE06B490968C1F30221AD
:1002A000062905D165490968C908684A11600FE047
:1002B00065490968C1F30221072905D15F49096829
:1002C0000909624A116003E05C4909685F4A1160EC
:1002D0005D490968C1F3C221042905D1574909685C
:1002E00049085B4A116027E057490968C1F3C221F8
:1002F000052905D1514909688908554A11601BE053
:1003000051490968C1F3C221062905D14B49096841
:10031000C9084F4A11600FE04B490968C1F3C22177
:10032000072905D1454909680909494A116003E0CF
:1003300042490968464A116070470021454A1160E8
:10034000AA21444A08321160552111600021424A15
:100350001160AA21916055219160404909684FF0D0
:10036000FF314FF0E022C2F880123249D1F8381242
:1003700021F480713A4A11604FF002012D4A116256
:100380004FF0000001E000BF401CC828FBD3012152
:10039000284A516411640021516444F2490191607A
:1003A0002F49096821F08001C2F838124FF000008F
:1003B00001E000BF401CC828FBD30321294AD160BB
:1003C00001211C4A51670221116700215167012157
:1003D0009167254A1160174A51621146D1F83812C7
:1003E00021F040011E4A116040F2FF11114AC2F88B
:1003F00084101146D1F8881041F00051C2F88810DD
:100400001146D1F8381221F01001154A116041F25D
:100410004801164A116040F2FF1102F10402116016
:1004200041F24801124A116040F2FF1102F1040248
:100430001160704700100240005A62020000002064
:1004400000127A00040000209410024008000020EE
:100450000C000020002C00400030004080E200E052
:100460003812024000200240981002400074004000
:100470001074004008480047FEE7FEE7FEE7FEE78D
:10048000FEE7FEE7FEE7FEE7FEE7FEE70348044976
:10049000044A054B7047000035010000D0000020E1
:1004A000D0060020D0020020D002002081607047DA
:1004B00010B503460C46002204E0995CFA48FFF7A9
:1004C000F5FF521CA242F8D310BD2DE9F0410446BD
:1004D0000D4616461F46F548844218D1F448006878
:1004E00020F4001000F50010F249C1F89000084611
:1004F000D0F8900020F40010C1F89000EE48006899
:1005000020F4001000F50010C1F888001AE0E64859
:10051000844217D1E648006820F4800000F580008E
:10052000E449C1F890000846D0F8900020F480001B
:10053000C1F89000E048006820F4800000F58000D9
:10054000C1F888004FF0FF00A0614FF4FA6006FB8D
:1005500000F0DA490968B1FBF0F1206961F30F009E
:1005600020614FF4FA6006FB00F0D4490968B1FB42
:10057000F0F1606961F30F00606105B9E76015B1E2
:100580004220206003E00020A06040202060C74897
:10059000844203D11F2000F02AFD05E0C2488442B6
:1005A00002D1212000F023FDBDE8F081014648681A
:1005B00080B270470246106808407047016070477B
:1005C0008161704701468868C0B2704770B50346C4
:1005D000B648834201D1BA4A00E0BA4A1846FFF74A
:1005E000E5FF0446002000B950B110211846FFF77E
:1005F000E5FF0C20107429211846FFF7E1FF70BDBC
:10060000186810F0020F71D024F4E864E0B21028EA
:1006100031D004DC012807D00B2868D139E0142838
:1006200066D01D28F9D198E0506A012810D1002029
:100630005062D0611078401CC1B21846FFF736FFF7
:10064000106A401C106229211846FFF7B9FF11E01B
:1006500000201062D06101211846FFF7AFFF11782A
:100660001846FFF723FF106A401C10622821184625
:10067000FFF7A6FFA4E00020D061156A681C106295
:10068000515D1846FFF712FF28211846FFF798FF23
:1006900096E0186810F0010F15D09069012806D176
:1006A00010211846FFF78AFF0720107406E0156A2C
:1006B000681C1062515D1846FFF7F8FE08211846C5
:1006C000FFF77EFF11E0D069401C5169884204D2D7
:1006D00004211846FFF772FF03E004211846FFF7D4
:1006E0006FFF28211846FFF76BFF69E069E060E0C3
:1006F0009169106A884207D2156A681C1062515DC0
:100700001846FFF7D3FE23E05069D8B100205062AD
:10071000D06192F8280050B11078401CC1B2184640
:10072000FFF7C4FE20211846FFF748FF05E01078C8
:10073000401CC1B21846FFF7B9FE09211846FFF761
:100740003FFF3DE010211846FFF738FF0C201074E2
:1007500008211846FFF734FF32E01846FFF732FF52
:10076000D569691CD16102F108014855D069401C66
:100770005169884208D204211846FFF71FFF08215B
:100780001846FFF71DFF13E0186800F00400042866
:1007900004D10C211846FFF713FF09E00C20107458
:1007A00010211846FFF70AFF08211846FFF708FF37
:1007B00006E00A20107408211846FFF701FF00BF69
:1007C00056E014F4807F35D04FF48070986118465D
:1007D000FFF7F8FE054600201062D061D868A842F5
:1007E00003D1002082F8290013E0186AA84203D13F
:1007F000012082F829000CE0586AA84203D10220A7
:1008000082F8290005E0986AA84202D1032082F804
:10081000290015F0010F28D0D169481CD06102F1E0
:100820000800405C98605169D06988421DD300205F
:10083000D0611AE014F4007F07D000209968C8B294
:10084000166A711C116290550FE014F4806F0CD081
:10085000D169481CD06102F10800405C9860516980
:10086000D069884201D30020D0612820986100BF60
:1008700000BFC4E670B503460C48834201D1104A5C
:1008800000E0104A1846FFF791FE0446002000B928
:10089000D0B110211846FFF791FE0C2010742921C9
:1008A0001846FFF78DFE70BD005800400054004010
:1008B000901002400010024088100240000000200A
:1008C0001400002040000020186810F0020F71D0C2
:1008D00024F4E864E0B2102831D004DC012807D009
:1008E0000B2868D139E0142866D01D28F9D198E08A
:1008F000506A012810D100205062D0611078401C4D
:10090000C1B21846FFF7D2FD106A401C10622921BF
:100910001846FFF755FE11E000201062D06101215A
:100920001846FFF74BFE11781846FFF7BFFD106A17
:10093000401C106228211846FFF742FEA4E0002068
:10094000D061156A681C1062515D1846FFF7AEFD54
:1009500028211846FFF734FE96E0186810F0010FC2
:1009600015D09069012806D110211846FFF726FE00
:100970000720107406E0156A681C1062515D184665
:10098000FFF794FD08211846FFF71AFE11E0D06921
:10099000401C5169884204D204211846FFF70EFE1C
:1009A00003E004211846FFF70BFE28211846FFF745
:1009B00007FE69E069E060E09169106A884207D249
:1009C000156A681C1062515D1846FFF76FFD23E041
:1009D0005069D8B100205062D06192F8280050B11F
:1009E0001078401CC1B21846FFF760FD2021184660
:1009F000FFF7E4FD05E01078401CC1B21846FFF790
:100A000055FD09211846FFF7DBFD3DE01021184692
:100A1000FFF7D4FD0C20107408211846FFF7D0FD15
:100A200032E01846FFF7CEFDD569691CD16102F1AD
:100A300008014855D069401C5169884208D20421F8
:100A40001846FFF7BBFD08211846FFF7B9FD13E074
:100A5000186800F00400042804D10C211846FFF7A0
:100A6000AFFD09E00C20107410211846FFF7A6FD19
:100A700008211846FFF7A4FD06E00A20107408219B
:100A80001846FFF79DFD00BF55E014F4807F35D078
:100A90004FF4807098611846FFF794FD05460020DA
:100AA0001062D061D868A84203D1002082F82900E2
:100AB00013E0186AA84203D1012082F829000CE053
:100AC000586AA84203D1022082F8290005E0986AFA
:100AD000A84202D1032082F8290015F0010F27D087
:100AE000D169481CD06102F10800405C98605169EE
:100AF000D06988421CD30020D06119E014F4007F33
:100B000006D09868C1B2166A701C106291550FE049
:100B100014F4806F0CD0D169481CD06102F1080038
:100B2000405C98605169D069884201D30020D0614F
:100B30002820986100BF00BFB5E670B50346FA48AB
:100B4000834201D1F94A00E0F94A1846FFF72EFD29
:100B50000446002000B950B110211846FFF72EFDC1
:100B60000C20107429211846FFF72AFD70BD186863
:100B700010F0020F71D024F4E864E0B2102831D0F4
:100B800004DC012807D00B2868D139E0142866D08E
:100B90001D28F9D198E0506A012810D10020506238
:100BA000D0611078401CC1B21846FFF77FFC106A74
:100BB000401C106229211846FFF702FD11E00020B9
:100BC0001062D06101211846FFF7F8FC1178184631
:100BD000FFF76CFC106A401C106228211846FFF7D2
:100BE000EFFCA4E00020D061156A681C1062515D22
:100BF0001846FFF75BFC28211846FFF7E1FC96E05A
:100C0000186810F0010F15D09069012806D1102145
:100C10001846FFF7D3FC0720107406E0156A681C1D
:100C20001062515D1846FFF741FC08211846FFF796
:100C3000C7FC11E0D069401C5169884204D20421EC
:100C40001846FFF7BBFC03E004211846FFF7B8FC89
:100C500028211846FFF7B4FC69E069E060E091697B
:100C6000106A884207D2156A681C1062515D1846E6
:100C7000FFF71CFC23E05069D8B100205062D0611E
:100C800092F8280050B11078401CC1B21846FFF706
:100C90000DFC20211846FFF791FC05E01078401C60
:100CA000C1B21846FFF702FC09211846FFF788FC7D
:100CB0003DE010211846FFF781FC0C20107408213C
:100CC0001846FFF77DFC32E01846FFF77BFCD5693C
:100CD000691CD16102F108014855D069401C516975
:100CE000884208D204211846FFF768FC08211846FC
:100CF000FFF766FC13E0186800F00400042804D134
:100D00000C211846FFF75CFC09E00C201074102140
:100D10001846FFF753FC08211846FFF751FC06E080
:100D20000A20107408211846FFF74AFC00BF6FE044
:100D300014F4807F3ED0002604211846FFF73EFCC5
:100D400008211846FFF73CFC4FF480709861184664
:100D5000FFF738FC054600201062D061D868A84231
:100D600003D1002082F8290013E0186AA84203D1B9
:100D7000012082F829000CE0586AA84203D1022021
:100D800082F8290005E0986AA84202D1032082F87F
:100D9000290015F0010F0CD0D169481CD06102F177
:100DA0000800405C98605169D069884201D30020F6
:100DB000D0612AE014F4007F0FD0002604211846E9
:100DC000FFF7FCFB08211846FFF7FAFB9868C6B24C
:100DD000116A481C1062565417E014F4806F14D046
:100DE00004211846FFF7EAFB08211846FFF7E8FB45
:100DF000D169481CD06102F10800405C98605169DB
:100E0000D069884201D30020D0612820986100BFBA
:100E100000BFABE6F0B504460D4616464248844294
:100E200001D1424A00E0424A15705670937000208A
:100E300082F8280050610320906120212046FFF7AE
:100E4000BDFB0020107400BF107C0C28FCD1FF27D4
:100E500000BF3800A7F10101CFB2FAD1F0BD2DE9F2
:100E6000F04104460D4617469846069E2E48844299
:100E700001D12E4A00E02E4A15705770002305E07C
:100E800018F80310981C1154581CC3B2B342F7DB76
:100E9000002082F828005061B01C9061202120467B
:100EA000FFF78CFB0020107400BF107C0C28FCD1D5
:100EB000FF2300BF1800A3F10101CBB2FAD1BDE8B6
:100EC000F08170B503460C4615461748834201D1A0
:100ED000164A00E0164A14705570022090610120F5
:100EE000506182F8280020211846FFF767FB002098
:100EF000107400BF107C0C28FCD1FF2600BF30000E
:100F0000A6F10101CEB2FAD1107A70BD2DE9F041FF
:100F100005460E4617461C46DDF8188002488542F5
:100F200008D1024A07E000000054004014000020ED
:100F300040000020344A16705770022090615461BE
:100F4000012082F8280020212846FFF737FB0020E7
:100F5000107400BF107C0C28FCD1002306E002F1C5
:100F60000800C05C08F80300581CC3B2A342F6DBBB
:100F7000002305E0002102F10800C154581CC3B24F
:100F8000A342F7DBFF2300BF1800A3F10101CBB29E
:100F9000FAD1BDE8F08170B503460C461B48834288
:100FA00001D11B4900E018490C70022088614A6198
:100FB000012081F828000020087400BF087C0C285C
:100FC000FCD1FF2500BF2800A5F10106F5B2FAD13A
:100FD000087A70BD10B503460C4CA34201D10C48F1
:100FE00000E00948002484614261447410BD00F0AF
:100FF0001F020121914042094FF0E02303EB8202DE
:10100000C2F800117047000040000020005400406A
:101010001400002000BF0100A0F10100FBD17047C7
:1010200040F2044014498865C8658866C866704700
:10103000FFF783F9FFF7F4FF7023322201210F48F5
:10104000FFF743FA0DE0002270210C48FFF739FF4B
:101050000B490880002270210848FFF732FF084939
:101060000880F0E710B50548FFF7B0FA10BD10B5DD
:101070000448FFF7ABFA10BD0000014000540040E7
:1010800010000020005800407047704770477546B8
:1010900000F028F8AE4605006946534620F00700E8
:1010A000854618B020B5FFF7F1F9BDE820404FF0B4
:1010B00000064FF000074FF000084FF0000B21F042
:1010C0000701AC46ACE8C009ACE8C009ACE8C0090F
:1010D000ACE8C0098D4670470446AFF30080204657
:1010E000FFF76FF8004870476C0000200149182096
:1010F000ABBEFEE726000200704700001C11000096
:1011000000000020140000007001000030110000F9
:1011100014000020BC0600008C01000000A24A045C
:1011200000A24A0400A24A0400A24A0400000000EF
:0400000500000135C1
:00000001FF
