:020000040000FA
:10000000D8060020790400007D0400007F04000071
:10001000810400008304000085040000000000004B
:100020000000000000000000000000008704000045
:1000300089040000000000008B0400008D04000013
:100040008F0400008F0400008F0400008F04000064
:1000500000000000000000008F0400008F0400007A
:100060008F0400008F0400008F0400008F04000044
:100070008F0400008F0400008F0400008F04000034
:100080008F0400008F0400008F0400008F04000024
:10009000000000008F040000000000008F0400003A
:1000A0008F0400008F0400008F0400008F04000004
:1000B0008F0400008F0400008F0400002110000056
:1000C000000000002B100000000000008F04000062
:1000D0008F0400008F0400008F0400008F040000D4
:1000E0008F040000000000008F0400008F04000057
:1000F0008F0400008F0400008F0400008F040000B4
:1001000000000000000000008F0400008F040000C9
:100110008F0400008F0400008F0400008F04000093
:100120008F0400008F0400008F0400008F04000083
:100130000000000000F002F800F03CF80AA090E88F
:10014000000C82448344AAF10107DA4501D100F092
:1001500031F8AFF2090EBAE80F0013F0010F18BF23
:10016000FB1A43F001031847640F0000840F0000DE
:10017000103A24BF78C878C1FAD8520724BF30C8D3
:1001800030C144BF04680C607047000000230024A5
:1001900000250026103A28BF78C1FBD8520728BF97
:1001A00030C148BF0B6070471FB500F088FF1FBD0E
:1001B00010B510BD00F049FF1146FFF7F5FF00F044
:1001C00007FF00F067FF03B4FFF7F2FF03BC00F086
:1001D0006FFF000000209849096F11F0030106D05D
:1001E000012908D002290AD0032932D12EE09349EF
:1001F000934A11602DE09349914A116029E08E499C
:10020000096C11F0030106D001290ED0022916D085
:10021000032919D114E08849896801F01F01491C9C
:10022000864A5143864A11600EE08349896801F08D
:100230001F01491C834A5143814A116004E000BFF9
:1002400000217F4A116000BF00BF02E07C490860C6
:1002500000BF00BF7A4909687B4A11607649896FFF
:10026000774A1268B2FBF1F1754A11607749096863
:10027000C1F30221042905D1114609684908744ACD
:10028000116027E071490968C1F30221052905D1F0
:100290006B49096889086E4A11601BE06B4909685F
:1002A000C1F30221062905D165490968C908684AD0
:1002B00011600FE065490968C1F30221072905D1E2
:1002C0005F4909680909624A116003E05C490968ED
:1002D0005F4A11605D490968C1F3C221042905D153
:1002E0005749096849085B4A116027E0574909687E
:1002F000C1F3C221052905D1514909688908554A28
:1003000011601BE051490968C1F3C221062905D1DA
:100310004B490968C9084F4A11600FE04B49096809
:10032000C1F3C221072905D1454909680909494A8C
:10033000116003E042490968464A11607047002194
:10034000454A1160AA21444A0832116055211160C2
:100350000021424A1160AA219160552191604049D3
:1003600009684FF0FF314FF0E022C2F880123249A5
:10037000D1F8381221F480713A4A11604FF002012D
:100380002D4A11624FF0000001E000BF401CC82858
:10039000FBD30121284A516411640021516444F2C5
:1003A000490191602F49096821F08001C2F8381293
:1003B0004FF0000001E000BF401CC828FBD3032120
:1003C000294AD16001211C4A51670221116700218D
:1003D000516701219167254A1160174A5162114600
:1003E000D1F8381221F040011E4A116040F2FF118D
:1003F000114AC2F884101146D1F8881041F000511A
:10040000C2F888101146D1F8381221F01001154AAF
:10041000116041F24801164A116040F2FF1102F1E9
:100420000402116041F24801124A116040F2FF11CA
:1004300002F104021160704700100240005A62028B
:100440000000002000127A000400002094100240F6
:10045000080000200C000020002C0040003000406C
:1004600080E200E038120240002002409810024072
:10047000007400401074004008480047FEE7FEE7A3
:10048000FEE7FEE7FEE7FEE7FEE7FEE7FEE7FEE744
:1004900003480449044A054B704700003501000039
:1004A000D8000020D8060020D8020020D802002062
:1004B0008160704710B503460C46002204E0995C49
:1004C000FB48FFF7F5FF521CA242F8D310BD2DE9FF
:1004D000F04104460D4616461F46F648844218D1A0
:1004E000F548006820F4001000F50010F349C1F849
:1004F00090000846D0F8900020F40010C1F8900059
:10050000EF48006820F4001000F50010C1F88800E2
:100510001AE0E748844217D1E748006820F48000D9
:1005200000F58000E549C1F890000846D0F8900039
:1005300020F48000C1F89000E148006820F48000B9
:1005400000F58000C1F888004FF0FF00A0614FF473
:10055000FA6006FB00F0DB490968B1FBF0F12069A5
:1005600061F30F0020614FF4FA6006FB00F0D549FB
:100570000968B1FBF0F1606961F30F00606105B9D2
:10058000E76015B14220206003E00020A060402019
:100590002060C848844203D11F2000F0F9FC05E028
:1005A000C348844202D1212000F0F2FCBDE8F08172
:1005B0000146486880B2704702461068084070479C
:1005C000016070478161704701468868C0B270471A
:1005D000F0B50346B748834201D1BB4A00E0BB4AAD
:1005E0001846FFF7E5FF0446002000B950B110217E
:1005F0001846FFF7E5FF0C20107429211846FFF775
:10060000E1FFF0BD186810F0020F72D024F4E86426
:10061000E0B2102831D004DC012807D00B2869D1C2
:1006200039E0142868D01D28F9D19AE0506A0128D1
:1006300010D100205062D0611078401CC1B2184621
:10064000FFF736FF106A401C106229211846FFF799
:10065000B9FF11E000201062D06101211846FFF7B8
:10066000AFFF11781846FFF723FF106A401C106295
:1006700028211846FFF7A6FFA6E00020D061156AE2
:10068000681C1062515D1846FFF712FF28211846BA
:10069000FFF798FF98E0186800F00100012815D1D5
:1006A0009069012806D110211846FFF789FF07201D
:1006B000107406E0156A681C1062515D1846FFF759
:1006C000F7FE08211846FFF77DFF11E0D069401CB6
:1006D0005169884204D204211846FFF771FF03E0F4
:1006E00004211846FFF76EFF28211846FFF76AFF1E
:1006F0006AE06AE061E0FFE79169106A884207D228
:10070000156A681C1062515D1846FFF7D1FE23E0A0
:100710005069D8B100205062D06192F8280050B1E1
:100720001078401CC1B21846FFF7C2FE20211846BF
:10073000FFF746FF05E01078401CC1B21846FFF7EE
:10074000B7FE09211846FFF73DFF3DE0102118468E
:10075000FFF736FF0C20107408211846FFF732FF10
:1007600032E01846FFF730FFD569691CD16102F10C
:1007700008014855D069401C5169884208D20421BB
:100780001846FFF71DFF08211846FFF71BFF13E06F
:10079000186800F00400042804D10C211846FFF763
:1007A00011FF09E00C20107410211846FFF708FF14
:1007B00008211846FFF706FF06E00A2010740821FA
:1007C0001846FFF7FFFE00BF46E014F4807F25D0F7
:1007D0004FF4807098611846FFF7F6FE054600203A
:1007E0001062D061D868A84203D1002082F82900A5
:1007F0002FE0186AA84203D1012082F8290028E0DE
:10080000586AA84203D1022082F8290021E0986AA0
:10081000A8421ED1032082F829001AE014F4007FB8
:1008200007D000209968CEB2176A791C1162D6559C
:100830000FE014F4806F0CD0D169481CD06102F134
:100840000800405C98605169D069884201D300205B
:10085000D0612820986100BF00BFD2E670B5034682
:100860001448834201D1184A00E0184A1846FFF79D
:100870009FFE0446002000B950B110211846FFF732
:100880009FFE0C20107429211846FFF79BFE70BDB7
:10089000186810F0020F70D024F4E864E0B2102859
:1008A00042D015DC012818D00B2867D14AE000009F
:1008B00000580040005400409010024000100240D8
:1008C00088100240000000201C000020480000208A
:1008D000142867D01D28E8D199E0506A012810D16A
:1008E00000205062D0611078401CC1B21846FFF75A
:1008F000DFFD106A401C106229211846FFF762FED6
:1009000011E000201062D06101211846FFF758FE67
:1009100011781846FFF7CCFD106A401C10622821A0
:100920001846FFF74FFEA5E00020D061156A681C4D
:100930001062515D1846FFF7BBFD28211846FFF7EE
:1009400041FE97E0186800F00100012817D1906976
:10095000012806D110211846FFF732FE0720107437
:1009600006E0156A681C1062515D1846FFF7A0FD8D
:1009700008211846FFF726FE13E07CE073E0D069FB
:10098000401C5169884204D204211846FFF718FE22
:1009900003E004211846FFF715FE28211846FFF74B
:1009A00011FE67E09169106A884207D2156A681CD7
:1009B0001062515D1846FFF77BFD23E05069D8B106
:1009C00000205062D06192F8280050B11078401C8D
:1009D000C1B21846FFF76CFD20211846FFF7F0FD65
:1009E00005E01078401CC1B21846FFF761FD0921EF
:1009F0001846FFF7E7FD3DE010211846FFF7E0FD40
:100A00000C20107408211846FFF7DCFD32E0184670
:100A1000FFF7DAFDD569691CD16102F1080148557B
:100A2000D069401C5169884208D204211846FFF75A
:100A3000C7FD08211846FFF7C5FD13E0186800F050
:100A40000400042804D10C211846FFF7BBFD09E07F
:100A50000C20107410211846FFF7B2FD082118462B
:100A6000FFF7B0FD06E00A20107408211846FFF7D2
:100A7000A9FD00BF46E014F4807F25D04FF48070BC
:100A800098611846FFF7A0FD054600201062D0616E
:100A9000D868A84203D1002082F829002FE0186A04
:100AA000A84203D1012082F8290028E0586AA84210
:100AB00003D1022082F8290021E0986AA8421ED1C1
:100AC000032082F829001AE014F4007F07D00020E8
:100AD0009968C8B2166A711C116290550FE014F43F
:100AE000806F0CD0D169481CD06102F10800405CD5
:100AF00098605169D069884201D30020D0612820D4
:100B0000986100BF00BFC2E670B50346F848834253
:100B100001D1F84A00E0F84A1846FFF749FD0446BB
:100B2000002000B950B110211846FFF749FD0C20F4
:100B3000107429211846FFF745FD70BD186810F0A4
:100B4000020F72D024F4E864E0B2102831D004DC43
:100B5000012807D00B2869D139E0142868D01D2856
:100B6000F9D19AE0506A012810D100205062D0617A
:100B70001078401CC1B21846FFF79AFC106A401C5E
:100B8000106229211846FFF71DFD11E000201062B8
:100B9000D06101211846FFF713FD11781846FFF7C1
:100BA00087FC106A401C106228211846FFF70AFDD6
:100BB000A6E00020D061156A681C1062515D1846DD
:100BC000FFF776FC28211846FFF7FCFC98E0186830
:100BD00000F00100012815D19069012806D11021EB
:100BE0001846FFF7EDFC0720107406E0156A681C34
:100BF0001062515D1846FFF75BFC08211846FFF7AD
:100C0000E1FC11E0D069401C5169884204D2042102
:100C10001846FFF7D5FC03E004211846FFF7D2FC85
:100C200028211846FFF7CEFC6AE06AE061E0FFE7A2
:100C30009169106A884207D2156A681C1062515D7A
:100C40001846FFF735FC23E05069D8B10020506208
:100C5000D06192F8280050B11078401CC1B21846FB
:100C6000FFF726FC20211846FFF7AAFC05E01078C4
:100C7000401CC1B21846FFF71BFC09211846FFF7BC
:100C8000A1FC3DE010211846FFF79AFC0C201074DF
:100C900008211846FFF796FC32E01846FFF794FC4F
:100CA000D569691CD16102F108014855D069401C21
:100CB0005169884208D204211846FFF781FC0821B7
:100CC0001846FFF77FFC13E0186800F004000428C2
:100CD00004D10C211846FFF775FC09E00C201074B4
:100CE00010211846FFF76CFC08211846FFF76AFC34
:100CF00006E00A20107408211846FFF763FC00BFC5
:100D000055E014F4807F34D000264FF48070986151
:100D10001846FFF759FC054600201062D061D868DC
:100D2000A84203D1002082F8290013E0186AA842E3
:100D300003D1012082F829000CE0586AA84203D1AF
:100D4000022082F8290005E0986AA84202D1032017
:100D500082F82900002605E06848815D02F108005C
:100D60008155761C082EF7DB082050610020D061E9
:100D70001AE014F4007F07D000209968C8B2166A00
:100D8000711C116290550FE014F4806F0CD0D16982
:100D9000481CD06102F10800405C98605169D0693C
:100DA000884201D30020D0612820986100BF00BF95
:100DB000C3E6F0B504460D4616464D48844201D1BF
:100DC0004C4A00E04C4A157056709370002082F82F
:100DD000280050610320906120212046FFF7F0FB9E
:100DE0000020107400BF107C0C28FCD1FF2700BF2E
:100DF0003800A7F10101CFB2FAD1F0BD2DE9F041E1
:100E000004460D4617469846069E3948844201D14D
:100E1000384A00E0384A15705770002305E018F88A
:100E20000310981C1154581CC3B2B342F7DB0020C6
:100E300082F828005061B01C906120212046FFF705
:100E4000BFFB0020107400BF107C0C28FCD1FF23D6
:100E500000BF1800A3F10101CBB2FAD1BDE8F081C7
:100E600070B503460C4615462148834201D1214AFC
:100E700000E0214A147055700220906101205061F9
:100E800082F8280020211846FFF79AFB00201074F2
:100E900000BF107C0C28FCD1FF2600BF3000A6F15B
:100EA0000101CEB2FAD1107A70BD2DE9F0410546AC
:100EB0000E4617461C46DDF818800D48854201D1C4
:100EC0000C4A00E00C4A1670577002209061546181
:100ED000012082F8280020212846FFF771FB00201E
:100EE000107400BF107C0C28FCD100230FE0000020
:100EF000005400401C00002048000020100000208A
:100F000002F10800C05C08F80300581CC3B2A342F9
:100F1000F6DB002305E0002102F10800C154581C53
:100F2000C3B2A342F7DBFF2300BF1800A3F1010106
:100F3000CBB2FAD1BDE8F08170B503460C461A4831
:100F4000834201D1194900E019490C7002208861DF
:100F50004A61012081F828000020087400BF087C45
:100F60000C28FCD1FF2500BF2800A5F10106F5B231
:100F7000FAD1087A70BD10B503460B4CA34201D1DB
:100F80000A4800E00A48002484614261447410BDAC
:100F900000F01F020121914042094FF0E02303EBD2
:100FA0008202C2F800117047005400401C0000206B
:100FB0004800002000BF0100A0F10100FBD17047F4
:100FC00040F204401B498865C8658866C86670475A
:100FD000FFF7B5F9FFF7F4FF70233222012116481D
:100FE000FFF775FA7023322200211448FFF76FFAD9
:100FF00055211248FFF75CFA002270210E48FFF7D6
:101000002FFF0F490880A0210C48FFF751FA00225A
:1010100070210948FFF724FF0949088000BFFEE757
:1010200010B50548FFF7D4FA10BD10B50348FFF717
:10103000CFFA10BD000001400054004000580040AD
:101040001A000020704770477047754600F028F876
:10105000AE4605006946534620F00700854618B0A5
:1010600020B5FFF715FABDE820404FF000064FF01D
:1010700000074FF000084FF0000B21F00701AC46CD
:10108000ACE8C009ACE8C009ACE8C009ACE8C009EC
:101090008D4670470446AFF300802046FFF793F873
:1010A0000048704774000020004870477800002016
:1010B00001491820ABBEFEE726000200704710B5BC
:1010C000FFF7F2FF4FF00001016010BDEC100000CF
:1010D000000000201C00000070010000081100004A
:1010E0001C000020BC0600008C01000000A24A0485
:1010F00000A24A0400A24A0400A24A04AA11223310
:08110000445566FF00000000E9
:0400000500000135C1
:00000001FF
