:020000040000FA
:1000000020040020ED030000F1030000F3030000D2
:10001000F5030000F7030000F903000000000000F2
:10002000000000000000000000000000FB030000D2
:10003000FD03000000000000FF03000001040000B9
:100040000304000003040000030400000304000094
:100050000000000000000000030400000304000092
:100060000304000003040000030400000304000074
:100070000304000003040000030400000304000064
:100080000304000003040000030400000304000054
:100090000000000003040000000000000304000052
:1000A0000304000003040000030400000304000034
:1000B0000304000003040000030400000304000024
:1000C0000000000003040000000000000304000022
:1000D0000304000003040000030400000304000004
:1000E00003040000000000000304000003040000FB
:1000F00003040000030400000304000003040000E4
:1001000000000000000000000304000003040000E1
:1001100003040000030400000304000003040000C3
:1001200003040000030400000304000003040000B3
:1001300000000000DFF80CD001F01AFA0048004778
:10014000E10D00002004002000209B49096F01F010
:10015000030131B1012908D002290AD0032932D183
:100160002EE09649964A11602DE09649944A116016
:1001700029E09149096C01F0030131B101290ED048
:10018000022916D0032919D114E08B49896801F09E
:100190001F01491C894A5143894A11600EE0864972
:1001A000896801F01F01491C864A5143844A116045
:1001B00004E000BF0021824A116000BF00BF02E0DE
:1001C0007F49086000BF00BF7D4909687E4A116011
:1001D0007949896F7A4A1268B2FBF1F1784A116065
:1001E000754994310968C1F30221042905D11146EA
:1001F00009684908754A11602AE06F499431096815
:10020000C1F30221052905D16D49096889086F4AA2
:1002100011601DE0684994310968C1F30221062983
:1002200005D167490968C908684A116010E0624948
:1002300094310968C1F30221072905D16049096891
:100240000909624A116003E05D4909685F4A11606B
:10025000594994310968C1F3C221042905D158498B
:10026000096849085A4A11602AE0534994310968DB
:10027000C1F3C221052905D1514909688908544AA9
:1002800011601DE04C4994310968C1F3C22106296F
:1002900005D14B490968C9084D4A116010E046492B
:1002A00094310968C1F3C221072905D1444909687D
:1002B0000909474A116003E041490968444A11604D
:1002C00070470021434A1160AA21424A0832116056
:1002D000552111600021404A1160AA2191605521E9
:1002E00091603E4909684FF0FF314FF0E022C2F8BB
:1002F00080123149D1F8381221F48071384A1160E6
:1003000002212D4A1162002001E000BF401CC828D4
:10031000FBD30121284A516411640021516444F245
:10032000490191602E49096821F08001C2F8381214
:10033000002001E000BF401CC828FBD30321294A4C
:10034000D16001211C4A51670221116700215167C8
:1003500001219167184A98321160174A516211467B
:10036000D1F8381221F040011D4A116040F2FF110E
:10037000114AC2F884101146D1F8881041F000519A
:10038000C2F888101146D1F8381221F01001144A31
:10039000116041F24801144A116040F2FF11121D30
:1003A000116041F24801104A1032116040F2FF1111
:1003B000121D11607047000000100240005A6202D6
:1003C0000000002000127A00040000200800002035
:1003D0000C000020002C00400030004080E200E0D3
:1003E00038120240002002400074004005480047D7
:1003F000FEE7FEE7FEE7FEE7FEE7FEE7FEE7FEE7D5
:10040000FEE7FEE73501000030B5B24C2468B24D7E
:10041000AC4207D2B14CE46F24F0FF04641CAF4D32
:10042000EC6720E0AB4C2468AD4DAC4207D2AB4C3E
:10043000E46F24F0FF04A41CA84DEC6713E0A54C66
:100440002468A84DAC4207D2A44CE46F24F0FF040A
:10045000E41CA24DEC6706E0A04CE46F24F0FF041E
:10046000241D9E4DEC67A04CA0420AD19B4C8434C5
:10047000246824F4007404F50074984DC5F8844091
:100480001AE09A4CA0420AD1944C8434246824F493
:10049000806404F58064914DC5F884400CE0944C70
:1004A000A04209D18D4C8434246824F4004404F51E
:1004B00000448A4DC5F88440046824F080440460F8
:1004C000894CA04211D1854C8C34246824F40074EA
:1004D00004F50074814DC5F88C402C46D4F88C404E
:1004E00024F40074C5F88C4028E0804CA04211D15F
:1004F0007A4C8C34246824F4806404F58064774D4D
:10050000C5F88C402C46D4F88C4024F48064C5F89F
:100510008C4013E0764CA04210D1704C8C3424688F
:1005200024F4004404F500446C4DC5F88C402C467E
:10053000D4F88C4024F40044C5F88C406D4CA142A2
:1005400000D921460901634C2468B4FBF1F4634DE2
:10055000ED6FEDB2B4FBF5F202FB01F45D4D2D68D9
:10056000AC4206D0644C54435A4D2D68AC4200D284
:10057000521C046862F30F240460FF2300BF1C00B8
:10058000A3F10103FBD1046824F4803404F5803422
:100590000460046824F0005404F10054046004680A
:1005A00024F0FF04641C046000BF046BC4F34054D7
:1005B000002CFAD030BD0021C160491E01630168E2
:1005C00021F0804101F1804101600021434AD1675F
:1005D0007047F0B50C46002500210CE00F278F4036
:1005E000174027FA01F606FA01F73D43076864F35E
:1005F00007070760091D2029F0D38560076827F0E9
:1006000000570760012B03D1076827F07067076068
:10061000076863F310470760076827F0005707F182
:10062000005707602BB900BF076BC7F34057002F77
:10063000FAD0F0BD036861F31B630360036862F3E3
:100640001C73036000BF036BC3F34053002BFAD04D
:100650007047436B61F30B0343630F2A00D1002201
:10066000436B62F30E3343637047436B61F31B4389
:1006700043630F2A00D10022436B62F31E7343636E
:100680007047836B61F30B0383630F2A00D1002251
:10069000836B62F30E3383637047836B61F31B4399
:1006A00083630F2A00D10022836B62F31E7383637E
:1006B0007047C160704702460B4600BF02F1100050
:1006C00050F8231001F000400028F7D0C1F30B00D0
:1006D000704700000C000020002D31010010024086
:1006E000005A620200879303002401400028014061
:1006F000003C014040420F000024F400026A8A439B
:100700000262704701627047C2680A43C260704764
:1007100002690A430261704742690A4342617047B5
:1007200002465068084008B1012070470020FCE7ED
:100730000146486880B2704702680A430260704709
:1007400002688A43026070470146486880B2704779
:100750008160704770B505460C461646012E06D1DD
:10076000BB4800682043BB49C1F8000205E0B84817
:100770000068A043B749C1F80002B748854207D1D5
:10078000B348006820F46020B249C1F800024CE090
:10079000B248854209D1AE48006820F4602000F5D7
:1007A0000030AC49C1F800023FE0AD48854209D1B4
:1007B000A748006820F4602000F58020A549C1F812
:1007C000000232E0A748854209D1A148006820F420
:1007D000602000F5C0209F49C1F8000225E0A24832
:1007E000854209D19A48006820F4602000F5002075
:1007F0009849C1F8000218E09C48854209D1944804
:10080000006820F4602000F520209249C1F8000221
:100810000BE09648854208D18D48006820F460209E
:1008200000F540208B49C1F800028948006820F497
:10083000803000F580308749C1F80002012C03D1D7
:10084000062000F0F0F868E0022C03D1072000F049
:10085000EAF862E0042C03D1082000F0E4F85CE040
:10086000082C03D1092000F0DEF856E0102C03D14B
:100870000A2000F0D8F850E0B4F5007F01D1012043
:1008800000E00020B4F5807F01D1012100E00021CB
:100890000843802C01D1012100E000210843402CB5
:1008A00001D1012100E000210843202C01D10121C8
:1008B00000E00021084318B1172000F0B4F82CE044
:1008C000B4F5004F01D1012000E00020B4F5804FC5
:1008D00001D1012100E000210843B4F5005F01D1FE
:1008E000012100E000210843B4F5805F01D101211E
:1008F00000E000210843B4F5006F01D1012100E0C0
:1009000000210843B4F5806F01D1012100E00021EE
:10091000084310B1282000F086F84D48001D0460FF
:1009200070BD4B4A083212680A434A4BC3F808228A
:10093000704770B505460C464548001D0068A04349
:100940004449C1F80402012C03D1062000F076F8D6
:1009500068E0022C03D1072000F070F862E0042C5C
:1009600003D1082000F06AF85CE0082C03D10920CC
:1009700000F064F856E0102C03D10A2000F05EF875
:1009800050E0B4F5007F01D1012000E00020B4F573
:10099000807F01D1012100E000210843802C01D19A
:1009A000012100E000210843402C01D1012100E099
:1009B00000210843202C01D1012100E0002108433F
:1009C00018B1172000F03AF82CE0B4F5004F01D12F
:1009D000012000E00020B4F5804F01D1012100E0AA
:1009E00000210843B4F5005F01D1012100E000219E
:1009F0000843B4F5805F01D1012100E000210843E4
:100A0000B4F5006F01D1012100E000210843B4F5E5
:100A1000806F01D1012100E00021084310B128209E
:100A200000F00CF870BD00F01F0201219140420956
:100A3000920002F1E022C2F80011704700F01F029C
:100A4000012191400A4A430942F8231070470000EF
:100A5000001202400010024000080140000C01405A
:100A6000001001400014014000180140001C01402A
:100A700080E100E02DE9F04104460F4616461D4690
:100A8000C148006820F0FF00401CBF499839C1F8F8
:100A90009800BE4884421ED1252000F06CF9BA4867
:100AA0001438006820F4804000F58040B649983939
:100AB000C1F88400B4480C38006820F4804000F588
:100AC0008040C1F88C000846D0F88C0020F48040AB
:100AD000C1F88C0045E0AE4884421ED1262000F0CB
:100AE0004AF9A9481038006820F4003000F50030B9
:100AF000A5499839C1F88800A3480838006820F44F
:100B0000003000F50030C1F890000846D0F89000A1
:100B100020F40030C1F8900023E09E4884421ED1AA
:100B2000272000F028F998481038006820F4802029
:100B300000F5802094499839C1F888009248083817
:100B4000006820F4802000F58020C1F8900008465D
:100B5000D0F8900020F48020C1F8900001E0BDE8BA
:100B6000F0818D480068B0FBF7F1206961F3130054
:100B70002061022E05D1A06820F4807000F58070FD
:100B8000A0602EB1A06820F4007000F50070A06095
:100B9000022D04D1A06820F00200801CA060202D4E
:100BA00004D1A06820F020002030A060082D04D1DE
:100BB000A06820F008000830A060A06820F40000C1
:100BC00000F50000A060A06820F4800000F580001F
:100BD000A060FF20606100BFC1E7C16841F0FF0174
:100BE000C1607047816821F0FF018160704710B5D6
:100BF0000446664884420CD1252000F0BCF86248C7
:100C00001438006820F480405F499839C1F88400A6
:100C100020E05F4884420CD1262000F0ACF85A480E
:100C20001038006820F4003057499839C1F888001E
:100C300010E0584884420CD1272000F09CF852481C
:100C40001038006820F480204F499839C1F8880096
:100C500000E010BD2046FFF7C5FF2046FFF7BDFFAF
:100C600000BFF6E702465068C0F3400018B11068B4
:100C70000870002070470120FCE730B5002304E035
:100C8000046801F8014B5C1CE3B24468C4F34004FF
:100C900024B115786C1E1470002DF1D1137030BD85
:100CA00002465068C0F3800008B101207047106808
:100CB00061F3070010600020F8E710B5034658689C
:100CC000C0F3800008B9102A01D3012010BD05E04F
:100CD00011F8014B186864F3070018601000A2F1C6
:100CE0000102F5D100BFF1E710B50BE000BF43688A
:100CF000C3F38003002BFAD111F8014B036864F3AE
:100D0000070303601300A2F10102EFD110BD08E058
:100D100000BF4268C2F38002002AFAD111F8012B09
:100D200002600A78002AF3D170470A4600BF02F039
:100D30000F01092903DD01F13703D9B202E001F106
:100D40003003D9B200BF4368C3F38003002BFAD14C
:100D5000036861F3070303601309002BE7D07047B2
:100D600082680A438260704701464868C0B2704793
:100D7000FF214161704700F01F0201219140074AA5
:100D8000430942F823107047981002400038014090
:100D900000440040004800400400002080E100E0E2
:100DA00000BF0100A0F10100FBD170477948406A03
:100DB00020F00700401C774948620846406A20F04E
:100DC0001000103048620846806A20F00700401C7E
:100DD00088620846806A20F01000103088627047F0
:100DE0001FB5FFF76EFA6C48006840F008006A49CA
:100DF0008439C1F884000846D0F8840040F010001F
:100E0000C1F884000846D0F8840040F02000C1F802
:100E1000840049156148FFF775FC01216048FFF720
:100E200071FC04215F48FFF76DFCFFF7BFFF202333
:100E300000224FF4E1315C48FFF71CFE5BA000F09C
:100E4000B9FB072053499431086063496348FFF7B1
:100E5000DBFA0123F02202216048FFF7BAFB4FF6CC
:100E6000FF70FFF79DFF82E000BF00BF00205C49DC
:100E7000086082460EE041F28830FFF791FF0121C1
:100E80005648FFF718FC5649096808445449086059
:100E90000AF1010ABAF5806FEDD351480068800A63
:100EA0004F4908600846006840F6A331884217D9C8
:100EB0004B48006800F0EEF980460022494B00F0F4
:100EC00074F9494A494BCDE9000100F074F9002258
:100ED000474BCDE9020100F06BF904460D4616E0E0
:100EE0003F48006800F0D6F9804600223D4B00F0F4
:100EF0005FF93D4A3D4BCDE9000100F05CF900226D
:100F00003B4BCDE9020100F0AFF804460D46224606
:100F10002B4638A000F04EFB314801683DA000F0A0
:100F200049FB2F48006840F24D11484340F6FF71DD
:100F3000B0FBF1F02A4908600846006800F0AAF901
:100F4000804600223A4B00F036F906460F463246FC
:100F50003B4638A000F02EFB42480088C043414980
:100F60000880084601880E48FFF7F2FB00BF7BE7C8
:100F700070B504460D46E1B20B48FFF791FE00BF85
:100F80000948FFF7F1FE00F001000028F8D12046E3
:100F900070BD00000000014084100240000C0140C0
:100FA0000010014000140140003801400D0A2D2DB1
:100FB0002D2D2D2D2D2D2D2D2D2D2D2D2D2D414436
:100FC0004320546573742D2D2D2D2D2D2D2D2D2D5C
:100FD0002D2D2D2D2D0D0A00A0860100002401408D
:100FE000100000200046A7406EF3225A1E9F2340A7
:100FF000000039405468652074656D7065726174D5
:10100000757265202069733A20252E316620A1E68D
:101010000D0A00005468652074656D702076616C5F
:1010200075652069733A20307825780D0A00000034
:10103000000059405468652041444331325F494EB5
:101040003136206361707475726520766F6C7461DF
:1010500067652069733A20252E33662056200D0AD5
:1010600000000000140000202DE9FE4F804681EAB8
:101070000300C00F0C46009021F0004123F0004512
:10108000B8EB0200A94105D24046214690461C46D5
:101090000B46024623F00040104347D0270DC7F30C
:1010A0000A00C3F30A510290401A019040286BDAFB
:1010B000C3F3130040F4801B0098924620B1002334
:1010C000D2EB030A63EB0B0B01985946C0F14002C7
:1010D000504600F033F906460D4650465946019AEF
:1010E00000F03BF910EB08006141002487EA11523F
:1010F00084EAE7731A4340D0009A62B3019A012A46
:101100004FEA075215DC001B61EB02014FF0004271
:1011100002EA0752CDE90042001C41F58011324637
:101120002B4600F039F903B0BDE8F08F4046214668
:10113000F9E7001B61EB0201001C41F58013001868
:101140005B412018A2F5001747EB030140EAD57078
:10115000B6196D4111E06D084FEA360645EAC075D3
:101160004FEA0752001B61EB0201001C41F58011A0
:1011700049084FEA30000019514132462B4603B06E
:10118000BDE8F04F00F0FBB80098012240000023BA
:10119000D0EB020263EBE073009821464FEAE07463
:1011A000B8EB000061EB0401E9E783F000435BE783
:1011B00081F0004158E72DE9F04D81EA030404F085
:1011C000004B21F0004514464FF0000A23F0004187
:1011D00050EA050220D054EA01021DD0C5F30A5797
:1011E0000246C5F31303C1F31300C1F30A5640F4DA
:1011F000801543F48013A7EB0608101BD64608F2AF
:10120000FD3873EB050002D308F1010801E09218E4
:101210005B41B8F1000F03DA00200146BDE8F08D14
:1012200000204FF48011064684460EE0171B73EB36
:10123000050705D3121B63EB050306434CEA010CBB
:1012400049084FEA300092185B4150EA0107EDD19E
:1012500052EA030012D082EA040083EA050108433F
:1012600005D0101BAB4106D20122002306E000226C
:101270004FF0004302E06FF0010253101AEB06003A
:101280004CEB085110EB0A0041EB0B01BDE8F04DAF
:1012900000F075B80EB540F2334102910021CDE95E
:1012A00000110A460B4600F077F803B000BD30B5D8
:1012B0000B46014600202022012409E021FA02F514
:1012C0009D4205D303FA02F5491B04FA02F52844AE
:1012D000151EA2F10102F1DC30BD2DE9F05F0546DB
:1012E000002092469B4688460646814640241BE0E5
:1012F000284641464746224600F04CF953465A4696
:10130000C01A914110D311461846224600F016F833
:101310002D1A67EB01084F4622460120002100F0FC
:101320000DF817EB00094E41201EA4F10104DFDC8B
:10133000484631462A464346BDE8F09F202A04DB52
:10134000203A00FA02F1002070479140C2F12003D8
:1013500020FA03F3194390407047202A06DBCB178D
:10136000203A41FA02F043EAE07306E041FA02F360
:10137000D040C2F12002914008431946704710B591
:10138000002B08DA401C41F1000192185B411A431E
:1013900001D120F0010010BD2DE9F04D92469B4691
:1013A00011B1B1FA81F202E0B0FA80F22032904637
:1013B000FFF7C4FF04460F4640EA0A0041EA0B016A
:1013C00053465A46084313D0114653EA010019D038
:1013D000C8F14002504600F0DDF805460E46504682
:1013E00059464246FFF7AAFF084305D0012004E012
:1013F00020463946BDE8F08D0020054346EAE076F8
:101400002C4337430A986305E40AA0EB0800002246
:10141000FD0A44EA47540A3002D500200146E9E7B4
:10142000010510196941DDE9084500196941BDE868
:10143000F04DA4E72DE9FE4F81EA030404F00044D7
:1014400021F0004100944FF0000B23F0004350EADC
:1014500001045ED052EA03045BD0C3F30A54C1F323
:101460000A552C44A4F2F3340194A0FB0254C1F3B6
:10147000130141F48011C3F3130343F4801301FB00
:10148000024400FB034E840A970A44EA815447EA67
:101490008357A4FB076802958D0A05FB07854FEA71
:1014A000932C04FB0C542705029D4FEA065847EA8B
:1014B0001637B5EB08056EEB070C870E920E47EA60
:1014C000811742EA8312A7FB0201B6EB0B0164EB22
:1014D00000042B0D43EA0C335E1844EB1C50DA4633
:1014E0005146E7FB0201C5F313044FEA0B3343EA0D
:1014F00014534FEA0432019C43EA0603A4F10C049E
:101500000294009CCDE900B4FFF746FF03B0BDE8AC
:10151000F08F00200146F9E7C1F30A52C1F313012D
:1015200040F2FF3341F480119A4202DA0020014672
:10153000704740F233439A42A2F2334202DC5242F5
:1015400000F028B8FFF7FABE30B5002904DB4FF0F1
:101550000044404264EB0101002B04DB4FF00044E7
:10156000524264EB0303994208BF904230BD000031
:10157000064C074D06E0E06840F0010394E80700E0
:1015800098471034AC42F6D3FEF7D8FD881E000011
:10159000A81E0000202A04DB203A21FA02F00021D4
:1015A000704721FA02F3D040C2F120029140084373
:1015B000194670470FB4054B10B503A9044A0298A9
:1015C00000F0CAF810BC5DF814FB0000710F0000B9
:1015D0001800002002E008C8121F08C1002AFAD132
:1015E00070477047002001E001C1121F002AFBD1A3
:1015F000704700002DE9FF5FDDE90220010DDDF8F5
:1016000038B0024318D044F61050A1F2FF314143E4
:101610000D140F98012820D0A5EB0B00401C5FEAA9
:10162000000A4FF00004474EDFF81C91A0465046D8
:1016300016D5CAF1000728E00F98012443A201281B
:1016400008D0002100980F9BC0E90021C0E90243A7
:10165000BDE8FF9F6FEA0B01F4E7CBF10000DEE786
:10166000074612E0F80707D022463346404649466F
:10167000FFF7E0FE8046894622463346104619466B
:10168000FFF7D8FE04460E467F10002FEAD1DDE9B1
:101690000201BAF1000F42464B4602DAFFF7CAFEDA
:1016A00001E0FFF788FD04460E460022284BFFF7B5
:1016B0004BFF03D84FF0FF30014607E00022254BD7
:1016C00020463146FFF7D0FCFFF726FF102409E043
:1016D000002C0ADB0A220023FFF7FFFD019B3032BA
:1016E0001A55641E50EA0102F2D1641C019AC4F139
:1016F000110314440F9A012A03D0012208430DD18B
:101700000AE0084304D000204FF0110B0F9080E74F
:10171000A3EB0B056D1E0DE05B4504DD4FF00002F1
:1017200005F1010504E003DA4FF00002A5F101051F
:10173000002AECD000980F99C0E90231C0E90045B9
:1017400086E70000000024400000F03F3000000069
:101750000000F0430000E03F2DE9FF4F95B09B46AD
:101760008946064600250FE2252877D10024274622
:10177000F84A0121059400E0044316F8013F203B9C
:1017800001FA03F01042F7D130782A2811D06FF017
:101790002F033078A0F13002092A16D8059A44F0B8
:1017A000020402EB820203EB42021044761C059015
:1017B000EFE759F8042B0592002A03DA504244F46B
:1017C0000054059044F00204761C30782E2816D17F
:1017D00016F8010F44F004042A280DD06FF02F02F0
:1017E0003078A0F13003092B09D807EB870302EB0F
:1017F0004303C718761CF3E759F8047B761C30784E
:101800006C280FD006DC4C2817D068280DD06A2829
:1018100014D104E0742810D07A280FD10DE044F4DC
:1018200000140AE044F4801401E044F44014727897
:10183000824202D104F58014761C761C307866282A
:101840000BD013DC582877D009DC002875D0452848
:10185000F6D04628F4D047281AD19DE118E0632835
:1018600035D0642879D0652812D195E1702873D0DD
:1018700008DC6728F1D069286FD06E280DD06F285A
:1018800006D1B5E073282CD0752875D0782874D08F
:101890005A46179990476D1C75E1C4F3025002280F
:1018A00009D003280DD0D9F8001004280DD00D6000
:1018B00009F1040967E1D9F80010EA17C1E90052FB
:1018C000F6E7D9F800100D80F2E70D70F0E719F88F
:1018D000041B8DF8001000208DF80100EA4601205D
:1018E00003E059F804AB4FF0FF3061074FF00001FF
:1018F00002D40DE008F101018846B9420FDA8045B3
:10190000F8DB1AF808100029F4D108E008F1010109
:1019100088468142FADB1AF808100029F6D10598AA
:101920005B46A0EB080721463846179A00F094FA68
:10193000284400EB080507E04DE029E10DE01AF826
:10194000010B5A4617999047B8F10108F7D25B4648
:1019500021463846179A13E142E00A220092C4F366
:1019600002524FF0000A022A08D059F804CB032A89
:101970004FEAEC710AD00DE029E02AE009F10701F5
:1019800021F00702F2E802C1914609E00FFA8CFC4F
:101990004FEAEC71042A03D14FFA8CFC4FEAEC7148
:1019A000002907DA0A460021DCF1000C61EB020194
:1019B0002D2202E0220504D52B228DF804200122DD
:1019C00003E0E20701D02022F7E7904659E00A2120
:1019D00002E010220DE010214FF0000A00910BE010
:1019E00010224FF0000A44F004040827009203E09C
:1019F00008224FF0000A0092C4F30252022A05D0D6
:101A000059F804CB0021032A08D009E009F10701A5
:101A100021F00702F2E802C1914605E01FFA8CFCB2
:101A2000042A01D10CF0FF0C4FF00008220728D542
:101A3000702806D0009B83F0100353EA0A0305D0F8
:101A40000EE040228DF80420012208E05CEA010249
:101A500006D030228DF804208DF805000222904631
:101A6000009B83F0080353EA0A030AD15CEA0102EF
:101A700001D1620705D530228DF804204FF001080E
:101A80007F1E582804D034A003900EA802900DE0C9
:101A900036A0F9E753466046009AFFF71EFC8446DD
:101AA0000398825C0298401E029002705CEA01007A
:101AB000F0D1029806A9081A00F1200A600702D5A1
:101AC00024F4803400E00127574502DDA7EB0A002B
:101AD00000E0002000EB0A01009005984144401A04
:101AE0000590E00306D45B462146179A059800F05E
:101AF000B3F90544002706E001A85A46C05D1799CE
:101B000090476D1C7F1C4745F6DBE0030CD55B4618
:101B10002146179A059800F09FF9054404E030200B
:101B20005A46179990476D1C0099481E009000294D
:101B3000F5DC08E0029802995A460078491C0291A7
:101B4000179990476D1CBAF10001AAF1010AF1DC66
:101B500065E1000009280100303132333435363771
:101B600038396162636465660000000030313233E9
:101B70003435363738394142434445460000000089
:101B800000F058F90544761C307800287FF4ECAD5D
:101B900019B02846BDE8F08F620700D4062709F186
:101BA000070222F0070CFCE80223E14603F000489C
:101BB0005FEA080C02D00FF2702C0DE05FEA045CC3
:101BC00002D50FF2682C07E05FEAC47C02D00FF266
:101BD000602C01E0AFF2700C4FF0FF3823F00043AF
:101BE000CDF850C065280CD006DC452809D0462821
:101BF0001DD047283DD13DE0662818D067287ED10A
:101C000038E00021112F01DB112000E0781CCDE924
:101C1000000106A90EA8FFF7EDFCDDE90F010E9A01
:101C200003910021009207F1010A04914DE04FF069
:101C300000400097CDE9011006A90EA8FFF7DAFCD5
:101C4000DDE90F0203920E9B11990022DDF80CA032
:101C50000093049211B9791C00EB010AB7EB0A005A
:101C600004D4C0F1FF3007F1010A0490AAEB070089
:101C7000019044E0012F00DA01270021112F01DD3E
:101C8000112000E03846CDE9000106A90EA8FFF7B3
:101C9000B1FCDDE90F010E9A03910021049100923D
:101CA000BA4621070CD40399514500DA8A46BAF1A5
:101CB000010F05DD009AAAF10101515C302908D01D
:101CC000B84202DA10F1040F06DA0121CDE9011061
:101CD00015E0AAF10101E9E7002805DC04990144B7
:101CE0000491AAEB000102E0411C514500DD8A4647
:101CF0000499401A401C01904FF0004002902007C8
:101D000004D40198504501DBCDF8048000208DF803
:101D10004F0002980DF14F07B0F1004F25D02B2056
:101D20000E9002984FF0020800280CDA4042029010
:101D30002D200E9007E00A210298FFF7B8FA303103
:101D4000029007F8011DB8F10001A8F10108F2DCCA
:101D500002980028EFD1791E0E980870307800F0B4
:101D6000200040F0450007F8020D12A8C01B00F14A
:101D700007081498007800B1012000EB0A010198CF
:101D800001EBE07105984144401A401E0590E003C4
:101D900006D45B462146179A059800F05DF8054485
:101DA0001498007818B15A46179990476D1CE003B3
:101DB00024D55B462146179A059800F04DF8054456
:101DC0001CE00498002807DBDDE90301884203DDFD
:101DD0000098405C179901E0179930205A469047C7
:101DE000049805F10105401C04900198401E0190E3
:101DF00004D12E205A46179990476D1CBAF1000164
:101E0000AAF1010ADDDC05E017F8010B5A46179923
:101E100090476D1CB8F10001A8F10108F4DC5B46A5
:101E20002146179A0598ABE62D0000002B00000014
:101E3000200000002DE9F041044600251E4617460B
:101E4000880404D405E039462020B0476D1C641E88
:101E5000F9D52846BDE8F0812DE9F041044600257A
:101E60001E469046C80301D5302700E0202788048D
:101E700004D505E041463846B0476D1C641EF9D5CF
:101E80002846BDE8F0810000A81E000000000020E8
:101E90001C000000D4150000C41E00001C0000201F
:101EA00004040000E415000000A24A0400A24A0451
:101EB00000A24A0400A24A04000000000100000041
:041EC000000000001E
:0400000500000135C1
:00000001FF
