:020000040000FA
:1000000068060020C9030000CD030000CF030000F4
:10001000D1030000D3030000D5030000000000005E
:10002000000000000000000000000000D7030000F6
:10003000D903000000000000DB030000DD03000026
:10004000DF030000DF030000DF030000DF03000028
:100050000000000000000000DF030000DF030000DC
:10006000DF030000DF030000DF030000DF03000008
:10007000DF030000DF030000DF030000DF030000F8
:10008000DF030000DF030000DF030000DF030000E8
:1000900000000000DF03000000000000DF0300009C
:1000A000DF030000DF030000DF030000DF030000C8
:1000B000DF030000DF030000DF030000DF030000B8
:1000C00000000000DF03000000000000DF0300006C
:1000D000DF030000DF030000DF030000DF03000098
:1000E000DF03000000000000DF030000DF0300006A
:1000F000DF030000DF030000DF030000DF03000078
:100100000000000000000000DF030000DF0300002B
:10011000DF030000DF030000DF030000DF03000057
:10012000DF030000DF030000DF030000DF03000047
:100130000000000000F002F800F03AF80AA090E891
:10014000000C82448344AAF10107DA4501D100F092
:100150002FF8AFF2090EBAE80F0013F0010F18BF25
:10016000FB1A43F0010318472C0400004C04000064
:10017000103A24BF78C878C1FAD8520724BF30C8D3
:1001800030C144BF04680C607047000000230024A5
:1001900000250026103A28BF78C1FBD8520728BF97
:1001A00030C148BF0B6070471FB51FBD10B510BDF3
:1001B00000F0B9F91146FFF7F7FF00F085F900F0FC
:1001C000D7F903B4FFF7F2FF03BC00F0DBF900003E
:1001D00000207249096F11F0030106D0012908D0EF
:1001E000022923D003296DD123E06D496D4A1160A6
:1001F00068E06A49096C11F0030106D0012908D0B2
:1002000002290AD003290FD10AE06549654A116025
:100210000AE06549634A116006E06249086003E04C
:100220000021604A116000BF00BF4BE05D490860DB
:1002300048E05A49096C11F0030106D0012917D092
:10024000022928D003293BD136E05449896811F4AA
:10025000C07F03D05249534A116008E04F49896872
:1002600001F01F01491C4E4A51434E4A116027E0DC
:100270004A49896811F4C07F03D04B49494A11604B
:1002800008E04649896801F01F01491C464A51436C
:10029000444A116014E04149896811F4C07F02D0DA
:1002A0004049086007E03D49896801F01F01491C89
:1002B00041433C4A116003E000213A4A116000BF0B
:1002C00000BF00BF00BF37490968384A1160334991
:1002D000896F344A1268B2FBF1F1324A11607047FB
:1002E0000021334A1160AA21314A08321160552198
:1002F000116000212F4A1160AA219160552191605F
:100300002D4909684FF0FF314FF0E022C2F880120A
:100310002249D1F8381221F48071284A11604FF037
:1003200002011E4A11624FF0000001E000BF401CB4
:10033000C828FBD30121194A51641164002151647A
:1003400044F2490191601D49096821F08001C2F819
:1003500038124FF0000001E000BF401CC828FBD35A
:100360000321174AD16001210C4A5167022111670C
:100370000021516701219167124A1160074A5162B9
:100380001146D1F8381221F040010C4A116040F2B8
:10039000FF11024AC2F884107047000000100240AA
:1003A000005A62020000002000127A0004000020BF
:1003B000002C00400030004080E200E03812024093
:1003C000002002409810024008480047FEE7FEE780
:1003D000FEE7FEE7FEE7FEE7FEE7FEE7FEE7FEE7F5
:1003E00003480449044A054B7047000035010000EA
:1003F00068000020680600206802002068020020D3
:10040000026A8A430262704701627047C2680A4307
:10041000C260704702690A430261704742690A4339
:100420004261704702465068084201D0012070477F
:100430000020FCE70146486880B2704702680A4322
:100440000260704702688A4302607047014648684C
:1004500080B2704781607047436A8B434362036B8D
:100460000B4303635AB1012A02D0022A12D10DE0D4
:10047000836A8B438362C36A0B43C3620BE0836A64
:100480008B438362C36A8B43C36204E0836A0B437A
:10049000836200E000BF00BF7047000000BF0100A2
:1004A000A0F10100FBD170471748006820F0070059
:1004B0001649C1F894001448006820F0080000F1C3
:1004C0000800C1F894007047FFF70AFF1048006861
:1004D00040F004000F49C1F88400FFF7E5FF042154
:1004E0000D48FFF791FF0DE004210B48FFF78EFF49
:1004F0000A48FFF7D3FF04210748FFF78BFF07489F
:10050000FFF7CCFFF0E7000094000140000001403D
:1005100084100240001002400008014080841E0048
:10052000704770477047754600F028F8AE460500E2
:100530006946534620F00700854618B020B5FFF7FE
:100540004FFFBDE820404FF000064FF000074FF08E
:1005500000084FF0000B21F00701AC46ACE8C009E1
:10056000ACE8C009ACE8C009ACE8C0098D467047EA
:100570000446AFF300802046FFF723FE0048704793
:100580000800002001491820ABBEFEE7260002004B
:1005900070470000B40500000000002008000000C3
:1005A00070010000BC05000008000020600600008B
:0C05B0008C01000000A24A0400A24A04D2
:0400000500000135C1
:00000001FF
